:100000000C94D2030C9452050C94EF030C94EF0360
:100010000C94EF030C94EF030C94EF030C94EF0398
:100020000C94EF030C94EF030C94EF030C94EF0388
:100030000C94EF030C94EF030C94EF030C94EF0378
:100040000C94EF030C94EF030C94EF030C94EF0368
:100050000C94EF033A0440D012143280171618049F
:1000600019021A7B03060C003E0070007100721129
:100070007300A20211017A207B1C7C287D3C7E55F6
:100080007F68807681808288838F849685A386AFFF
:1000900087C488D789E813E0000010000D00142001
:1000A000A505AB072475256326A59F78A068A10345
:1000B000A6DFA7DFA8F0A990AA9413E50E610F4B65
:1000C00016021E37210222912907330B350B371DEB
:1000D0003871392A3C784D404E20690C6B60741998
:1000E0008D4F8E008F0090009100920096009A80B4
:1000F000B084B10CB20EB382B80A431444F0453454
:1001000046584728483A59885A885B445C675D4995
:100110005E0E640465206605940495086C0A6D55AE
:100120006E116F9F6A400140024013E715004F8037
:10013000508051005222535E5480589E41083F0027
:10014000750576E14C0077013DC24B09C960413825
:10015000564034113B02A48996009730982099307C
:100160009A849B299C039D4C9E3F78047901C8F09A
:10017000790FC8007910C87E790AC880790BC80148
:10018000790CC80F790DC8207909C8807902C8C0D8
:100190007903C8407905C8307926090355005640CF
:1001A0003B420000000000000000000000000000D2
:1001B000000000000000000000000000000000003F
:1001C0000000000000000000183C3C3C181800181B
:1001D00018000000000000006666660000000000D5
:1001E000000000000000000036367F3636367F36CD
:1001F00036000000000018183C666030180C0666D7
:100200003C18180000000070D8DA760C18306E5BCD
:100210001B0E000000000000386C6C38606F6666D2
:100220003B0000000000000018181800000000004B
:1002300000000000000000000C1818303030303092
:1002400018180C00000000003018180C0C0C0C0CD6
:1002500018183000000000000000361C7F1C36001B
:100260000000000000000000000018187E181800B0
:1002700000000000000000000000000000001C1C46
:100280000C180000000000000000007E00000000CC
:1002900000000000000000000000000000001C1C26
:1002A0000000000000000006060C0C18183030603A
:1002B000600000000000001E333737333B3B331E25
:1002C000000000000000000C1C7C0C0C0C0C0C0C42
:1002D000000000000000003C6666060C1830607EDE
:1002E000000000000000003C6666061C0666663CD6
:1002F000000000000000003030363636667F06060B
:10030000000000000000007E6060607C06060C7843
:10031000000000000000001C18307C666666663C29
:10032000000000000000007E060C0C181830303071
:10033000000000000000003C6666763C6E66663C8D
:10034000000000000000003C666666663E0C18383F
:100350000000000000000000001C1C0000001C1C2D
:100360000000000000000000001C1C0000001C1C1D
:100370000C180000000000060C18306030180C0645
:10038000000000000000000000007E007E00000071
:10039000000000000000006030180C060C183060EF
:1003A000000000000000003C66660C1818001818D9
:1003B000000000000000007EC3C3CFDBDBCFC07FA6
:1003C00000000000000000183C6666667E666666F7
:1003D000000000000000007C6666667C6666667C45
:1003E000000000000000003C666660606066663CDD
:1003F00000000000000000786C66666666666C7837
:10040000000000000000007E6060607C6060607E34
:10041000000000000000007E6060607C6060606042
:10042000000000000000003C666660606E66663E8C
:1004300000000000000000666666667E666666660E
:10044000000000000000003C181818181818183C8C
:100450000000000000001E0C0C0C0C0CCCCCCC7866
:100460000000000000000066666C6C786C6C6666CC
:100470000000000000000060606060606060607EFE
:10048000000000000000006363776B6B6B636363C5
:10049000000000000000006363737B6F67636363A9
:1004A000000000000000003C666666666666663C0A
:1004B000000000000000007C6666667C6060606092
:1004C000000000000000003C666666666666663CEA
:1004D0000C0600000000007C6666667C6C66666642
:1004E000000000000000003C666030180C06663C0E
:1004F000000000000000007E1818181818181818BE
:100500000000000000000066666666666666663C7F
:1005100000000000000000666666666666663C18BD
:10052000000000000000006363636B6B6B363636BF
:100530000000000000000066663418182C6666662D
:1005400000000000000000666666663C1818181877
:10055000000000000000007E06060C183060607E7F
:10056000000000000000003C3030303030303030CF
:1005700030303C000000006060303018180C0C0671
:10058000060000000000003C0C0C0C0C0C0C0C0CC9
:100590000C0C3C0000183C6600000000000000004D
:1005A000000000000000000000000000000000004B
:1005B0000000FF000038180C0000000000000000E0
:1005C0000000000000000000003C06063E66663E9B
:1005D0000000000000000060607C66666666667C65
:1005E0000000000000000000003C66606060663CA7
:1005F0000000000000000006063E66666666663E75
:100600000000000000000000003C66667E60603C68
:10061000000000000000001E3030307E30303030EE
:100620000000000000000000003E66666666663E50
:1006300006067C0000000060607C66666666666692
:100640000000000000001818007818181818187E0C
:100650000000000000000C0C003C0C0C0C0C0C0CFE
:100660000C0C7800000000606066666C786C666652
:100670000000000000000078181818181818187EDC
:100680000000000000000000007E6B6B6B6B6B6372
:100690000000000000000000007C6666666666667A
:1006A0000000000000000000003C66666666663CD4
:1006B0000000000000000000007C66666666667C44
:1006C0006060600000000000003E66666666663E90
:1006D000060606000000000000666E706060606044
:1006E0000000000000000000003E60603C06067C48
:1006F0000000000000000030307E30303030301E0E
:100700000000000000000000006666666666663E47
:1007100000000000000000000066666666663C1887
:10072000000000000000000000636B6B6B6B36364E
:1007300000000000000000000066663C183C666691
:100740000000000000000000006666666666663C09
:100750000C18F00000000000007E060C1830607ECF
:10076000000000000000000C181818306030181845
:10077000180C00000000001818181818181818187D
:1007800018181800000000301818180C060C18185B
:100790001830000000000071DB8E00000000000037
:1007A0000000000011241FBECFE5D8E0DEBFCDBFA2
:1007B00011E0A0E6B0E0E6E6F8E202C005900D9296
:1007C000A633B107D9F711E0A6E3B1E001C01D924D
:1007D000AD36B107E1F70E944B070C9431140C942D
:1007E000000087B3866087BB88B3866088BB0895A6
:1007F0000F931F93BA9884E690E00E948F0F10E049
:1008000008E084E690E00E948F0FC19A84E690E0B1
:100810000E948F0F110FB2991F5FC19884E690E07C
:100820000E948F0F015069F7BA9A812F1F910F9183
:1008300008950F931F93CF93DF93C0E0D0E0082F6C
:1008400010E0C8010C2E02C0880F991F0A94E2F72D
:1008500087FF02C0C29A01C0C29884E690E00E945D
:100860008F0FC19A84E690E00E948F0FC19884E6B2
:1008700090E00E948F0F2196C830D10511F784E6D1
:1008800090E00E948F0FBA9884E690E00E948F0F4C
:10089000C19A88EE93E00E948F0F16B3C19884E648
:1008A00090E00E948F0FBA9A169516951095812F99
:1008B0008170DF91CF911F910F910895C29A84E6C4
:1008C00090E00E948F0FC19A84E690E00E948F0F03
:1008D000C19884E690E00E948F0FC29884E690E071
:1008E0000E948F0F0895C29884E690E00E948F0FB7
:1008F000C19A84E690E00E948F0FC29A84E690E04D
:100900000E948F0F0895C29A84E690E00E948F0F94
:10091000C19A84E690E00E948F0FC29884E690E02E
:100920000E948F0FC19884E690E00E948F0F089577
:100930000F931F93182F062F0E94830482E40E94B6
:100940001904882391F084E690E00E948F0F812F94
:100950000E941904882349F084E690E00E948F0FDA
:10096000802F0E941904882321F40E94730480E0E0
:1009700003C00E94730481E01F910F9108950F93AB
:100980001F9384E190E06AE070E040E650E02FE1E0
:1009900030E000E010E00E940E120E94F1038AEFA6
:1009A00090E06AE070E04EE650E02FE130E00E9417
:1009B0000E1282E160E80E949804882361F484E1C9
:1009C00090E06EE170E041E750E02FE130E00E94FE
:1009D0000E1280E025C08AE090E00E94900F84E132
:1009E00090E06EE170E047E850E02FE130E000E099
:1009F00010E00E940E1204E510E0F80184910F5FF0
:100A00001F4FF8016491015010400E949804882300
:100A100039F00E5F1F4FF1E0043B1F0771F781E0D3
:100A20001F910F9108951F93CF93DF93182FEB0120
:100A30000E94830482E40E9419048823B1F084E6B2
:100A400090E00E948F0F812F0E941904882369F083
:100A50000E94730484E690E00E948F0F0E9483043A
:100A600083E40E941904882321F40E94730480E027
:100A70000CC084E690E00E948F0F0E94F8038883E8
:100A80000E945E040E94730481E0DF91CF911F9168
:100A900008958FB780688FBF85B7826085BF80E477
:100AA0008BBF08951F920F920FB60F9211242F93B0
:100AB0003F934F935F936F937F938F939F93AF93E6
:100AC000BF93EF93FF93F894C098969A8FEF84BBEF
:100AD00080E290E060E070E00E94A70F81E290E089
:100AE00060E070E00E94A70F80E590E060E070E0B9
:100AF0000E94A70F81E590E06FEE70E00E94A70FC3
:100B000082E590E060E070E00E94A70F83E590E04E
:100B10006FE371E00E94A70F83E090E068E270E16C
:100B20000E94A70F82E290E00E949C0FDD9814BA09
:100B3000DE9AC39AC09A96987894FF91EF91BF91EC
:100B4000AF919F918F917F916F915F914F913F9165
:100B50002F910F900FBE0F901F9018952F923F92DC
:100B60004F925F926F927F928F929F92AF92BF92BD
:100B7000CF92DF92EF92FF920F931F93DF93CF9369
:100B8000CDB7DEB7AE970FB6F894DEBF0FBECDBFC0
:100B900081E0898380E590E060E070E00E94A70F2B
:100BA00081E590E06FEE70E00E94A70F82E590E093
:100BB00060E070E00E94A70F83E590E06FE371E0D2
:100BC0000E94A70F8091390190913A019E012E5FFA
:100BD0003F4FAE014F5F5F4F892BC9F41092380130
:100BE00010923701C90167E371E00E94180B88A7D2
:100BF000809137019091380190933A0180933901A7
:100C000081E090E0909338018093370106C0C901DC
:100C100067E371E00E94180B88A78E899F89A0E086
:100C2000B0E07C01DD24CC248C8D9D8DA0E0B0E073
:100C3000C80ED91EEA1EFB1E80E092E00E94171328
:100C40003C011AA6992419A68FE391E09DA38CA3D9
:100C500022243324CCC0C701B601A10193010E9414
:100C6000D9092114310471F499A5992359F4F30198
:100C70008285482E5524848C869486948694F1E04F
:100C8000F9A702C0442455245301A40CB51C83E0E9
:100C9000881631F591E0991671F0991628F0E2E086
:100CA0009E1609F065C012C0F50180818695869573
:100CB000869590E012C0F50180818695869590E03A
:100CC00025E0880F991F2A95E1F707C0F50180817B
:100CD000887F8CA71BA68BA59CA5082B192B48C029
:100CE00092E0891681F49920E9F0E1E09E1609F07E
:100CF0003FC0F501F081FBA31AA288A5082F10E0E0
:100D0000EAA1FBA133C0F4E08F1699F581E09816B3
:100D100069F0981638F092E0991661F0E3E09E16BB
:100D200039F50CC0F501F081F8A722C0F501F0817A
:100D3000FFA31EC0F501F081FEA31AC02FA12695C6
:100D4000269530E088A586958695869590E0082BB7
:100D5000192B85E0220F331F8A95E1F7022B132B05
:100D60008EA1887F8EA71DA6EDA5FEA50E2B1F2B9D
:100D70009394981469F56FEE70E0FAA56F1B7109F2
:100D800080E290E00E94A70F6FE371E08CA19DA12B
:100D9000681B790B81E290E00E94A70F82E290E04D
:100DA0000E949C0FC8010E94910F9AA59F5F9AA76D
:100DB000903F58F0ECA1FDA13197FDA3ECA3EF2BE0
:100DC00011F01AA602C0C3014BC0992400E010E044
:100DD0000894411C511C0894A11CB11CF0E04F1652
:100DE000F2E05F0608F453CF0894211C311C809177
:100DF0004301909144012816390608F42CCFC30111
:100E00000E94C413C701B6010E940E0A6B017C0147
:100E100080E092E00E9417139C013C018FEFC816FE
:100E20008FEFD8068FEFE8068FE0F806C1F098EF55
:100E3000C9169FEFD9069FEFE9069FE0F90679F002
:100E400080915C01882309F003CFEFEFCE16EFEF1E
:100E5000DE06E0E0EE06E0E0FE0609F0F9CEC901AC
:100E60000E94C413AE960FB6F894DEBF0FBECDBF7E
:100E7000CF91DF911F910F91FF90EF90DF90CF9076
:100E8000BF90AF909F908F907F906F905F904F90AA
:100E90003F902F900895FF920F931F93B89A8E9AC8
:100EA0008D98959AC098969A8FEF84BB0E94F90FFF
:100EB0000E94FE0788EB9BE00E94900F84E190E087
:100EC00066E970E049E950E020E038EF00E010E02A
:100ED0000E940E1284E190E06AEA70E04FEA50E06E
:100EE00020EE37E00E940E1280B384E190E06EEBBA
:100EF00070E045ED50E02FE130E00E940E12FF243B
:100F000010C0F39445E1F41661F484E190E06EEBD7
:100F100070E048EE50E02FE130E000E010E00E9489
:100F20000E120E94410820E030E044E14F1510F01D
:100F300021E030E028233923232B19F784E190E0C6
:100F40006EEB70E04BEF50E02FE130E000E010E09E
:100F50000E940E1284E190E062ED70E04EE051E0FC
:100F60002FE130E00E940E120E94850E8823E1F7E7
:100F70000E94130E84E190E062ED70E04DE151E0DB
:100F80002FE130E000E010E00E940E1201E010E0DE
:100F90000E94AE0580E29EE40E94900F80E29EE4F3
:100FA0000E94900F209137013091380180913901D2
:100FB00090913A012817390738F42F5F3F4F30934B
:100FC000380120933701E4CF1093380100933701A3
:100FD000DFCF83E58DB97098089580E58DB9709A5B
:100FE0000895D49A87B3806A87BB83E58DB97098DA
:100FF00008958FB9779BFECF8FB108950E94F107B6
:10100000DC9A0895982F8FEF8FB9779BFECF8FB121
:10101000DC9890649FB9779BFECF8FB1872F99277B
:10102000AA27BB278FB9779BFECF8FB1CB01AA2709
:10103000BB278FB9779BFECF8FB1BB27A72F962FEA
:10104000852F8FB9779BFECF8FB14FB9779BFECF9E
:101050008FB185E98FB9779BFECF8FB180E02FEFFD
:1010600002C0815031F02FB9779BFECF9FB19F3FD7
:10107000C1F3DC9A8FEF8FB9779BFECF8FB1892FA9
:1010800008950F931F9383E58DB9709810E00FEFCB
:1010900080E00FB9779BFECF9FB18F5F8A30C9F791
:1010A00080E040E050E060E070E00E9402081F5FD6
:1010B0001F3F11F1813061F710E081E040E050E026
:1010C00060E070E00E9402081F5F1F3FA9F08823C4
:1010D000A1F780E58DB9709A8BE340E050E060E0C5
:1010E00070E00E94020880E140E052E060E070E0C1
:1010F0000E94020880E001C081E01F910F910895D5
:101100000F931F93CF93DF938B019C01EA0149E07A
:10111000000F111F221F331F4A95D1F781E1B9013A
:10112000A8010E940208982F882389F5DC9820E006
:1011300030E04FEF06C02150304019F4DC9A91E0C6
:1011400026C04FB9779BFECF8FB18E3FA1F720E02D
:1011500030E04FEF4FB9779BFECF8FB188832F5F81
:101160003F4F82E02030380711F02196F3CF8FEF08
:101170008FB9779BFECF8FB18FEF8FB9779BFECF63
:101180008FB1DC9A8FEF8FB9779BFECF8FB1892F0C
:10119000DF91CF911F910F9108950F931F93CF93DC
:1011A000DF938B019C01EA0159E0000F111F221F00
:1011B000331F5A95D1F788E1B901A8010E940208AE
:1011C000882311F0982F4DC0DC988FEF8FB9779B53
:1011D000FECF8FB18FEF8FB9779BFECF8FB18FEF9F
:1011E0008FB9779BFECF8FB18EEF8FB9779BFECFF4
:1011F0008FB120E030E089918FB9779BFECF8FB11E
:101200002F5F3F4F82E020303807A9F78FEF8FB96B
:10121000779BFECF8FB18FEF8FB9779BFECF8FB1CA
:101220008FEF8FB9779BFECF9FB1892F8F7185305C
:1012300041F0DC9A16C02150304031F4DC9A91E044
:1012400010C020E030E09FEF9FB9779BFECF8FB1B9
:10125000882389F3DC9A8FEF8FB9779BFECF8FB10C
:1012600090E0892FDF91CF911F910F9108950F93F7
:101270001F93DF93CF93CDB7DEB760970FB6F89487
:10128000DEBF0FBECDBF89E040E050E060E070E01F
:101290000E940208882329F0282F30E040E050E027
:1012A0007BC0DC9820E030E09FEF09C02150304047
:1012B00031F4DC9A21E030E040E050E06DC09FB9AD
:1012C000779BFECF8FB18E3F89F7FE0131969FEF5E
:1012D0009E012F5E3F4F9FB9779BFECF8FB18193C9
:1012E000E217F307C1F78FEF8FB9779BFECF8FB16E
:1012F0008FEF8FB9779BFECF8FB18FEF8FB9779B31
:10130000FECF8FB1DC9A8FEF8FB9779BFECF8FB175
:10131000EF81988529858A858370880F4B85441FC6
:101320004427441F4E5F480F61E070E003C0660F22
:10133000771F41504423D9F78E81482F50E04F70DA
:10134000507001E010E004C0000F111F41505040E8
:1013500041155105C9F7F0E0E370F070FE2FEE275C
:10136000E90FF11D80E090E02295269526952370E7
:1013700030E02F5F3F4FEE0FFF1FEE0FFF1F2E0FCE
:101380003F1F40E050E00E94F812980140E050E01A
:101390000E94F8129B01AC01B901CA0160960FB618
:1013A000F894DEBF0FBECDBFCF91DF911F910F919B
:1013B0000895CF92DF92EF92FF920F931F937A01DD
:1013C000690162507040804090402091430130910B
:1013D000440140E050E00E94F81200E010E0E60E08
:1013E000F71E081F191F60914501709146018091F9
:1013F0004701909148016E0D7F1D801F911FE09164
:101400002C01F0912D01A6010995811181E01F9118
:101410000F91FF90EF90DF90CF900895CF92DF92E1
:10142000EF92FF920F931F93DF93CF93CDB7DEB769
:10143000C050D2400FB6F894DEBF0FBECDBF7B01C7
:101440008C0180915C01882351F0A801970167E02D
:1014500056954795379527956A95D1F704C0552736
:10146000412F302F2F2D82E0E816F10401051105E0
:1014700008F447C08091490190914A01A0914B0125
:10148000B0914C01280F391F4A1F5B1FE0912C01BE
:10149000F0912D01CA01B9016E010894C11CD11C43
:1014A000A6010995882369F580915C018823A9F03C
:1014B0008FE790E0A0E0B0E0E822F9220A231B23A6
:1014C000C701880F991F880F991FC80ED91ED60112
:1014D0002D913D914D915C9118C08FEF90E0A0E06F
:1014E000B0E0E822F9220A231B23C701880F991FC5
:1014F000C80ED91ED6018D919C919C0140E050E010
:1015000004C028EF3FEF4FEF5FE0B901CA01C050C0
:10151000DE4F0FB6F894DEBF0FBECDBFCF91DF9187
:101520001F910F91FF90EF90DF90CF900895CF9390
:10153000DF939C01EB0140E050E0F901E40FF51F5F
:10154000DE01A40FB51F8C9180834F5F5F4F483041
:10155000510599F78885F9018087898581878A8572
:1015600082878B8583878C8584878D8585878E850B
:1015700086878F8587878889808B8989818B8A89EF
:10158000828B8B89838B8C899D89958B848B8E89AB
:10159000868B8F89878B888D808F898D818F8A8DAF
:1015A0009B8D938F828F8C8D9D8DAE8DBF8D848F03
:1015B000958FA68FB78FDF91CF910895CF92DF924D
:1015C000EF92FF920F931F936C010E941C14E82E60
:1015D000FF2400E010E0102F0F2DFE2CEE24C6019A
:1015E00001960E941C14E80EF11C011D111D102F04
:1015F0000F2DFE2CEE24C60102960E941C14E80E4C
:10160000F11C011D111D102F0F2DFE2CEE24C60103
:1016100003960E941C14E80EF11C011D111DB70158
:10162000C8011F910F91FF90EF90DF90CF90089528
:101630002F923F924F925F926F927F928F929F92E2
:10164000AF92BF92CF92DF92EF92FF920F931F93D0
:10165000DF93CF93CDB7DEB729970FB6F894DEBFEF
:101660000FBECDBF9D838C831B01FA01E081E13069
:1016700019F0E23051F405C020E529831DE4412E24
:1016800004C03EE43983B9E44B2E662477241B82E0
:101690001A828A819B810E94DE0AEA81FB8134964C
:1016A000FB83EA836F3FFFEF7F07FFEF8F07FFEFBB
:1016B0009F0709F423C1611571058105910509F0A2
:1016C00071C080915C01882321F0CC24DD24760157
:1016D0006BC080E092E00E9417138C01009709F420
:1016E00017C1FF24C12CA2E0DA2EC80ED91E44C0B7
:1016F00080913B0190913C01A0913D01B0913E0150
:10170000280F391F4A1F5B1FE0912C01F0912D011A
:10171000CA01B901A8010995882309F07DC05801C3
:10172000F50180818E3201F18823F1F0853EE1F0F0
:1017300083858F30C9F080858234B1F4818584152A
:1017400099F48285F9818F1779F48C819D81B50197
:101750000E94970A0894611C711CF101808191819B
:101760006816790609F483C020E230E0A20EB31EA9
:10177000AC14BD04A9F6F3942F2D30E040E050E006
:1017800080915F0190916001A0916101B09162012F
:10179000281739074A075B0708F4AACFC8010E9437
:1017A000C41377CF6B017C01C701B6016250704052
:1017B00080409040209143013091440140E050E04E
:1017C0000E94F8124B015C01809145019091460105
:1017D000A0914701B0914801880E991EAA1EBB1E18
:1017E00080E092E00E9417138C01009709F490C0EA
:1017F000552480509E4F9F838E8349C0C501B401FC
:10180000650D711D811D911DE0912C01F0912D013F
:10181000A8010995882321F0C8010E94C41378C04B
:1018200019870887E885F98580818E3221F1882320
:1018300011F1853E01F183858F30E9F08085823496
:10184000D1F481858415B9F48285F9818F1799F4D3
:101850008C819D81688579850E94970A0894611C16
:10186000711CF101808191816816790621F4C8010B
:101870000E94C4134BC028853985205E3F4F3987AD
:1018800028878E819F812817390761F65394252D6B
:1018900030E080914301909144012817390708F402
:1018A000ADCFC8010E94C413C701B6010E940E0A41
:1018B0006B017C019FEFC9169FEFD9069FEFE906E8
:1018C0009FE0F90609F4E5CEE8EFCE16EFEFDE066D
:1018D000EFEFEE06EFE0FE0609F4DBCE80915C014F
:1018E000882309F061CFFFEFCF16FFEFDF06F0E0AE
:1018F000EF06F0E0FF0609F057CFCBCEF101808173
:101900009181892B19F4F1017182608280E001C01C
:1019100081E029960FB6F894DEBF0FBECDBFCF9100
:10192000DF911F910F91FF90EF90DF90CF90BF90CC
:10193000AF909F908F907F906F905F904F903F906F
:101940002F900895CF92DF92EF92FF920F931F9303
:101950006C017A018B01272F332744275527622FEB
:101960000E942414980144275527C6010196622F2E
:101970000E9424145527412F302F2F2DC601029687
:10198000622F0E942414C60103966E2D0E94241417
:101990001F910F91FF90EF90DF90CF9008952F92BD
:1019A0003F924F925F927F928F929F92AF92BF929F
:1019B000CF92DF92EF92FF920F931F93CF93DF931B
:1019C0002A01611571058105910509F074C08091A6
:1019D0005C01882321F0CC24DD2476016EC080E0F8
:1019E00092E00E9417138C01009709F407C1FF24AD
:1019F000C12CB2E0DB2EC80ED91E47C080913B013E
:101A000090913C01A0913D01B0913E01280F391FFA
:101A10004A1F5B1FE0912C01F0912D01CA01B90111
:101A2000A8010995882309F081C0E80188818E32D8
:101A300039F1882329F1853E19F18B8584FF20C077
:101A4000F20120813181F2E020303F0709F4D8C053
:101A50004C895D8960E070E0BA01552744278A8D82
:101A60009B8DA0E0B0E0480F591F6A1F7B1FC90182
:101A70000E94A20CF201808191810496918380835F
:101A8000A096CC15DD0591F6F3942F2D30E040E0C3
:101A900050E080915F0190916001A0916101B0914F
:101AA0006201281739074A075B0708F4A7CFC80166
:101AB0000E94C413A5C06B017C01C701B60162502E
:101AC000704080409040209143013091440140E0BB
:101AD00050E00E94F8124B015C0180914501909109
:101AE0004601A0914701B0914801880E991EAA1E97
:101AF000BB1E80E092E00E9417138C01009709F44E
:101B00007DC07724212CF2E03F2E280E391E42C0E2
:101B1000C501B401670D711D811D911DE0912C015E
:101B2000F0912D01A8010995882321F0C8010E9498
:101B3000C41364C0E80188818E3239F1882329F109
:101B4000853E19F18B8584FF20C0F201208131810F
:101B5000F2E020303F0709F453C04C895D8960E012
:101B600070E0BA01552744278A8D9B8DA0E0B0E034
:101B7000480F591F6A1F7B1FC9010E94A20CF20166
:101B800080819181049691838083A096C215D305AC
:101B900091F67394272D30E0809143019091440198
:101BA0002817390708F4B4CFC8010E94C413C7012D
:101BB000B6010E940E0A6B017C016F3FFFEF7F07A9
:101BC000FFEF8F07FFE09F07D9F088EFC8168FEF70
:101BD000D8068FEFE8068FE0F80691F080915C015F
:101BE000882309F06ACFEFEFCE16EFEFDE06E0E0D4
:101BF000EE06E0E0FE0609F060CF02C081E001C021
:101C000080E0DF91CF911F910F91FF90EF90DF90D7
:101C1000CF90BF90AF909F908F907F905F904F90AC
:101C20003F902F900895CF92DF92EF92FF920F9303
:101C30001F93DF93CF9300D0CDB7DEB780915C01C7
:101C4000882359F0409165015091660160916701C8
:101C50007091680180E090E006C080E090E040E094
:101C600050E060E070E00E94A20C84E090E04FEF52
:101C70005FEF6FEF7FEF0E94A20C84E090E09A8309
:101C80008983EE24FF246E010894C11CD11CC70176
:101C90000E94DE0A6F3F2FEF72072FEF82072FEFB0
:101CA000920739F1A6010E94CF0C09811A81C8015F
:101CB0000E94DE0A6F5F7F4F8F4F9F4F39F0C80140
:101CC0004FEF5FEF6FEF7FEF0E94A20C89819A8147
:101CD0008050924049F48CEF91E04FEF5FEF6FEF4F
:101CE0007FEF0E94A20C05C084E090E0E80EF91E90
:101CF000CECF80E00F900F90CF91DF911F910F9189
:101D0000FF90EF90DF90CF9008958F929F92AF92C7
:101D1000BF92CF92DF92EF92FF920F931F93DF93C8
:101D2000CF93CDB7DEB7C050D2400FB6F894DEBF28
:101D30000FBECDBF0E9437097B018C018FEFE816E3
:101D4000F1040105110508F4D5C0E0912C01F091D2
:101D50002D0160E070E080E090E04E010894811C6D
:101D6000911CA4010995882309F0C4C0FE01E15427
:101D7000FE4FA084B184C284D38499E01695079560
:101D8000F794E7949A95D1F7AE14BF04C006D10634
:101D9000F0F4E0912C01F0912D01C601B501A401F0
:101DA0000995882309F0A6C0D4018C91893E91F051
:101DB0008B3E81F0E0912C01F0912D0160E070E00C
:101DC00080E090E0A4010995882309F093C0AA243B
:101DD000BB246501F4018081893E19F08B3E09F036
:101DE00089C0F4013B9683859485009759F0109241
:101DF0005C0190935E0180935D0182E090E0A0E041
:101E0000B0E00DC081E080935C01818D928D909354
:101E10005E0180935D0181A192A1A3A1B4A18093F1
:101E2000650190936601A0936701B0936801D401A6
:101E30001B968D919C911C979093640180936301F4
:101E400082818093430110924401E380F48000E09A
:101E500010E0EA0CFB1C0C1D1D1DE0924901F092E4
:101E60004A0100934B0110934C012681378140E0D9
:101E700050E020933F013093400140934101509343
:101E8000420184E056954795379527958A95D1F775
:101E900020935F0130936001409361015093620190
:101EA000858190E060915D0170915E01FC01E69F8B
:101EB000C001E79F900DF69F900D1124A0E0B0E0C7
:101EC0008E0D9F1DA01FB11F80933B0190933C017D
:101ED000A0933D01B0933E01820F931FA41FB51F35
:101EE0008093450190934601A0934701B093480128
:101EF00080E001C081E0C050DE4F0FB6F894DEBF35
:101F00000FBECDBFCF91DF911F910F91FF90EF904A
:101F1000DF90CF90BF90AF909F908F9008950895DD
:101F20000895DF9ADE9ADD98C39A95BBC398C39A49
:101F300085BBC398DD9A0895DF9ADE98DD98C39A31
:101F400095BBC398C39A85BBC398DD9A08950F9338
:101F50001F938B010E949C0FC8010E94910F1F913B
:101F60000F9108950F931F938C0180E290E060E041
:101F700070E00E94A70F81E290E060E070E00E94B4
:101F8000A70F80E590E060E070E00E94A70F81E578
:101F900090E06FEE70E00E94A70F82E590E060E0B5
:101FA00070E00E94A70F83E590E06FE371E00E946C
:101FB000A70F82E290E00E949C0FDF9ADE9ADD98E4
:101FC00080E090E0A0E0B0E0C39A15BBC398C39A4C
:101FD00005BBC3980196A11DB11D80302CE292076C
:101FE00021E0A20720E0B20779F7DD9A1F910F9157
:101FF00008958F9AD59AD69ABB9AD79AB99AC198CA
:10200000C19A83EE90E068E070E30E94A70F87EE2C
:1020100090E062E170E00E94A70F8FEE90E061E334
:1020200072E10E94A70F80E090E061E070E00E9402
:10203000A70F81E090E060E070E00E94A70F82E0CF
:1020400090E060E077E00E94A70F83E090E068E115
:1020500070E10E94A70F84E090E060E070E00E94D1
:10206000A70F88E090E064E074E00E94A70F89E089
:1020700090E060E070E00E94A70F8AE090E060E0EE
:1020800070E00E94A70F80E190E060E870E00E949D
:10209000A70F81E190E067E070E00E94A70F82E166
:1020A00090E060E070E00E94A70F83E190E060E0C4
:1020B00070E00E94A70F87E090E061E070E00E946E
:1020C000A70F80E190E060E975E10E94A70F81E130
:1020D00090E067E272E00E94A70F82E190E06EE17B
:1020E00070E00E94A70F83E190E060E075E10E943C
:1020F000A70F89E290E068E270E00E94A70F8BE2F0
:1021000090E06FE070E00E94A70F80E290E060E056
:1021100070E00E94A70F81E290E06FE371E00E94FF
:10212000A70F80E390E067E070E00E94A70F81E3D3
:1021300090E067E077E00E94A70F82E390E067E01D
:1021400071E00E94A70F85E390E066E072E00E94D4
:10215000A70F86E390E066E074E00E94A70F87E394
:1021600090E061E071E00E94A70F88E390E061E0F9
:1021700071E00E94A70F89E390E067E072E00E949F
:10218000A70F8CE390E064E075E00E94A70F8DE359
:1021900090E066E078E00E94A70F80E590E060E0C4
:1021A00070E00E94A70F81E590E06FEE70E00E9462
:1021B000A70F82E590E060E070E00E94A70F83E542
:1021C00090E06FE371E00E94A70F80E690E060E08E
:1021D00077E20E94A70F81E690E061E070E00E9444
:1021E000A70F8AE690E060E070E00E94A70F80E809
:1021F00090E060E070E00E94A70F81E890E060E06E
:1022000070E00E94A70F82E890E060E070E00E941A
:10221000A70F83E890E060E070E00E94A70F84E8D9
:1022200090E060E070E00E94A70F85E890E060E039
:1022300070E00E94A70F80E990E060E170E00E94EA
:10224000A70F82E990E060E076E00E94A70F83E9A3
:1022500090E063E070E00E94A70F85E990E060E104
:1022600071E00E94A70F87E990E060E070E00E94B3
:10227000A70F88E990E060E070E00E94A70F87E078
:1022800090E063E771E00E94A70F80E090E00E9479
:10229000B20F979A0895AF92BF92CF92DF92FF92BA
:1022A0000F931F93CF93DF93182F5B016A0182E294
:1022B00090E00E949C0FC12FD0E084E0CC0FDD1F86
:1022C0008A95E1F7CC54D040FF24FE01049110E040
:1022D00007FF02C0C50101C0C6010E94910F1F5F28
:1022E000183011F0000FF4CFF3942196F0E1FF16AF
:1022F00061F7DF91CF911F910F91FF90DF90CF9009
:10230000BF90AF9008950F931F939C018B0180E2C3
:1023100090E0B9010E94A70F81E290E0B8010E940D
:10232000A70F1F910F910895AF92BF92CF92DF92A6
:10233000EF92FF920F931F938C015B016A01790169
:10234000E61AF70A87E391E0E80EF91EC801B70123
:102350000E94831180E590E0B8010E94A70F015010
:1023600010400C0D1D1D81E590E0B8010E94A70FE3
:1023700068E371E06A197B0982E590E00E94A70F8B
:1023800083E590E0B7010E94A70F1F910F91FF9086
:10239000EF90DF90CF90BF90AF900895AF92BF9233
:1023A000CF92DF92FF920F931F93CF93DF93FC01A5
:1023B000CB01F42E59016801BF014FE050E028E045
:1023C00030E00E94941182E290E00E949C0FCF2D99
:1023D000D0E094E0CC0FDD1F9A95E1F7CC54DD4FAF
:1023E00000E0FE01F49010E0F7FE02C0C50101C05C
:1023F000C6010E94910F1F5F183011F0FF0CF4CF3F
:102400000F5F2196003169F7DF91CF911F910F91F6
:10241000FF90DF90CF90BF90AF900895AF92BF92A2
:10242000CF92DF92EF92FF920F931F93CF93DF93A0
:102430007C015B01EA01690111C0C501B7014FE0F0
:1024400050E028E030E00E9494118991B601A80183
:102450000E944B1188E090E0E80EF91E88818823E5
:1024600061F7DF91CF911F910F91FF90EF90DF9077
:10247000CF90BF90AF900895EF92FF920F931F936C
:102480009C018B017A0180E290E0B9010E94A70FC4
:1024900081E290E0B8010E94A70F82E290E00E94E2
:1024A0009C0FC7010E94910F1F910F91FF90EF9019
:1024B0000895AF92BF92CF92DF92EF92FF920F9367
:1024C0001F9380E290E060E070E00E94A70F81E23D
:1024D00090E060E070E00E94A70FEE24FF248701E7
:1024E00080E590E060E070E00E94A70F81E590E059
:1024F0006FEE70E00E94A70F82E590E060E070E070
:102500000E94A70F83E590E06FE371E00E94A70FA0
:1025100082E290E00E949C0FAA24BB246501E11492
:10252000F1040105110529F48FE190E00E94910F5B
:102530001FC081E0E816F1040105110529F480E0CF
:1025400098EF0E94910F1DC082E0E816F10401058A
:10255000110529F480EE97E00E94910F1BC083E0E3
:10256000E816F1040105110519F48FEF97E01AC080
:1025700084E0E816F1040105110519F48FE198EFE4
:1025800011C085E0E816F1040105110519F480EE8B
:102590009FEF08C086E0E816F1040105110521F45B
:1025A00080E090E00E94910F0894A11CB11CC11C16
:1025B000D11C80E0A8168CE2B80681E0C80680E055
:1025C000D80609F0ACCF0894E11CF11C011D111DC7
:1025D00087E0E816F1040105110509F081CF1F918C
:1025E0000F91FF90EF90DF90CF90BF90AF90089544
:1025F000629FD001739FF001829FE00DF11D649FE7
:10260000E00DF11D929FF00D839FF00D749FF00D72
:10261000659FF00D9927729FB00DE11DF91F639F13
:10262000B00DE11DF91FBD01CF0111240895CF9315
:10263000DF93BC018230910510F462E070E0A0915C
:102640006B01B0916C01ED01E0E0F0E040E050E0A2
:1026500021C0888199818617970769F48A819B81B7
:10266000309719F09383828304C090936C01809318
:102670006B01FE0134C06817790738F44115510524
:1026800019F08417950708F4AC01FE018A819B813B
:102690009C01E9012097E9F641155105A9F1CA010C
:1026A000861B970B049708F4BA01E0E0F0E02AC01B
:1026B0008D919C91119784179507F9F4641775070C
:1026C00081F412968D919C911397309719F0938312
:1026D000828304C090936C0180936B01FD0132965C
:1026E0004FC0CA01861B970BFD01E80FF91F6193CC
:1026F000719302978D939C9343C0FD0182819381D6
:102700009C01D9011097A1F68091690190916A010D
:10271000892B41F4809132019091330190936A01A9
:102720008093690140913401509135014115510563
:1027300041F44DB75EB78091300190913101481B53
:10274000590B2091690130916A0124173507B0F4C3
:10275000CA01821B930B8617970780F0AB014E5F6F
:102760005F4F8417950750F0420F531F50936A0133
:1027700040936901F9016193719302C0E0E0F0E0D8
:10278000CF01DF91CF910895CF93DF93009709F4A4
:1027900050C0EC0122971B821A82A0916B01B0916C
:1027A0006C01109709F140E050E0AC17BD0708F14B
:1027B000BB83AA83FE0121913191E20FF31FAE1773
:1027C000BF0779F48D919C911197280F391F2E5FC7
:1027D0003F4F3983288312968D919C9113979B8349
:1027E0008A834115510571F4D0936C01C0936B013C
:1027F00020C012968D919C911397AD01009711F016
:10280000DC01D3CFFA01D383C28321913191E20F4E
:10281000F31FCE17DF0769F488819981280F391FCC
:102820002E5F3F4FFA01318320838A819B819383FE
:102830008283DF91CF910895E199FECF9FBB8EBB3C
:10284000E09A99278DB30895262FE199FECF9FBB7B
:102850008EBB2DBB0FB6F894E29AE19A0FBE01969B
:062860000895F894FFCF7B
:102866005343434220496E69742E2E2E2E004F4B41
:102876000053434342205265736574206661696C58
:1028860065642E2E2E2E00534343422052657365F7
:1028960074204F4B2E2E2E2E004775616E667520C6
:1028A60057616E6720203230313030393032004186
:1028B600746D65676133322026204F544D333232B2
:1028C600354120464F52204F563736373020524535
:1028D60056342E30005446204361726420496E6996
:1028E600742E2E2E2E2E2E00544620436172642006
:1028F600496E69742E2E2E2E4E4700544620436193
:10290600726420496E69742E2E2E2E4F4B0046415E
:102916005420496E69742E2E2E2E2E2E00464154BA
:1029260020496E69742E2E2E2E4F4B008008CD083E
:0629360020006D0100000D
:00000001FF
