:100000000C9422030C943F030C943F030C943F0385
:100010000C943F030C943F030C943F030C943F0358
:100020000C943F030C943F030C943F030C943F0348
:100030000C943F030C943F030C943F030C943F0338
:100040000C943F030C943F030C943F030C943F0328
:100050000C943F03000000000000000000000000BE
:100060000000000000000000183C3C3C181800187C
:100070001800000000000000666666000000000036
:10008000000000000000000036367F3636367F362E
:1000900036000000000018183C666030180C066638
:1000A0003C18180000000070D8DA760C18306E5B2F
:1000B0001B0E000000000000386C6C38606F666634
:1000C0003B000000000000001818180000000000AD
:1000D00000000000000000000C18183030303030F4
:1000E00018180C00000000003018180C0C0C0C0C38
:1000F00018183000000000000000361C7F1C36007D
:100100000000000000000000000018187E18180011
:1001100000000000000000000000000000001C1CA7
:100120000C180000000000000000007E000000002D
:1001300000000000000000000000000000001C1C87
:100140000000000000000006060C0C18183030609B
:10015000600000000000001E333737333B3B331E86
:10016000000000000000000C1C7C0C0C0C0C0C0CA3
:10017000000000000000003C6666060C1830607E3F
:10018000000000000000003C6666061C0666663C37
:10019000000000000000003030363636667F06066C
:1001A000000000000000007E6060607C06060C78A5
:1001B000000000000000001C18307C666666663C8B
:1001C000000000000000007E060C0C1818303030D3
:1001D000000000000000003C6666763C6E66663CEF
:1001E000000000000000003C666666663E0C1838A1
:1001F0000000000000000000001C1C0000001C1C8F
:100200000000000000000000001C1C0000001C1C7E
:100210000C180000000000060C18306030180C06A6
:10022000000000000000000000007E007E000000D2
:10023000000000000000006030180C060C18306050
:10024000000000000000003C66660C18180018183A
:10025000000000000000007EC3C3CFDBDBCFC07F07
:1002600000000000000000183C6666667E66666658
:10027000000000000000007C6666667C6666667CA6
:10028000000000000000003C666660606066663C3E
:1002900000000000000000786C66666666666C7898
:1002A000000000000000007E6060607C6060607E96
:1002B000000000000000007E6060607C60606060A4
:1002C000000000000000003C666660606E66663EEE
:1002D00000000000000000666666667E6666666670
:1002E000000000000000003C181818181818183CEE
:1002F0000000000000001E0C0C0C0C0CCCCCCC78C8
:100300000000000000000066666C6C786C6C66662D
:100310000000000000000060606060606060607E5F
:10032000000000000000006363776B6B6B63636326
:10033000000000000000006363737B6F676363630A
:10034000000000000000003C666666666666663C6B
:10035000000000000000007C6666667C60606060F3
:10036000000000000000003C666666666666663C4B
:100370000C0600000000007C6666667C6C666666A3
:10038000000000000000003C666030180C06663C6F
:10039000000000000000007E18181818181818181F
:1003A0000000000000000066666666666666663CE1
:1003B00000000000000000666666666666663C181F
:1003C000000000000000006363636B6B6B36363621
:1003D0000000000000000066663418182C6666668F
:1003E00000000000000000666666663C18181818D9
:1003F000000000000000007E06060C183060607EE1
:10040000000000000000003C303030303030303030
:1004100030303C000000006060303018180C0C06D2
:10042000060000000000003C0C0C0C0C0C0C0C0C2A
:100430000C0C3C0000183C660000000000000000AE
:1004400000000000000000000000000000000000AC
:100450000000FF000038180C000000000000000041
:100460000000000000000000003C06063E66663EFC
:100470000000000000000060607C66666666667CC6
:100480000000000000000000003C66606060663C08
:100490000000000000000006063E66666666663ED6
:1004A0000000000000000000003C66667E60603CCA
:1004B000000000000000001E3030307E3030303050
:1004C0000000000000000000003E66666666663EB2
:1004D00006067C0000000060607C666666666666F4
:1004E0000000000000001818007818181818187E6E
:1004F0000000000000000C0C003C0C0C0C0C0C0C60
:100500000C0C7800000000606066666C786C6666B3
:100510000000000000000078181818181818187E3D
:100520000000000000000000007E6B6B6B6B6B63D3
:100530000000000000000000007C666666666666DB
:100540000000000000000000003C66666666663C35
:100550000000000000000000007C66666666667CA5
:100560006060600000000000003E66666666663EF1
:10057000060606000000000000666E7060606060A5
:100580000000000000000000003E60603C06067CA9
:100590000000000000000030307E30303030301E6F
:1005A0000000000000000000006666666666663EA9
:1005B00000000000000000000066666666663C18E9
:1005C000000000000000000000636B6B6B6B3636B0
:1005D00000000000000000000066663C183C6666F3
:1005E0000000000000000000006666666666663C6B
:1005F0000C18F00000000000007E060C1830607E31
:10060000000000000000000C1818183060301818A6
:10061000180C0000000000181818181818181818DE
:1006200018181800000000301818180C060C1818BC
:100630001830000000000071DB8E00000000000098
:100640000000000011241FBECFE5D8E0DEBFCDBF03
:1006500010E0A0E6B0E0EEE3F6E302C005900D92F4
:10066000AE37B107D9F710E0AEE7B0E001C01D9298
:10067000AB38B107E1F70E944D030C941D1B0C949D
:10068000000020ED37E003C0F9013197F1F7019741
:100690004FEF8F3F9407C1F708958F929F92AF92CB
:1006A000BF92CF92DF92EF92FF920F931F93DF934F
:1006B000CF93CDB7DEB7C856D0400FB6F894DEBFA3
:1006C0000FBECDBF8E9AB89A969AC0988D98959A7B
:1006D0008FEF84BB0E94F4050E94BA16859949C029
:1006E000839BFECF8E010B5F1F4FC80160E670E059
:1006F0000E94DF1A82E390E06EE670E0A80120EE2F
:100700003FEF00E010E00E945A058399FECF2EC013
:100710000E94CF1A8C010E94CF1A7C010E94CF1A2E
:100720006C010E94CF1A9C01C8016FE371E00E9426
:100730001A1A8C01C7016FEE70E00E941A1AFC01B0
:10074000C60164E670E00E941A1AAC01220F331F42
:10075000C801BF0101E00E94A4080894A11CB11CBB
:1007600082E3A816B104A4F28399FECFAA24BB2485
:10077000F7CF0E94B514CC24C394EE24EA94FE2C47
:1007800063E0862E912C8C0E9D1E5E010894A11CA8
:10079000B11C77C0859B03C0CC2009F472C0859B37
:1007A000FECF80E090E00E94E40580E090E068ECFD
:1007B00070E048E250E023E230E000E010E00E9408
:1007C000910588E290E068EC70E048E250E023E2B6
:1007D00030E00FE110E00E94910580E590E068ECC8
:1007E00070E048E250E023E230E000EE17E00E94C3
:1007F000910588E790E068EC70E048E250E023E281
:1008000030E000E018EF0E94910580EA90E068EC8B
:1008100070E048E250E023E230E00FE118EF0E9480
:10082000910588EC90E068EC70E048E250E023E24B
:1008300030E000E01CEF0E94910580EF90E068EC52
:1008400070E048E250E023E230E000EE1FEF0E944B
:10085000910588E191E068EC70E048E250E023E225
:1008600030E00FEF1FEF0E94910580E090E06BEE0B
:1008700070E040E451E025E030E087010E949105FE
:10088000CC24839987CFC501B4010E9431168823F7
:10089000C1F36B817C8189819A81663C71053CF44E
:1008A00041E050E0970101E00E94A408EACF68E22D
:1008B00070E00E941A1A7B016430710521F16530E5
:1008C000710550F462307105A9F063307105B8F418
:1008D0006130710549F50AC066307105E9F066308E
:1008E0007105B0F067307105F9F41BC05FE1E52ECA
:1008F000F12C1AC040EEE42E47E0F42E15C0E12C96
:1009000038EFF32E11C02FE1E22E28EFF22E0CC0AB
:10091000E12C9CEFF92E08C080EEE82E8FEFF82E28
:1009200003C0EE24EA94FE2C80E090E06BEE70E0D1
:1009300040E451E025E030E087010E949105839B6F
:10094000FECF9FCFDF9ADE9ADD98C39A95BBC398FE
:10095000C39A85BBC398DD9A0895DF9ADE98DD9827
:10096000C39A95BBC398C39A85BBC398DD9A089573
:100970000F931F938B010E94AD04C8010E94A20433
:100980001F910F910895BC0102C0605C7E4F77FDFE
:10099000FCCF02C06054714081E060347807D4F726
:1009A0008AE690E00E94B80408958F929F92AF92D9
:1009B000BF92CF92DF92EF92FF920F931F937C0131
:1009C0008B014A0159018FEEC82ED12CC61AD70AC5
:1009D00080E290E0B6010E94B804109501951F4F87
:1009E00000511F4F0A191B0980E590E0B8010E94D1
:1009F000B80481E590E0B6010E94B80481E290E07D
:100A0000B7010E94B80482E590E0B7010E94B804E3
:100A10000894E108F108E80CF91C83E590E0B701BF
:100A20000E94B80482E290E00E94AD041F910F91F1
:100A3000FF90EF90DF90CF90BF90AF909F908F90FE
:100A40000895AF92BF92CF92DF92FF920F931F93C0
:100A5000CF93DF93F42E5901680148E050E020E184
:100A600030E00E94D504CF2DD0E094E0CC0FDD1F04
:100A70009A95E1F7CC5AD14000E0FE01F49010E0E5
:100A8000F7FE02C0C50101C0C6010E94A2041F5F9B
:100A9000183011F0FF0CF4CF0F5F2196003169F789
:100AA000DF91CF911F910F91FF90DF90CF90BF907A
:100AB000AF9008958F929F92AF92BF92CF92DF92A4
:100AC000EF92FF920F931F93CF93DF937C014B0123
:100AD000EA01590168010BC02196C701B4019501D3
:100AE00086010E94210588E090E0E80EF91E488109
:100AF000442391F780E090E060E070E040E451E052
:100B000020EF30E00E94D504DF91CF911F910F912B
:100B1000FF90EF90DF90CF90BF90AF909F908F901D
:100B20000895EF92FF920F931F93CF93DF93780175
:100B3000480F591FE1E041345E0714F040E451E0F2
:100B400097FF02C080E090E08A01081B190BA9F111
:100B5000260F371F213F310514F020EF30E077FFDB
:100B600002C060E070E0E901C61BD70B31F137FD30
:100B700024C0603F71050CF557FD1FC021E0803493
:100B80009207DCF4A8019E010E94D504DF9ADE9A48
:100B9000DD98BE0180E090E0980140E050E00E94C6
:100BA000FB19C39AF5BAC398C39AE5BAC3986150C2
:100BB000704080409040A9F7DD9ADF91CF911F915E
:100BC0000F91FF90EF9008950F931F938C0180E099
:100BD00090E060E070E040E451E020EF30E00E94FF
:100BE00091051F910F9108958F9AD59AD69ABB9A25
:100BF000D79AB99AC19888EE93E028EC30E0F901D1
:100C00003197F1F70197D9F7C19A88EE93E028EC74
:100C100030E0F9013197F1F70197D9F783EE90E0D1
:100C200068E070E30E94B80487EE90E062E170E053
:100C30000E94B8048FEE90E061E372E10E94B80474
:100C400080E090E061E070E00E94B80484EF91E001
:100C500028EC30E0F9013197F1F70197D9F781E0FD
:100C600090E060E070E00E94B80482E090E060E014
:100C700077E00E94B80483E090E068E270E10E94AF
:100C8000B80484E090E060E070E00E94B80488E07E
:100C900090E062E072E00E94B80489E090E060E0D9
:100CA00070E00E94B8048AE090E060E070E00E948A
:100CB000B8048CE090E060E070E00E94B8048DE041
:100CC00090E060E070E00E94B8048FE090E060E0A7
:100CD00070E00E94B80480E190E060E070E00E9463
:100CE000B80481E190E067E070E00E94B80482E11E
:100CF00090E060E070E00E94B80483E190E060E082
:100D000070E00E94B80480ED97E028EC30E0F90133
:100D10003197F1F70197D9F780E190E060E975E14B
:100D20000E94B80481E190E067E272E00E94B8049A
:100D300084EF91E028EC30E0F9013197F1F7019769
:100D4000D9F782E190E06EE170E00E94B80484EF90
:100D500091E028EC30E0F9013197F1F70197D9F7EC
:100D600083E190E060E075E10E94B80489E290E0E0
:100D700066E270E00E94B80484EF91E028EC30E075
:100D8000F9013197F1F70197D9F780E390E067E037
:100D900070E00E94B80481E390E067E077E00E9491
:100DA000B80482E390E067E071E00E94B80485E354
:100DB00090E066E072E00E94B80486E390E066E0AE
:100DC00074E00E94B80487E390E061E071E00E9463
:100DD000B80488E390E061E071E00E94B80489E320
:100DE00090E067E072E00E94B8048CE390E064E079
:100DF00075E00E94B8048DE390E066E078E00E9420
:100E0000B8048BE290E06FE070E00E94B80480E2EA
:100E100090E060E070E00E94B80481E290E060E061
:100E200070E00E94B80480E590E060E070E00E940D
:100E3000B80481E590E06FEE70E00E94B80482E5AE
:100E400090E060E070E00E94B80483E590E06FE31A
:100E500071E00E94B80480E690E060E077E20E94D2
:100E6000B80481E690E063E070E00E94B8048AE68E
:100E700090E060E070E00E94B80480E890E060E0FC
:100E800070E00E94B80481E890E060E070E00E94A9
:100E9000B80482E890E060E070E00E94B80483E863
:100EA00090E060E070E00E94B80484E890E060E0C8
:100EB00070E00E94B80485E890E060E070E00E9475
:100EC000B80480E990E060E170E00E94B80482E933
:100ED00090E060E076E00E94B80483E990E063E08F
:100EE00070E00E94B80485E990E060E171E00E9442
:100EF000B80487E990E060E070E00E94B80488E9F7
:100F000090E060E070E00E94B80487E090E063E366
:100F100071E00E94B80480E090E00E94E405979A96
:100F200008950F931F93CF93DF93EC01CB018A01B8
:100F300021E0C034D207B8F4603F7105A0F46FEE31
:100F400070E0681B790B80E290E00E94B80481E2B7
:100F500090E0BE010E94B80482E290E00E94AD04DD
:100F6000C8010E94A204DF91CF911F910F910895B3
:100F70002F923F924F925F926F927F928F929F92A9
:100F8000AF92BF92CF92DF92EF92FF920F931F9397
:100F9000DF93CF93CDB7DEB728970FB6F894DEBFB7
:100FA0000FBECDBF9A8389832B011C830B83481B03
:100FB000590B261B370B1416150624F471E0272E47
:100FC000312C09C04115510521F022242A94322CDC
:100FD00002C0222433241216130624F461E0662E84
:100FE000712C09C02115310521F066246A94762CF4
:100FF00002C0662477245A0157FF04C0B094A1941C
:10100000B108B394690137FF04C0D094C194D108EA
:10101000D3948601CA14DB040CF485018824992436
:10102000EE24FF2418861F82C80101969E838D83BB
:1010300028C089819A81B2014B815C810E9491070D
:10104000EA0CFB1CEF81F885EC0DFD1DF887EF83A2
:101050000E151F0544F4E01AF10A89819A81820D68
:10106000931D9A838983EF81F8850E171F0734F447
:10107000E01BF10BF887EF83460C571C0894811C8A
:10108000911C8D819E81881599059CF628960FB636
:10109000F894DEBF0FBECDBFCF91DF911F910F91AE
:1010A000FF90EF90DF90CF90BF90AF909F908F9088
:1010B0007F906F905F904F903F902F9008956F9228
:1010C0007F928F929F92AF92BF92CF92DF92EF92D8
:1010D000FF920F931F93CF93DF937A01E901680189
:1010E0009C013C01641A750A4B018C1A9D0A5A0135
:1010F000A20EB31E8E01060F171FC501B801A6016F
:101100000E949107EF2829F0C301B801A6010E94AF
:101110009107CD2B29F0C501B401A6010E949107CA
:10112000C301B401A6010E949107DF91CF911F91E5
:101130000F91FF90EF90DF90CF90BF90AF909F9076
:101140008F907F906F9008952F923F924F925F9271
:101150006F927F928F929F92AF92BF92CF92DF92C7
:10116000EF92FF920F931F93DF93CF93CDB7DEB72C
:1011700029970FB6F894DEBF0FBECDBF8C839D8339
:101180006E837F833A8329830B8322243324241A9A
:10119000350A2A01198618867FC08B81882309F4B5
:1011A0004BC0EC80FD803701E885F9856E1A7F0A17
:1011B000CE80DF804F01880C991CB6016419750937
:1011C000C301A40121E030E009811A810E94910548
:1011D000E418F5085201AA0CBB1CB6018885998554
:1011E000681B790BC701A50121E030E009811A8154
:1011F0000E949105688579856C0D7D1DC701A5014B
:1012000021E030E009811A810E949105C40CD51CAF
:10121000C301B601A40121E030E009811A810E94D6
:10122000910580E090E060E070E040E451E020EF64
:1012300030E00E94D5041AC08C819D816E817F812F
:10124000A2012885398509811A810E945F08E885F5
:10125000F9854E165F0651F08C819D816E817F81EC
:10126000AF01920109811A810E945F0828853985A2
:101270002F5F3F4F88859985280E391E220E331E19
:1012800037FC08C0089441085108C201880F991F13
:10129000281A390A39872887E885F9854E165F06A6
:1012A0000CF07BCF29960FB6F894DEBF0FBECDBFF2
:1012B000CF91DF911F910F91FF90EF90DF90CF9032
:1012C000BF90AF909F908F907F906F905F904F9066
:1012D0003F902F900895DF92EF92FF920F931F930C
:1012E000D82E7A018B0187FF0BC087E740E050E0E2
:1012F00060E070E00E946B09823098F58FE7D82299
:10130000C39A0E94D217C3980E94D2178D2D0E94B3
:10131000D317812F9927AA27BB270E94D317C8016B
:10132000AA27BB270E94D317BB27A12F902F8F2D51
:101330000E94D3178E2D0E94D31780E4D81611F483
:1013400085E906C088E4D81611F487E801C081E079
:101350000E94D3171AE00E94D21787FF02C01150D3
:10136000D1F71F910F91FF90EF90DF900895CF92EA
:10137000DF92EF92FF920F931F93CF93DF936C0155
:1013800079018091800083FD07C039E0440F551F2B
:10139000661F771F3A95D1F781E50E946B09882374
:1013A00061F5C0E4DCE90E94D2178F3F19F4219760
:1013B000D1F723C08E3F09F5E114F10429F0E701CC
:1013C0000E94D2172197E1F7C114D10441F0E8013E
:1013D0000E94D217F60181936F012197C9F7CC279C
:1013E000DD27CE19DF09CE5FDD4FC01BD10B0E9478
:1013F000D2172197E1F710E001C011E0C39A0E94D3
:10140000D217812FDF91CF911F910F91FF90EF9015
:10141000DF90CF9008950F931F93CF93DF938C01AC
:101420000097D9F0EA010FC0F80181918F010E9465
:10143000D31780917E0090917F00019790937F0059
:1014400080937E002197209709F452C080917E00FE
:1014500090917F00892B41F74BC0411551056105E3
:101460007105F9F08091800083FD07C0E9E0440F29
:10147000551F661F771FEA95D1F788E50E946B0913
:10148000882311F011E035C08FEF0E94D3178EEF43
:101490000E94D31780E092E090937F0080937E00BB
:1014A00027C0C0917E00D0917F00229604C080E0CA
:1014B0000E94D31721972097D1F70E94D2178F71DE
:1014C000853089F4C8E8D3E103C00E94C61721978C
:1014D0000E94D2178F3F19F02097B9F704C0CD2B87
:1014E00011F010E001C011E0C39A0E94D21701C0B0
:1014F00010E0812FDF91CF911F910F910895CF922E
:10150000DF92EF92FF920F931F93DF93CF9300D060
:1015100000D0CDB7DEB780918000882351F0C39909
:1015200008C080E090E040E050E060E070E00E94A1
:101530000B0A0E94C117C39A1AE00E94D2171150D9
:10154000E1F780E440E050E060E070E00E946B0969
:10155000813009F069C088E44AEA51E060E070E057
:101560000E946B098130E1F56E010894C11CD11C09
:1015700076018E010B5F1F4F0E94D217F7018193F6
:101580007F01E017F107C1F78B81813009F04CC072
:101590008C818A3A09F048C000E117E206C00E9437
:1015A000C6170150104009F43FC089EE40E050E0FA
:1015B00060E070E40E946B09882389F74CC00E94A8
:1015C000D217F60181936F01EE15FF05C1F78981EE
:1015D00086FD03C004E0F02E28C01CE0F12E25C0DB
:1015E00089EE40E050E060E070E00E946B098230DC
:1015F00028F0B1E4EB2EFF24F39404C0A9EEEA2E08
:10160000F2E0FF2E00E117E205C00E94C61701506C
:10161000104051F08E2D40E050E060E070E00E94FC
:101620006B09882391F722C0FF24F0928000C39AAF
:101630000E94D21780E0FF2009F481E00F900F9004
:101640000F900F90CF91DF911F910F91FF90EF902E
:10165000DF90CF9008958AE740E050E060E070E0CE
:101660000E946B09882309F4AACFDECF80E540E011
:1016700052E060E070E00E946B098823A9F6D5CFA4
:10168000CF92DF92EF92FF920F931F93CF93DF934E
:101690006C01C0918100D0918200FC011182108206
:1016A000248135814681578121303105410551051D
:1016B00009F45BC08E819F81A885B98528173907F9
:1016C0004A075B0708F051C0211531054105510556
:1016D00039F48881833021F42E853F8548895989E2
:1016E000F60120873187428753872115310541054F
:1016F000510581F18EEFE82E8FEFF82E8FEF082F36
:101700008FEF182FE20EF31E041F151F8E819F818D
:10171000A885B9850297A109B109E816F9060A0753
:101720001B0728F020E030E040E050E017C02A819D
:1017300030E040E050E0C801B7010E94FB199B0176
:10174000AC018A899B89AC89BD89280F391F4A1F42
:101750005B1F04C02E853F8548895989F60124877F
:1017600035874687578780E001C081E0DF91CF91C0
:101770001F910F91FF90EF90DF90CF9008956F929F
:101780007F928F929F92AF92BF92CF92DF92EF9211
:10179000FF920F931F93DF93CF9300D000D0CDB76C
:1017A000DEB74B015C01609081007090820082E0A6
:1017B00088169104A104B10408F4B4C0F301868131
:1017C0009781A085B18588169906AA06BB0608F000
:1017D000A9C08081823009F45FC0833009F47BC0E6
:1017E000813009F09FC0C40196958795880D991D99
:1017F0009C013170892F992786956C01EE24FF2476
:10180000F3014285538564857585CE010196F1E02B
:101810002F3F3F0749F0C40ED51EE61EF71EB70145
:10182000A60102E010E01EC04C0D5D1D6E1D7F1D67
:101830002FEF31E001E010E00E94B709882309F0A2
:1018400071C0F30142855385648575854F5F5F4F95
:101850006F4F7F4F4C0D5D1D6E1D7F1DCE0102969B
:1018600020E030E00E94B709882309F05BC069815D
:101870007A81C40181709070892B39F0A4E076954B
:101880006795AA95E1F79B0123C09B0140E050E0DA
:101890003F70407050704AC077276B2D5A2D492DEC
:1018A000F30182859385A485B585480F591F6A1F6A
:1018B0007B1F94013070220F331FCE01019602E08E
:1018C00010E00E94B709882369F589819A819C01FB
:1018D00040E050E02BC0B501A40127E07695679564
:1018E000579547952A95D1F7F30182859385A4856D
:1018F000B585480F591F6A1F7B1F94012F773070E1
:10190000220F331F220F331FCE01019604E010E097
:101910000E94B709882331F429813A814B815C8187
:101920005F7004C021E030E040E050E0B901CA013E
:101930000F900F900F900F90CF91DF911F910F910B
:10194000FF90EF90DF90CF90BF90AF909F908F90DF
:101950007F906F900895AF92BF92CF92DF92EF92F7
:10196000FF920F931F93CF93DF935C01C09181008F
:10197000D0918200FC01C080D1800894C11CD11C90
:10198000C114D10409F48FC0248535854685578557
:10199000211531054105510509F485C0C6018F7037
:1019A0009070892B09F07AC02F5F3F4F4F4F5F4FE8
:1019B000248735874687578740855185628573859B
:1019C000411551056105710539F48C819D81C81659
:1019D000D90608F463C067C08A8190E00197960138
:1019E000E4E036952795EA95E1F782239323892B46
:1019F00009F054C0CB01BA010E94BF0B9B01AC019E
:101A0000623071058105910510F481E04DC08E8131
:101A10009F81A885B985281739074A075B0708F011
:101A200042C0F5012087318742875387C0918100EA
:101A3000D09182008EEFE82E8FEFF82E8FEF082FD7
:101A40008FEF182FE20EF31E041F151F8E819F814A
:101A5000A885B9850297A109B109E816F9060A0710
:101A60001B0728F020E030E040E050E012C02A815F
:101A700030E040E050E0C801B7010E94FB199B0133
:101A8000AC018A899B89AC89BD89280F391F4A1FFF
:101A90005B1FF5012487358746875787F501D1827B
:101AA000C08280E001C083E0DF91CF911F910F9150
:101AB000FF90EF90DF90CF90BF90AF9008952F925E
:101AC0003F924F925F926F927F928F929F92AF92CE
:101AD000BF92CF92DF92EF92FF920F931F93CF931B
:101AE000DF93E82FC0918100D0918200209711F4FC
:101AF00086E002C1898180FD02C085E0FDC0EA8CDC
:101B0000FB8C0C8D1D8D4E2F592FCB01DA013C0122
:101B10004D01E614F7040805190510F437014801D2
:101B2000EE88FF88088D198D1E8A1F8A188E198EDF
:101B3000611471048104910409F4DAC08A81A82E29
:101B4000BB24CC24DD24B9E0AA0CBB1CCC1CDD1CBE
:101B5000BA95D1F7E114F10401051105B1F11701AE
:101B6000280108942108310841085108C401B30133
:101B70006150704080409040A60195010E942D1A4E
:101B800079018A01C201B101A60195010E942D1AB5
:101B9000E216F30604071507C0F088279927DC0131
:101BA0008A199B09AC09BD0982219321A421B52181
:101BB0008E8B9F8BA88FB98F681A790A8A0A9B0A25
:101BC0002AA13BA14CA15DA133C02E8D3F8D48A120
:101BD00059A12AA33BA34CA35DA32AC0CA01B90102
:101BE0000E94BF0B9B01AC0162307105810591051C
:101BF00008F480C08E819F81A885B9852817390790
:101C00004A075B0708F076C02AA33BA34CA35DA359
:101C10008E899F89A88DB98D8A0D9B1DAC1DBD1D18
:101C20008E8B9F8BA88FB98F6A187B088C089D08B4
:101C3000A614B704C804D90488F2EE88FF88088D7A
:101C4000198DE60CF71C081D191DEE8AFF8A088FF6
:101C5000198F8090810090908200AEEFAA2EAFEF96
:101C6000BA2EAFEFCA2EAFEFDA2EA20EB31EC41EED
:101C7000D51EF40186819781A085B1850297A109BF
:101C8000B109A816B906CA06DB06A0F5228130E024
:101C900040E050E0C601B5010E94FB199B01AC0178
:101CA000F40182899389A489B589280F391F4A1FB5
:101CB0005B1F2115310541055105E1F0F9E016954D
:101CC0000795F794E794FA95D1F78A8190E0019708
:101CD000AA2797FDA095BA2FE822F9220A231B23F1
:101CE0002E0D3F1D401F511F2EA33FA348A759A7EC
:101CF00080E002C0198281E0DF91CF911F910F91A6
:101D0000FF90EF90DF90CF90BF90AF909F908F901B
:101D10007F906F905F904F903F902F900895AF927B
:101D2000BF92CF92DF92EF92FF920F931F93DF93B8
:101D3000CF93CDB7DEB7AC970FB6F894DEBF0FBE2A
:101D4000CDBF7C016B018091810090918200892B35
:101D500011F486E0B0C0CE010196D70113969C9392
:101D60008E9312976115710539F083E00DE0A02E76
:101D7000B12CAC0EBD1E28C0C7010E94400B9BC0F9
:101D8000F701208131812F70307015E0220F331F51
:101D90001A95E1F7C50100E210E00E94B709882317
:101DA00011F081E01FC09D85992309F495C0888DAD
:101DB000953E29F09E3219F08F7383FF1DC0C70135
:101DC0000E94AB0C882371F4D7011C964D915D9154
:101DD0006D917C911F97411551056105710581F643
:101DE000882351F0F70114861586168617868330EE
:101DF00019F0882309F05FC09601275F3F4FF70174
:101E000084859585A685B7850097A105B10509F458
:101E100043C0FE013D96AE014B5E5F4F8081803234
:101E200051F0853009F485EED9018D939D013196ED
:101E3000E417F50799F78D89803299F08EE2F90160
:101E400081939F01FE017596AE01485E5F4F8081D0
:101E5000803239F0D9018D939D013196E417F50751
:101E6000B1F7888DF6018087FE013D96448D558D32
:101E7000668D778DD6014D935D936D937C9313970B
:101E8000808D918D15969C938E9314978689978952
:101E900017969C938E931697F9011082C7010E94A2
:101EA000AB0C833041F4D7011C961D921D921D92FC
:101EB0001C921F9780E0AC960FB6F894DEBF0FBE61
:101EC000CDBFCF91DF911F910F91FF90EF90DF90E9
:101ED000CF90BF90AF90089583E084CF6F927F92B0
:101EE0008F929F92AF92BF92CF92DF92EF92FF922A
:101EF0000F931F93CF93DF93EC016B017A0103C023
:101F00000894E11CF11CF70180818032C9F38F3203
:101F100019F40894E11CF11C1C821D821E821F8290
:101F2000F7018081813238F4CE010E94400BB82E37
:101F3000F6011082A5C0A0E26A2E77247394FBE01C
:101F40008F2E912C8C0C9D1CAA81BB81FD018BE0F6
:101F500090E001C0619201972FEF8F3F9207D1F778
:101F600020E0AA2438E002C028E03BE0F701EA0DB7
:101F7000F11D9081A3949132B0F09F32A1F09E3276
:101F800011F0231728F0383071F49E3269F30BC03A
:101F9000892F81568A3108F49052FD01E20FF11D1C
:101FA00090832F5FE3CF1B961C921B97913210F406
:101FB0001B967C92CE010E94400BB82E8823D1F54F
:101FC0004C855D856E857F85288139812F703070C5
:101FD000E5E0220F331FEA95E1F7C60100E210E0C9
:101FE0000E94B709882311F081E023C0F6018081A7
:101FF000882309F455C0F401808183FD15C0D60102
:102000008A819B819C01F9012BE030E02150304016
:102010008FEF2F3F380709F446C09C9180819817B5
:1020200019F411963196F2CFCE010E94AB0C8823A1
:1020300039F2B82EE3E0BE1619F5EA81FB818385FB
:102040008823E1F01DC0F401808184FF17C0EA0CF1
:10205000F11CF60184899589A0E0B0E0DC019927A4
:102060008827228D338D40E050E0822B932BA42BC8
:10207000B52B8C839D83AE83BF8366CF94E0B92E4E
:102080008B2DDF91CF911F910F91FF90EF90DF90FB
:10209000CF90BF90AF909F908F907F906F9008955A
:1020A00083E0B82ECACFEA81FB818385882359F269
:1020B000E7CFEF92FF920F931F93DF93CF93CDB7AC
:1020C000DEB7AC970FB6F894DEBF0FBECDBF8C0164
:1020D000AB018091810090918200892B11F486E000
:1020E00031C0CE010196F801938382833DE0E32E57
:1020F000F12CEC0EFD1EC801B7010E946E0F882363
:10210000F1F48D858823C1F0888D84FF1AC0F70112
:1021100084899589A0E0B0E0DC0199278827228D89
:10212000338D40E050E0822B932BA42BB52BF8018C
:1021300084839583A683B783C8010E94400B8330B4
:1021400009F484E0AC960FB6F894DEBF0FBECDBFA5
:10215000CF91DF911F910F91FF90EF900895EF9233
:10216000FF920F931F93DF93CF93CDB7DEB7EC971A
:102170000FB6F894DEBF0FBECDBFAC010091810059
:10218000109182000115110511F466E040C0F801BC
:102190001182CE010196988B8F876DE1E62EF12C8E
:1021A000EC0EFD1ECE010D96B7010E946E0F682F3A
:1021B000882369F58D8D882349F188A584FD26C083
:1021C000F70184899589A0E0B0E0DC019927882790
:1021D000228D338D40E050E0822B932BA42BB52B26
:1021E000F801868F978FA0A3B1A3F701848D958DF9
:1021F000A68DB78DF801828F938FA48FB58F168A25
:10220000178A108E118E81E0818301C063E0862FD2
:10221000EC960FB6F894DEBF0FBECDBFCF91DF9125
:102220001F910F91FF90EF9008954F925F926F92E0
:102230007F928F929F92AF92BF92CF92DF92EF9256
:10224000FF920F931F93CF93DF933C016B014A01E1
:10225000C0918100D0918200FA01118210822097F2
:1022600011F486E0CAC0898180FD02C085E0C5C046
:102270002A8D3B8D4C8D5D8D8E899F89A88DB98D62
:10228000281B390B4A0B5B0BCB01A0E0B0E02817F1
:1022900039074A075B0708F469015301412CE2E062
:1022A0005E2EA3C02E893F89488D598DDA01C90160
:1022B0009170A070B0700097A105B10509F060C0E1
:1022C000DA01C90179E0B695A795979587957A9532
:1022D000D1F7FA80FA94F822D1F42115310541059D
:1022E000510529F46E8D7F8D88A199A106C06AA140
:1022F0007BA18CA19DA10E94BF0B6230710581055D
:10230000910508F478C06AA37BA38CA39DA30091D8
:102310008100109182002AA13BA14CA15DA1225015
:10232000304040405040F80186819781A085B185BA
:102330000297A109B109281739074A075B0708F076
:102340005AC0628170E080E090E00E94FB199B011E
:10235000AC01F80182899389A489B589280F391FB6
:102360004A1F5B1F211531054105510509F443C082
:102370002F0D311D411D511D2EA33FA348A759A765
:102380002E893F893170C201821B930B76018C1517
:102390009D0508F47C016114710419F480E090E05B
:1023A00001C0C5014EA15FA168A579A587010E9462
:1023B000B709882301F5C701A0E0B0E02E893F8965
:1023C000488D598D280F391F4A1F5B1F2E8B3F8B5D
:1023D000488F598FAE0CBF1CCE18DF08F4018081E6
:1023E00091818E0D9F1D91838083C114D10409F0CA
:1023F00059CF80E002C0198281E0DF91CF911F9117
:102400000F91FF90EF90DF90CF90BF90AF909F9093
:102410008F907F906F905F904F900895AF92BF9292
:10242000CF92DF92EF92FF920F931F93CF93DF93A0
:10243000B82EA92E6A017B012EEF31E002E010E0F8
:102440000E94B709882311F023E033C0CB2DDA2D89
:102450008881998185559A4A11F022E02AC08B2DF6
:102460009A2DB701A60126E330E002E010E00E94B9
:10247000B709882339F4888199818654914411F4ED
:1024800020E017C08B2D9A2DB701A60122E530E080
:1024900002E010E00E94B709882311F021E009C092
:1024A00020E0888199818654914409F421E081E0FB
:1024B0002827822FDF91CF911F910F91FF90EF90EE
:1024C000DF90CF90BF90AF9008954F925F926F9240
:1024D0007F928F929F92AF92BF92CF92DF92EF92B4
:1024E000FF920F931F93CF93DF93FC015B013A019F
:1024F000C0918100D0918200DA011D921C92209738
:1025000011F486E0FDC0898190E080FD02C085E085
:10251000F7C0807490706115710589F4892B59F0AA
:1025200080E090E040E050E060E070E00E940B0A44
:10253000882309F0E3C089818F7B8983DDC0892BE3
:1025400051F48E899F89A88DB98D80709E7F8E8B66
:102550009F8BA88FB98F2A8D3B8D4C8D5D8D8E8979
:102560009F89A88DB98D281B390B4A0B5B0BC501C0
:10257000A0E0B0E0281739074A075B0708F45901C3
:102580004F01412CA2E05A2EB3C02E893F89488DBD
:10259000598DC9019170892B09F06CC0DA01C9010C
:1025A000F9E0B695A79597958795FA95D1F7FA80B2
:1025B000FA94F822D1F4211531054105510529F489
:1025C0006E8D7F8D88A199A106C06AA17BA18CA187
:1025D0009DA10E94BF0B623071058105910508F431
:1025E0008DC06AA37BA38CA39DA300918100109151
:1025F00082002AA13BA14CA15DA122503040404065
:102600005040F80186819781A085B1850297A10984
:10261000B109281739074A075B0708F06FC06281C4
:1026200070E080E090E00E94FB199B01AC01F80192
:1026300082899389A489B589280F391F4A1F5B1F96
:10264000211531054105510509F458C0BA01A90108
:102650004F0D511D611D711D4EA35FA368A779A782
:1026600080E090E00E940B0A882309F047C089812E
:10267000806489838E899F8991709201281B390B10
:1026800065012A153B0508F46901760100E010E0B8
:10269000C401B801A7010E940B0A882379F58E892D
:1026A0009F89A88DB98D8E0D9F1DA01FB11F9C0104
:1026B0008E8B9F8BA88FB98FD3018D919C91119791
:1026C0008C0D9D1D8D939C933170232B69F480E0BC
:1026D00090E040E050E060E070E00E940B0A882348
:1026E00069F489818F7B89838C0C9D1CAC18BD0893
:1026F000A114B10409F049CF80E002C0198281E041
:10270000DF91CF911F910F91FF90EF90DF90CF90CD
:10271000BF90AF909F908F907F906F905F904F9001
:1027200008956F927F928F929F92AF92BF92CF92B5
:10273000DF92EF92FF920F931F93DF93CF93CDB76A
:10274000DEB7A4970FB6F894DEBF0FBECDBF5C0115
:102750001092820010928100009709F4ECC00E9450
:102760007F0A80FF02C082E0EBC04E010894811C0A
:10277000911CC40140E050E060E070E00E940E1245
:10278000813021F0CC24DD2476011BC0C40140E05F
:1027900050E060E070E02EEB31E000E110E00E94DC
:1027A000B709882309F0C9C08D81882309F4C7C0FF
:1027B000C984DA84EB84FC84C401B701A6010E94B9
:1027C0000E12833009F4B9C0882309F0B8C0CE01D5
:1027D0000196B701A6012DE030E004E210E00E946E
:1027E000B709882309F0A9C08A859B85BC0180E0D0
:1027F00090E0611571058105910521F4688D798D51
:102800008A8D9B8D2C8130E040E050E00E94FB19C6
:102810003B014C018A819B81A0E0B0E0C80ED91E2B
:10282000EA1EFB1EF501C286D386E486F586898101
:1028300082832D813E81358324838F8198857C011D
:1028400000E010E0E114F1040105110521F4EC8829
:10285000FD880E891F898A819B81A0E0B0E0E81A7B
:10286000F90A0A0B1B0BE618F7080809190984E096
:10287000369527958A95E1F7C901A0E0B0E0E81AFE
:10288000F90A0A0B1B0BF501228130E040E050E011
:10289000C801B7010E942D1A2E5F3F4F4F4F5F4F67
:1028A000F5012683378340875187273FFFE03F07A5
:1028B000F0E04F07F0E05F0710F481E001C082E034
:1028C000275F3F4F4040504008F083E0F501808390
:1028D000833029F488A199A1AAA1BBA109C0F5015F
:1028E00082859385A485B585860D971DA81DB91D84
:1028F00086879787A08BB18BF50184819581B4E0A1
:1029000096958795BA95E1F7A0E0B0E022853385EA
:1029100044855585820F931FA41FB51F860D971DF3
:10292000A81DB91D828B938BA48BB58B1182B0929D
:102930008200A092810080E003C081E001C087E0B6
:10294000A4960FB6F894DEBF0FBECDBFCF91DF9136
:102950001F910F91FF90EF90DF90CF90BF90AF90BD
:102960009F908F907F906F900895C49ABC9ABF9A61
:10297000BD9AC69A80E58DB9689A81E08EB98EB10C
:1029800008954F925F926F927F928F929F92AF9233
:10299000BF92CF92DF92EF92FF920F931F93FC01B1
:1029A000DB01C49883E98FB9779BFECF8FB11FB845
:1029B000779BFECF9FB183ED8FB9779BFECF2FB171
:1029C0001FB8779BFECF4FB183EB8FB9779BFECFBC
:1029D0006FB11FB8779BFECFAFB082EC8FB9779BFA
:1029E000FECF5FB01FB8779BFECFCFB01FB8779BED
:1029F000FECFEFB0C49A26952695269530E0892F14
:102A000090E055E0880F991F5A95E1F7282B392B54
:102A10003183208366956695669570E0242F30E0BB
:102A200045E0220F331F4A95E1F7622B732B6D931C
:102A30007C93BB2495E0AA0CBB1C9A95E1F7DD249E
:102A400085E0CC0CDD1C8A95E1F74424882777FDCE
:102A50008095982F0E940C1920E030E040E859E35F
:102A60000E9498193B014C01E694E694E694FF24F9
:102A7000EC28FD280027F7FC0095102FC801B701AE
:102A80000E940C197B018C01569456945694652D26
:102A900070E06A297B29882777FD8095982F0E940E
:102AA0000C199B01AC01C801B7010E94711820E00C
:102AB00030E040E85FE30E940C189B01AC01C401C8
:102AC000B3010E94981920E030E040E251E40E94F6
:102AD00098190E94D9186B5070406E30710510F42F
:102AE00044244394842D1F910F91FF90EF90DF9029
:102AF000CF90BF90AF909F908F907F906F905F909E
:102B00004F9008952F923F924F925F926F927F92D3
:102B10008F929F92AF92BF92CF92DF92EF92FF92ED
:102B20000F931F93DF93CF93CDB7DEB72A970FB6DE
:102B3000F894DEBF0FBECDBF98878F837A876987F1
:102B40001E821D82AA24BB246501662477244301CA
:102B500022242A94322C442455240FEF1FEFEE2414
:102B6000FF24CE010196BE016D5F7F4F0E94C1140C
:102B7000882349F129813A81C901AA2797FDA095A7
:102B8000BA2FA80EB91ECA1EDB1E4B815C81CA017A
:102B9000AA2797FDA095BA2F680E791E8A1E9B1E44
:102BA0008D818F5F8D834216530608F4290122150B
:102BB000330508F41901CA01E416F50608F47A0190
:102BC0004017510708F0C801EE81EF5FEE83EA304D
:102BD00011F08C01C6CFFD81F53048F19201221928
:102BE0003309A701481B590BCA014217530708F4C0
:102BF000C90189379105D8F45D81E52EFF2400E0F5
:102C000010E0C601B501A80197010E944F1AEF819B
:102C1000F88531832083C401B301A80197010E9484
:102C20004F1AE985FA853183208381E001C080E075
:102C30002A960FB6F894DEBF0FBECDBFCF91DF91BD
:102C40001F910F91FF90EF90DF90CF90BF90AF90CA
:102C50009F908F907F906F905F904F903F902F90BC
:102C60000895AF92BF92CF92DF92EF92FF920F93AF
:102C70001F93DF93CF9300D000D0CDB7DEB76C01A8
:102C80005B01CE010196BE016D5F7F4F0E948215F0
:102C9000882309F45BC069817A8120918500309195
:102CA0008600621B730B882777FD8095982F0E9402
:102CB0000C197B018C016091890070918A00882732
:102CC00077FD8095982F0E940C199B01AC01C801DB
:102CD000B7010E94711820E030E040EA53E40E94FE
:102CE00098190E94D91820E431E0261B370BF60111
:102CF000318320836B817C81209187003091880013
:102D0000621B730B882777FD8095982F0E940C1902
:102D10007B018C016091830070918400882777FD8E
:102D20008095982F0E940C199B01AC01C801B70136
:102D30000E94711820E030E040E753E40E949819A7
:102D40000E94D918F5017183608381E00F900F9084
:102D50000F900F90CF91DF911F910F91FF90EF9007
:102D6000DF90CF90BF90AF9008958FB9779BFECF43
:102D70008FB10895EF92FF920F931F93DF93CF933C
:102D800000D000D0CDB7DEB780E090E00E94E4052F
:102D90000E94B5148B98939880E290E068E170E00F
:102DA0004AE050E02FEF3FEF00E00E94A40880E2ED
:102DB00090E068E170E045E050E02FEF3FEF0E94C7
:102DC000A40880E290E068E170E04FEF5FEF0E94BE
:102DD00091078399FECF03E0E02EF12CEC0EFD1E4F
:102DE0008E010F5F1F4FC801B7010E948215882313
:102DF000D1F389819A8190938600809385008B819D
:102E00009C819093880080938700839BFECF80E015
:102E100090E00E94E40580E291E068E770E04AE01B
:102E200050E02FEF3FEF00E00E94A40880E291E025
:102E300068E770E045E050E02FEF3FEF0E94A40804
:102E400080E291E068E770E04FEF5FEF0E9491074A
:102E50008399FECF13E0E12EF12CEC0EFD1E8E01C6
:102E60000F5F1F4FC801B7010E9482158823D1F35D
:102E7000E981FA8180918500909186008E1B9F0BDD
:102E800068E070E00E941A1A9B01220F331FAB0109
:102E9000A3E0440F551FAA95E1F7240F351F309387
:102EA0008A0020938900E61BF70BF0938600E093DD
:102EB0008500839BFECF80E090E00E94E40580EADD
:102EC00090E068ED70E04AE050E02FEF3FEF00E067
:102ED0000E94A40880EA90E068ED70E045E050E0D0
:102EE0002FEF3FEF0E94A40880EA90E068ED70E0C9
:102EF0004FEF5FEF0E9491078399FECFE3E0EE2E44
:102F0000F12CEC0EFD1E8E010F5F1F4FC801B701A3
:102F10000E9482158823D1F3E0918700F091880008
:102F20008B819C818E1B9F0B68E070E00E941A1AB7
:102F3000AB01CB01880F991F9A0163E0220F331F69
:102F40006A95E1F7820F931F90938400809383002A
:102F5000E41BF50BF0938800E0938700839BFECF82
:102F60005C834B8380E090E00E94E4050F900F901B
:102F70000F900F90CF91DF911F910F91FF90EF90E5
:102F80000895B89ABA9AB99AC39A089580E5319784
:102F90003197319700008A95D1F7089502D0C098F3
:102FA00001C0C09A8FEF98E087FDC29A87FFC29850
:102FB000880FB3998395C19AC1989A95A9F70895F6
:102FC000FB0183E080935700E8958091570080FDD6
:102FD000FCCF81E180935700E89508950F921F92EE
:102FE000FB01DA0190E40D901D9081E08093570081
:102FF000E89532969A95B9F7FB0185E080935700E2
:10300000E8958091570080FDFCCF81E180935700C7
:10301000E8951F900F9008955058BB27AA270ED00F
:103020004DC13ED130F043D120F031F49F3F11F437
:103030001EF433C10EF4E095E7FB29C1E92F4FD10F
:1030400080F3BA17620773078407950718F071F4C5
:103050009EF567C10EF4E0950B2EBA2FA02D0B0143
:10306000B90190010C01CA01A0011124FF27591BCD
:1030700099F0593F50F4503E68F11A16F040A22FD3
:10308000232F342F4427585FF3CF46953795279544
:10309000A795F0405395C9F77EF41F16BA0B620B43
:1030A000730B840BBAF09150A1F0FF0FBB1F661F8A
:1030B000771F881FC2F70EC0BA0F621F731F841FCD
:1030C00048F4879577956795B795F7959E3F08F0F3
:1030D000B3CF9395880F08F09927EE0F97958795B2
:1030E00008950CD0EBC0E3D040F0DAD030F021F4FA
:1030F0005F3F19F0CCC0511115C1CFC0F0D098F38B
:103100009923C9F35523B1F3951B550BBB27AA2768
:1031100062177307840738F09F5F5F4F220F331FDA
:10312000441FAA1FA9F333D00E2E3AF0E0E830D0A6
:1031300091505040E695001CCAF729D0FE2F27D0A9
:10314000660F771F881FBB1F261737074807AB0777
:10315000B0E809F0BB0B802DBF01FF2793585F4FEC
:103160002AF09E3F510568F092C0DCC05F3FECF34F
:10317000983EDCF3869577956795B795F7959F5FB1
:10318000C9F7880F911D9695879597F90895E1E005
:10319000660F771F881FBB1F621773078407BA0764
:1031A00020F0621B730B840BBA0BEE1F88F7E095BF
:1031B000089504D06894B111B5C0089598D088F0EE
:1031C0009F5790F0B92F9927B751A0F0D1F0660F13
:1031D000771F881F991F1AF0BA95C9F712C0B1302E
:1031E00081F09FD0B1E008959CC0672F782F882789
:1031F000B85F39F0B93FCCF3869577956795B3956D
:10320000D9F73EF490958095709561957F4F8F4FDB
:103210009F4F0895E89409C097FB3EF490958095E0
:10322000709561957F4F8F4F9F4F9923A9F0F92F8C
:1032300096E9BB279395F695879577956795B7950A
:10324000F111F8CFFAF4BB0F11F460FF1BC06F5FF0
:103250007F4F8F4F9F4F16C0882311F096E911C002
:10326000772321F09EE8872F762F05C0662371F023
:1032700096E8862F70E060E02AF09A95660F771F37
:10328000881FDAF7880F9695879597F9089597F92B
:103290009F6780E870E060E008959FEF80EC0895FC
:1032A00000240A9416161706180609060895002425
:1032B0000A9412161306140605060895092E03949F
:1032C000000C11F4882352F0BB0F40F4BF2B11F413
:1032D00060FF04C06F5F7F4F8F4F9F4F089557FD72
:1032E0009058440F551F59F05F3F71F04795880F74
:1032F00097FB991F61F09F3F79F08795089512160B
:1033000013061406551FF2CF4695F1DF08C01616B6
:1033100017061806991FF1CF869571056105089467
:103320000895E894BB2766277727CB0197F908957E
:103330000BD0C4CFB5DF28F0BADF18F0952309F021
:10334000A6CFABCF1124EECFCADFA0F3959FD1F368
:10335000950F50E0551F629FF001729FBB27F00D43
:10336000B11D639FAA27F00DB11DAA1F649F662798
:10337000B00DA11D661F829F2227B00DA11D621FE7
:10338000739FB00DA11D621F839FA00D611D221FA1
:10339000749F3327A00D611D231F849F600D211D85
:1033A000822F762F6A2F11249F5750408AF0E1F028
:1033B00088234AF0EE0FFF1FBB1F661F771F881F71
:1033C00091505040A9F79E3F510570F060CFAACFB1
:1033D0005F3FECF3983EDCF3869577956795B7955C
:1033E000F795E7959F5FC1F7FE2B880F911D969586
:1033F000879597F90895629FD001739FF001829F8E
:10340000E00DF11D649FE00DF11D929FF00D839F73
:10341000F00D749FF00D659FF00D9927729FB00D10
:10342000E11DF91F639FB00DE11DF91FBD01CF0123
:103430001124089597FB092E07260AD077FD04D0A2
:1034400049D006D000201AF4709561957F4F0895F9
:10345000F6F7909581959F4F0895A1E21A2EAA1B29
:10346000BB1BFD010DC0AA1FBB1FEE1FFF1FA21734
:10347000B307E407F50720F0A21BB30BE40BF50B31
:10348000661F771F881F991F1A9469F760957095BA
:10349000809590959B01AC01BD01CF01089597FBEC
:1034A000092E05260ED057FD04D0D7DF0AD0001C08
:1034B00038F450954095309521953F4F4F4F5F4FD1
:1034C0000895F6F790958095709561957F4F8F4F91
:1034D0009F4F0895AA1BBB1B51E107C0AA1FBB1F2A
:1034E000A617B70710F0A61BB70B881F991F5A9590
:1034F000A9F780959095BC01CD010895A0E0B0E0BA
:10350000E4E8FAE10C94EE1AEC01A880B980CA80D4
:10351000DB80A114B104C104D10441F484E2A82EDB
:1035200089EDB82E8BE5C82E87E0D82EC601B501EF
:103530002DE133EF41E050E00E944F1A27EA31E4D9
:1035400040E050E00E94FB197B018C01C601B501EF
:103550002DE133EF41E050E00E944F1ACA01B9015A
:103560002CEE34EF4FEF5FEF0E94FB196E0D7F1DC5
:10357000801F911F97FF04C06150704080409048A9
:10358000688379838A839B839B013F77C901CDB789
:10359000DEB7EAE00C940A1B0E947E1A08958AE7BF
:1035A00090E00E947E1A0895A0E0B0E080937A0037
:1035B00090937B00A0937C00B0937D000895FB0165
:1035C000DC0101900D920020E1F708952F923F92C7
:1035D0004F925F926F927F928F929F92AF92BF9223
:1035E000CF92DF92EF92FF920F931F93CF93DF93CF
:1035F000CDB7DEB7CA1BDB0B0FB6F894DEBF0FBE2C
:10360000CDBF09942A88398848885F846E847D8478
:103610008C849B84AA84B984C884DF80EE80FD807A
:103620000C811B81AA81B981CE0FD11D0FB6F894F0
:0E363000DEBF0FBECDBFED010895F894FFCFB1
:10363E004E65776D616E277320746F7563682063B6
:0E364E006972636C65732E2E2000010000006F
:00000001FF
