:100000000C9422030C943F030C943F030C943F0385
:100010000C943F030C943F030C943F030C943F0358
:100020000C943F030C943F030C943F030C943F0348
:100030000C943F030C943F030C943F030C943F0338
:100040000C943F030C943F030C943F030C943F0328
:100050000C943F03000000000000000000000000BE
:100060000000000000000000183C3C3C181800187C
:100070001800000000000000666666000000000036
:10008000000000000000000036367F3636367F362E
:1000900036000000000018183C666030180C066638
:1000A0003C18180000000070D8DA760C18306E5B2F
:1000B0001B0E000000000000386C6C38606F666634
:1000C0003B000000000000001818180000000000AD
:1000D00000000000000000000C18183030303030F4
:1000E00018180C00000000003018180C0C0C0C0C38
:1000F00018183000000000000000361C7F1C36007D
:100100000000000000000000000018187E18180011
:1001100000000000000000000000000000001C1CA7
:100120000C180000000000000000007E000000002D
:1001300000000000000000000000000000001C1C87
:100140000000000000000006060C0C18183030609B
:10015000600000000000001E333737333B3B331E86
:10016000000000000000000C1C7C0C0C0C0C0C0CA3
:10017000000000000000003C6666060C1830607E3F
:10018000000000000000003C6666061C0666663C37
:10019000000000000000003030363636667F06066C
:1001A000000000000000007E6060607C06060C78A5
:1001B000000000000000001C18307C666666663C8B
:1001C000000000000000007E060C0C1818303030D3
:1001D000000000000000003C6666763C6E66663CEF
:1001E000000000000000003C666666663E0C1838A1
:1001F0000000000000000000001C1C0000001C1C8F
:100200000000000000000000001C1C0000001C1C7E
:100210000C180000000000060C18306030180C06A6
:10022000000000000000000000007E007E000000D2
:10023000000000000000006030180C060C18306050
:10024000000000000000003C66660C18180018183A
:10025000000000000000007EC3C3CFDBDBCFC07F07
:1002600000000000000000183C6666667E66666658
:10027000000000000000007C6666667C6666667CA6
:10028000000000000000003C666660606066663C3E
:1002900000000000000000786C66666666666C7898
:1002A000000000000000007E6060607C6060607E96
:1002B000000000000000007E6060607C60606060A4
:1002C000000000000000003C666660606E66663EEE
:1002D00000000000000000666666667E6666666670
:1002E000000000000000003C181818181818183CEE
:1002F0000000000000001E0C0C0C0C0CCCCCCC78C8
:100300000000000000000066666C6C786C6C66662D
:100310000000000000000060606060606060607E5F
:10032000000000000000006363776B6B6B63636326
:10033000000000000000006363737B6F676363630A
:10034000000000000000003C666666666666663C6B
:10035000000000000000007C6666667C60606060F3
:10036000000000000000003C666666666666663C4B
:100370000C0600000000007C6666667C6C666666A3
:10038000000000000000003C666030180C06663C6F
:10039000000000000000007E18181818181818181F
:1003A0000000000000000066666666666666663CE1
:1003B00000000000000000666666666666663C181F
:1003C000000000000000006363636B6B6B36363621
:1003D0000000000000000066663418182C6666668F
:1003E00000000000000000666666663C18181818D9
:1003F000000000000000007E06060C183060607EE1
:10040000000000000000003C303030303030303030
:1004100030303C000000006060303018180C0C06D2
:10042000060000000000003C0C0C0C0C0C0C0C0C2A
:100430000C0C3C0000183C660000000000000000AE
:1004400000000000000000000000000000000000AC
:100450000000FF000038180C000000000000000041
:100460000000000000000000003C06063E66663EFC
:100470000000000000000060607C66666666667CC6
:100480000000000000000000003C66606060663C08
:100490000000000000000006063E66666666663ED6
:1004A0000000000000000000003C66667E60603CCA
:1004B000000000000000001E3030307E3030303050
:1004C0000000000000000000003E66666666663EB2
:1004D00006067C0000000060607C666666666666F4
:1004E0000000000000001818007818181818187E6E
:1004F0000000000000000C0C003C0C0C0C0C0C0C60
:100500000C0C7800000000606066666C786C6666B3
:100510000000000000000078181818181818187E3D
:100520000000000000000000007E6B6B6B6B6B63D3
:100530000000000000000000007C666666666666DB
:100540000000000000000000003C66666666663C35
:100550000000000000000000007C66666666667CA5
:100560006060600000000000003E66666666663EF1
:10057000060606000000000000666E7060606060A5
:100580000000000000000000003E60603C06067CA9
:100590000000000000000030307E30303030301E6F
:1005A0000000000000000000006666666666663EA9
:1005B00000000000000000000066666666663C18E9
:1005C000000000000000000000636B6B6B6B3636B0
:1005D00000000000000000000066663C183C6666F3
:1005E0000000000000000000006666666666663C6B
:1005F0000C18F00000000000007E060C1830607E31
:10060000000000000000000C1818183060301818A6
:10061000180C0000000000181818181818181818DE
:1006200018181800000000301818180C060C1818BC
:100630001830000000000071DB8E00000000000098
:100640000000000011241FBECFE5D8E0DEBFCDBF03
:1006500010E0A0E6B0E0E8E7F5E402C005900D92F6
:10066000A23CB107D9F710E0A2ECB0E001C01D92A6
:10067000A03DB107E1F70E9466060C94BA220C94E3
:1006800000008E9AB89A969AC0988D98959A8FEF96
:1006900084BB0E9468090E943A190895EF920F9353
:1006A0001F9315C080E0859914C01092C200859BED
:1006B000FECF80E090E060E070E040E451E02EEC9E
:1006C00030E000E010E0EE24E3940E94C208809144
:1006D000C2008399E7CF8093C2001F910F91EF90E2
:1006E0000895EF920F931F9380E090E06FEC70E01D
:1006F00040E451E022E230E000E010E0EE24E39438
:100700000E94C20880E090E060E070E040E451E0C8
:1007100020EF30E00E94040780E090E06EEC70E093
:1007200040E451E02EEC30E00FEF1FEF0E940F0885
:1007300000E080917E00882309F401E081E190E0EF
:100740006CED70E04BE050E02FEF3FEF0E941E0D8C
:1007500088E290E060ED70E042E250E02AE130E0B3
:1007600000E010E0EE24E3940E94C2088BE490E0E5
:1007700060ED70E042E250E02AE130E00FE110E08D
:100780000E94C2088EE690E060ED70E042E250E028
:100790002AE130E000EE17E00E94C20881E990E013
:1007A00060ED70E042E250E02AE130E000E018EF56
:1007B0000E94C20884EB90E060ED70E042E250E0FD
:1007C0002AE130E00FE118EF0E94C20887ED90E0C7
:1007D00060ED70E042E250E02AE130E000E01CEF22
:1007E0000E94C2088AEF90E060ED70E042E250E0C3
:1007F0002AE130E000EE1FEF0E94C2088DE191E097
:1008000060ED70E043E250E02AE130E00FEF1FEFCF
:100810000E94C20800917B0010917C0080E090E073
:100820006BEE70E040E451E025E030E00E94C20849
:100830001F910F91EF900895EF920F931F93809166
:10084000CC009091CD0088976CF490E080917E0070
:10085000882309F491E090937E000E947103839BAA
:10086000FECF27C080E090E060E070E040E451E01F
:1008700020EF30E00E9404076091CE007091CF001D
:100880008091CC009091CD000E94C0078C01909384
:100890007C0080937B0080E090E06BEE70E040E4B1
:1008A00051E025E030E0EE24E3940E94C208839BEF
:1008B000FECF1F910F91EF900895EF920F931F932A
:1008C0008091C200882399F481E08093C2008091D6
:1008D000CC009091CD009093C4008093C300809190
:1008E000CE009091CF009093C6008093C50080E029
:1008F00090E060E070E040E451E020EF30E00E94E2
:10090000040780917E00E091CC00F091CD006091D1
:10091000CE007091CF004091C3005091C40020914F
:10092000C5003091C60000917B0010917C008823A7
:1009300009F4F0C0CF01E0907D000E94050B6091AA
:10094000CE007091CF006F5F7F4F4091C3005091F8
:10095000C4002091C5003091C6002F5F3F4F009129
:100960007B0010917C008091CC009091CD00E090B4
:100970007D000E94050B6091CE007091CF006E5FEC
:100980007F4F4091C3005091C4002091C500309129
:10099000C6002E5F3F4F00917B0010917C0080913C
:1009A000CC009091CD00E0907D000E94050B8091DD
:1009B000CC009091CD006091CE007091CF0040911D
:1009C000C3005091C4004F5F5F4F2091C50030912C
:1009D000C60000917B0010917C000196E0907D00A4
:1009E0000E94050B8091CC009091CD006091CE00CB
:1009F0007091CF006F5F7F4F4091C3005091C40052
:100A00004F5F5F4F2091C5003091C6002F5F3F4F71
:100A100000917B0010917C000196E0907D000E9487
:100A2000050B8091CC009091CD006091CE0070912B
:100A3000CF006E5F7F4F4091C3005091C4004F5F65
:100A40005F4F2091C5003091C6002E5F3F4F00914F
:100A50007B0010917C000196E0907D000E94050BC8
:100A60008091CC009091CD006091CE007091CF002C
:100A70004091C3005091C4004E5F5F4F2091C5006C
:100A80003091C60000917B0010917C000296E090AE
:100A90007D000E94050B8091CC009091CD0060916B
:100AA000CE007091CF006F5F7F4F4091C300509197
:100AB000C4004E5F5F4F2091C5003091C6002F5F8C
:100AC0003F4F00917B0010917C000296E0907D00EA
:100AD0000E94050B8091CC009091CD006091CE00DA
:100AE0007091CF006E5F7F4F4091C3005091C40062
:100AF0004E5F5F4F2091C5003091C6002E5F3F4F83
:100B000000917B0010917C000296E0907D000E9495
:100B1000050B53C0CF010E940F086091CE00709169
:100B2000CF006F5F7F4F4091C3005091C400209170
:100B3000C5003091C6002F5F3F4F00917B001091A0
:100B40007C008091CC009091CD000E940F08809194
:100B5000CC009091CD006091CE007091CF0040917B
:100B6000C3005091C4004F5F5F4F2091C50030918A
:100B7000C60000917B0010917C0001960E940F0836
:100B80008091CC009091CD006091CE007091CF000B
:100B90006F5F7F4F4091C3005091C4004F5F5F4F24
:100BA0002091C5003091C6002F5F3F4F00917B0020
:100BB00010917C0001960E940F088091CC009091CA
:100BC000CD009093C4008093C3008091CE0090919B
:100BD000CF009093C6008093C5001F910F91EF90B6
:100BE0000895AF92BF92CF92DF92EF92FF920F9350
:100BF0001F93DF93CF93CDB7DEB7C456D0400FB667
:100C0000F894DEBF0FBECDBF839BFECF87E390E09D
:100C10006BE670E044ED50E028E130E000E01CEFCE
:100C2000EE240E94C20886E390E06AE670E044ED9C
:100C300050E028E130E000EE1FEF0E94C2088E0174
:100C40000F5F1F4FC80160E670E00E94DB1F88E362
:100C500090E06EE670E0A80120EE3FEF00E010E0CB
:100C60000E9489078399FECF2EC00E94CB1F8C0162
:100C70000E94CB1F7C010E94CB1F6C010E94CB1FE6
:100C80009C01C8016FE371E00E94161F8C01C7012F
:100C90006FEE70E00E94161FFC01C60164E670E072
:100CA0000E94161FAC01220F331FC801BF0101E0D3
:100CB0000E941E0D0894A11CB11C8EE1A816B1045F
:100CC000A4F28399FECFAA24BB24F7CF0E9441034C
:100CD000859902C00E94F10580E090E00E945409CD
:100CE0000E9471030E944E038CEC90E06EEC70E069
:100CF0000E94B81A8823B1F38091CE009091CF0062
:100D00008D3C91051CF40E945D04ECCF8091C200E3
:100D1000882341F70E941C04E5CF14BAC398DE9AD9
:100D2000DD98DF9882E0982F9A95F1F743B350E071
:100D3000DF9ADF988A95F1F783B390E0DF9ADD9A26
:100D4000BA01E3E076956795EA95E1F79C01207E8C
:100D50003070262B372B982F8827990F990F990FD2
:100D6000282B392B8FEF84BB47705070542F4427AA
:100D7000242B352BC9010895DF9ADE9ADD98C39A9A
:100D800095BBC398C39A85BBC398DD9A0895DF9A33
:100D9000DE98DD98C39A95BBC398C39A85BBC39868
:100DA000DD9A08950F931F938B010E94C706C80117
:100DB0000E94BC061F910F910895BC0102C0605CA7
:100DC0007E4F77FDFCCF02C06054714081E06034FB
:100DD0007807D4F78AE690E00E94D2060895DF9A59
:100DE000DE9ADD980AC0C39A55BBC398C39A45BB27
:100DF000C398615070408040904061157105810535
:100E0000910589F7DD9A08958F929F92AF92BF92D4
:100E1000CF92DF92EF92FF920F931F937C018B0191
:100E20004A015901FFEECF2ED12CC61AD70A80E213
:100E300090E0B6010E94D206109501951F4F005117
:100E40001F4F0A191B0980E590E0B8010E94D206E5
:100E500081E590E0B6010E94D20681E290E0B70100
:100E60000E94D20682E590E0B7010E94D206089463
:100E7000E108F108E80CF91C83E590E0B7010E9455
:100E8000D20682E290E00E94C7061F910F91FF9068
:100E9000EF90DF90CF90BF90AF909F908F9008958C
:100EA000AF92BF92CF92DF92FF920F931F93CF9397
:100EB000DF93F42E5901680148E050E020E130E072
:100EC0000E940407CF2DD0E0A4E0CC0FDD1FAA952F
:100ED000E1F7CC5AD14000E0FE01F49010E0F7FEBB
:100EE00002C0C50101C0C6010E94BC061F5F1830C8
:100EF00011F0FF0CF4CF0F5F2196003169F7DF91FD
:100F0000CF911F910F91FF90DF90CF90BF90AF9046
:100F100008958F929F92AF92BF92CF92DF92EF92FD
:100F2000FF920F931F93CF93DF937C014B01EA0154
:100F3000590168010BC02196C701B40195018601D2
:100F40000E94500788E090E0E80EF91E4881442393
:100F500091F780E090E060E070E040E451E020EF45
:100F600030E00E940407DF91CF911F910F91FF9015
:100F7000EF90DF90CF90BF90AF909F908F900895AB
:100F8000CF93DF93EC01CB0121E0C034D207D0F442
:100F9000603F7105B8F46FEE70E0681B790B80E27A
:100FA00090E00E94D20681E290E0BE010E94D2064B
:100FB00082E290E00E94C7060E948D060E948D0684
:100FC0009C0102C020E030E0C901DF91CF9108957B
:100FD0000F931F93CF93DF93EC01CB018A0121E0A4
:100FE000C034D207B8F4603F7105A0F46FEE70E032
:100FF000681B790B80E290E00E94D20681E290E0CB
:10100000BE010E94D20682E290E00E94C706C8019B
:101010000E94BC06DF91CF911F910F9108952F92EE
:101020003F924F925F926F927F928F929F92AF9278
:10103000BF92CF92DF92EF92FF920F931F93DF93B5
:10104000CF93CDB7DEB728970FB6F894DEBF0FBEAB
:10105000CDBF1C012B011C830B83CA01820D931D84
:101060008058924008F075C0C901840D951D805EBE
:10107000914008F06EC0421953092419350914161D
:1010800015062CF481E090E09A8389830AC041150B
:10109000510529F0EFEFFFEFFA83E98302C01A82CE
:1010A00019821216130624F4B1E06B2E712C09C0BC
:1010B0002115310521F066246A94762C02C066243D
:1010C00077245A0157FF04C0B094A194B108B39497
:1010D000690137FF04C0D094C194D108D39486012C
:1010E000CA14DB040CF4850188249924EE24FF241F
:1010F00018861F82C80101969E838D8325C0C10179
:10110000B2014B815C810E94E807EA0CFB1CEF8175
:10111000F885EC0DFD1DF887EF830E151F0534F4DF
:10112000E01AF10A89819A81280E391EEF81F8852B
:101130000E171F0734F4E01BF10BF887EF83460C02
:10114000571C0894811C911C8D819E8188159905DE
:10115000B4F628960FB6F894DEBF0FBECDBFCF9180
:10116000DF911F910F91FF90EF90DF90CF90BF9094
:10117000AF909F908F907F906F905F904F903F9037
:101180002F9008956F927F928F929F92AF92BF920D
:10119000CF92DF92EF92FF920F931F93CF93DF9343
:1011A0006A0138014E2DC80ED91E51E4C51651E012
:1011B000D50624F010E4C12E11E0D12E5C0197FF7A
:1011C00002C0AA24BB2486010A191B0909F45DC0C8
:1011D000E901C60FD71FC13FD10514F0C0EFD0E021
:1011E0007B0177FF02C0EE24FF244E018E189F087A
:1011F00009F44BC0D7FD49C080EFE816F1040CF0AC
:1012000044C01C141D040CF040C050E4A51651E06D
:10121000B506DCF5442391F0C501B701A80194019E
:101220000E940407B40180E090E0980140E050E0A3
:101230000E94F71EA3010E94EF0627C080E090E005
:1012400060E070E040E451E020EF30E00E940407ED
:101250000A0D1B1DC501B701A801970183010E945A
:101260000F08C501BE01A6019E010E940F08C6011C
:10127000B701A6019E010E940F088E0C9F1CC5019C
:10128000B701A50194010E940F08DF91CF911F9132
:101290000F91FF90EF90DF90CF90BF90AF909F9015
:1012A0008F907F906F900895EF920F931F938C0112
:1012B00080E090E060E070E040E451E020EF30E05A
:1012C000EE24E3940E94C2081F910F91EF900895BD
:1012D0008F9AD59AD69ABB9AD79AB99AC19888EE1E
:1012E00093E028EC30E0F9013197F1F70197D9F755
:1012F000C19A88EE93E028EC30E0F9013197F1F7DC
:101300000197D9F783EE90E068E070E30E94D2067F
:1013100087EE90E062E170E00E94D2068FEE90E0EE
:1013200061E372E10E94D20680E090E061E070E04B
:101330000E94D20684EF91E028EC30E0F901319769
:10134000F1F70197D9F781E090E060E070E00E944A
:10135000D20682E090E060E077E00E94D20683E06F
:1013600090E068E270E10E94D20684E090E060E0E4
:1013700070E00E94D20688E090E062E072E00E9495
:10138000D20689E090E060E070E00E94D2068AE038
:1013900090E060E070E00E94D2068CE090E060E0B7
:1013A00070E00E94D2068DE090E060E070E00E9464
:1013B000D2068FE090E060E070E00E94D20680E10B
:1013C00090E060E070E00E94D20681E190E067E08A
:1013D00070E00E94D20682E190E060E070E00E943E
:1013E000D20683E190E060E070E00E94D20680EDDA
:1013F00097E028EC30E0F9013197F1F70197D9F740
:1014000080E190E060E975E10E94D20681E190E020
:1014100067E272E00E94D20684EF91E028EC30E0AF
:10142000F9013197F1F70197D9F782E190E06EE188
:1014300070E00E94D20684EF91E028EC30E0F901E0
:101440003197F1F70197D9F783E190E060E075E11A
:101450000E94D20689E290E066E270E00E94D20625
:1014600084EF91E028EC30E0F9013197F1F7019732
:10147000D9F780E390E067E070E00E94D20681E354
:1014800090E067E077E00E94D20682E390E067E0B8
:1014900071E00E94D20685E390E066E072E00E946F
:1014A000D20686E390E066E074E00E94D20687E30D
:1014B00090E061E071E00E94D20688E390E061E094
:1014C00071E00E94D20689E390E067E072E00E943A
:1014D000D2068CE390E064E075E00E94D2068DE3D2
:1014E00090E066E078E00E94D2068BE290E06FE048
:1014F00070E00E94D20680E290E060E070E00E941E
:10150000D20681E290E060E070E00E94D20680E5C1
:1015100090E060E070E00E94D20681E590E06FEE1E
:1015200070E00E94D20682E590E060E070E00E94E8
:10153000D20683E590E06FE371E00E94D20680E678
:1015400090E060E077E20E94D20681E690E063E0FE
:1015500070E00E94D2068AE690E060E070E00E94AF
:10156000D20680E890E060E070E00E94D20681E858
:1015700090E060E070E00E94D20682E890E060E0D7
:1015800070E00E94D20683E890E060E070E00E9484
:10159000D20684E890E060E070E00E94D20685E820
:1015A00090E060E070E00E94D20680E990E060E1A7
:1015B00070E00E94D20682E990E060E076E00E944E
:1015C000D20683E990E063E070E00E94D20685E9EC
:1015D00090E060E171E00E94D20687E990E060E06F
:1015E00070E00E94D20688E990E060E070E00E941E
:1015F000D20687E090E063E371E00E94D20680E0CB
:1016000090E00E945409979A08952F923F924F922A
:101610005F926F927F928F929F92AF92BF92CF9282
:10162000DF92EF92FF920F931F93DF93CF93CDB78B
:10163000DEB7A4970FB6F894DEBF0FBECDBF988B70
:101640008F877A8B698B5A0129014801EE2009F4B2
:1016500097C18E2D853608F084E6C82EDD24B601AC
:10166000882777FD8095982F0E94081E9B01AC016A
:1016700060E070E088EC92E40E946D1D7B018C01BB
:10168000B401672F772766956695669580E090E0B0
:101690000E94061EA80197010E946D1D0E94DA1D7E
:1016A0007E836D83B40155E0660F771F5A95E1F78D
:1016B000672F77276695669580E090E00E94061E6A
:1016C000A80197010E946D1D0E94DA1D7C836B8327
:1016D0002FE182229924B40180E090E00E94061E4E
:1016E000A80197010E946D1D0E94DA1D8B0164E61E
:1016F00070E06C197D09882777FD8095982F0E94EE
:10170000081E9B01AC0160E070E088EC92E40E944E
:101710006D1D3B014C01A5018F859889481B590B14
:101720009201A989BA892A1B3B0B141615062CF4C1
:10173000E1E0F0E0FA87E9870AC04115510529F098
:101740008FEF9FEF9A87898702C01A861986121633
:1017500013062CF4A1E0B0E0B887AF830AC02115CE
:10176000310529F0EFEFFFEFF887EF8302C018860D
:101770001F822A0157FF04C050944194510853948A
:10178000590137FF04C0B094A194B108B394650126
:10179000A414B5040CF462011E861D861C861B86EB
:1017A0002224332496012F5F3F4F3E8B2D8BAB813C
:1017B000BC81CD01A0E0B0E08F8B988FA98FBA8F4C
:1017C000AD81BE81CD01A0E0B0E08B8F9C8FAD8F4D
:1017D000BE8FC801A0E0B0E08F8F98A3A9A3BAA3E1
:1017E000C7C08F85988969897A890E94C0079CA3A0
:1017F0008BA3AD85BE8512970CF491C06F89788D4F
:10180000898D9A8D0E94061E7B018C016BA17CA1A3
:1018100035E0660F771F3A95E1F7672F77276695D2
:10182000669580E090E00E94061EA40193010E944C
:101830006D1D9B01AC01C801B7010E94091D0E94EA
:10184000DA1D6B8B7C8B6B8D7C8D8D8D9E8D0E94BC
:10185000061E7B018C016BA17CA1672F7727669503
:101860006695669580E090E00E94061EA4019301B3
:101870000E946D1D9B01AC01C801B7010E94091DAA
:101880000E94DA1DCB016032710510F08FE190E00B
:10189000FC01FE2FEE27FF0FFF0FFF0FFA83E983F6
:1018A0006F8D78A189A19AA10E94061E7B018C01EF
:1018B0002BA13CA12F713070B90180E090E00E9413
:1018C000061EA40193010E946D1D9B01AC01C8017D
:1018D000B7010E94091D0E94DA1D2B893C89C901AC
:1018E0008034910510F08FE390E0AC0105E0440FE7
:1018F000551F0A95E1F789819A81482B592B9B0145
:101900006032710510F02FE130E02F713070422B02
:10191000532B8F85988969897A890E94E807AB855E
:10192000BC85A40DB51DBC87AB872A0C3B1CCA1611
:10193000DB0664F4AC19BD09BC87AB87EF85F88979
:1019400029853A85E20FF31FF88BEF87C214D30481
:1019500054F42C183D0889899A89AF81B8858A0F7B
:101960009B1F9A8B898BED85FE853196FE87ED87CF
:101970002D853E858D899E89821793070CF031CF86
:10198000A4960FB6F894DEBF0FBECDBFCF91DF9106
:101990001F910F91FF90EF90DF90CF90BF90AF908D
:1019A0009F908F907F906F905F904F903F902F907F
:1019B00008956F927F928F929F92AF92BF92CF9233
:1019C000DF92EF92FF920F931F93CF93DF937A01F1
:1019D000E90168019C013C01641A750A4B018C1AEB
:1019E0009D0A5A01A20EB31E8E01060F171FC501D4
:1019F000B801A6010E94E807EF2829F0C301B80149
:101A0000A6010E94E807CD2B29F0C501B401A6016B
:101A10000E94E807C301B401A6010E94E807DF9114
:101A2000CF911F910F91FF90EF90DF90CF90BF90DB
:101A3000AF909F908F907F906F9008952F923F92DC
:101A40004F925F926F927F928F929F92AF92BF92CE
:101A5000CF92DF92EF92FF920F931F93DF93CF937A
:101A6000CDB7DEB72A970FB6F894DEBF0FBECDBF55
:101A70008E839F836887F72E3C832B830D83882773
:101A80009927841B950B9A8389831A011A861986D4
:101A900088C09D81992309F44DC0CE80DF80260146
:101AA000E985FA854E1A5F0AA884BF2C3F01660CAF
:101AB000771CB50162197309C201A30121E030E06E
:101AC0000B811C81EE24E3940E94C208C218D30843
:101AD0004101880C991CB50149855A85641B750B19
:101AE000C601A40121E030E00B811C810E94C208E4
:101AF00069857A856A0D7B1DC601A40121E030E06D
:101B00000B811C810E94C208A20CB31CC201B5014A
:101B1000A30121E030E00B811C810E94C20880E01B
:101B200090E060E070E040E451E020EF30E00E949F
:101B300004071BC08E819F8168857F2DA1012985A7
:101B40003A850B811C810E94D90C89859A852816BB
:101B5000390659F08E819F8168857F2D49855A8588
:101B600091010B811C810E94D90C29853A852F5F38
:101B70003F4FE981FA8149855A85E40FF51FE20F4D
:101B8000F31FFA83E983F7FD0AC00894210831089E
:101B9000C101880F991FE81BF90BFA83E9833A8783
:101BA000298789859A85281639060CF072CF2A96DE
:101BB0000FB6F894DEBF0FBECDBFCF91DF911F915E
:101BC0000F91FF90EF90DF90CF90BF90AF909F90DC
:101BD0008F907F906F905F904F903F902F900895DF
:101BE000DF92EF92FF920F931F93D82E7A018B0111
:101BF00087FF0BC087E740E050E060E070E00E94A4
:101C0000F00D823098F58FE7D822C39A0E94CE1C3F
:101C1000C3980E94CE1C8D2D0E94CF1C812F992726
:101C2000AA27BB270E94CF1CC801AA27BB270E9456
:101C3000CF1CBB27A12F902F8F2D0E94CF1C8E2D44
:101C40000E94CF1C80E4D81611F485E906C088E410
:101C5000D81611F487E801C081E00E94CF1C1AE079
:101C60000E94CE1C87FF02C01150D1F71F910F9127
:101C7000FF90EF90DF900895CF92DF92EF92FF9266
:101C80000F931F93CF93DF936C0179018091C9006B
:101C900083FD07C039E0440F551F661F771F3A9533
:101CA000D1F781E50E94F00D882361F5C0E4DCE9FD
:101CB0000E94CE1C8F3F19F42197D1F723C08E3F8D
:101CC00009F5E114F10429F0E7010E94CE1C2197E7
:101CD000E1F7C114D10441F0E8010E94CE1CF601E5
:101CE00081936F012197C9F7CC27DD27CE19DF0932
:101CF000CE5FDD4FC01BD10B0E94CE1C2197E1F7B8
:101D000010E001C011E0C39A0E94CE1C812FDF9128
:101D1000CF911F910F91FF90EF90DF90CF9008959A
:101D20000F931F93CF93DF938C010097D9F0EA01B3
:101D30000FC0F80181918F010E94CF1C8091C700D4
:101D40009091C80001979093C8008093C700219795
:101D5000209709F452C08091C7009091C800892B48
:101D600041F74BC04115510561057105F9F08091AE
:101D7000C90083FD07C0E9E0440F551F661F771FA8
:101D8000EA95D1F788E50E94F00D882311F011E063
:101D900035C08FEF0E94CF1C8EEF0E94CF1C80E0D9
:101DA00092E09093C8008093C70027C0C091C700FD
:101DB000D091C800229604C080E00E94CF1C2197D9
:101DC0002097D1F70E94CE1C8F71853089F4C8E826
:101DD000D3E103C00E94C21C21970E94CE1C8F3FFA
:101DE00019F02097B9F704C0CD2B11F010E001C015
:101DF00011E0C39A0E94CE1C01C010E0812FDF9138
:101E0000CF911F910F910895CF92DF92EF92FF92A1
:101E10000F931F93DF93CF9300D000D0CDB7DEB7E1
:101E20008091C900882351F0C39908C080E090E0F8
:101E300040E050E060E070E00E94900E0E94BD1C07
:101E4000C39A1AE00E94CE1C1150E1F780E440E0F2
:101E500050E060E070E00E94F00D813009F069C050
:101E600088E44AEA51E060E070E00E94F00D8130C1
:101E7000E1F56E010894C11CD11C76018E010B5F47
:101E80001F4F0E94CE1CF70181937F01E017F107DD
:101E9000C1F78B81813009F04CC08C818A3A09F0FE
:101EA00048C000E117E206C00E94C21C0150104069
:101EB00009F43FC089EE40E050E060E070E40E9429
:101EC000F00D882389F74CC00E94CE1CF601819347
:101ED0006F01EE15FF05C1F7898186FD03C004E09F
:101EE000F02E28C01CE0F12E25C089EE40E050E025
:101EF00060E070E00E94F00D823028F0B1E4EB2E3B
:101F0000FF24F39404C0A9EEEA2EF2E0FF2E00E1D4
:101F100017E205C00E94C21C0150104051F08E2DE6
:101F200040E050E060E070E00E94F00D882391F7FF
:101F300022C0FF24F092C900C39A0E94CE1C80E008
:101F4000FF2009F481E00F900F900F900F90CF9138
:101F5000DF911F910F91FF90EF90DF90CF90089548
:101F60008AE740E050E060E070E00E94F00D8823D6
:101F700009F4AACFDECF80E540E052E060E070E0F7
:101F80000E94F00D8823A9F6D5CFCF92DF92EF9271
:101F9000FF920F931F93CF93DF936C01C091CA0000
:101FA000D091CB00FC0111821082248135814681C1
:101FB0005781213031054105510509F45BC08E81FF
:101FC0009F81A885B985281739074A075B0708F05C
:101FD00051C0211531054105510539F488818330FF
:101FE00021F42E853F8548895989F601208731875C
:101FF00042875387211531054105510581F18EEF47
:10200000E82E8FEFF82E8FEF082F8FEF182FE20EAC
:10201000F31E041F151F8E819F81A885B985029725
:10202000A109B109E816F9060A071B0728F020E004
:1020300030E040E050E017C02A8130E040E050E05E
:10204000C801B7010E94F71E9B01AC018A899B89D8
:10205000AC89BD89280F391F4A1F5B1F04C02E851C
:102060003F8548895989F6012487358746875787F0
:1020700080E001C081E0DF91CF911F910F91FF902F
:10208000EF90DF90CF9008956F927F928F929F9202
:10209000AF92BF92CF92DF92EF92FF920F931F9376
:1020A000DF93CF9300D000D0CDB7DEB74B015C01FA
:1020B0006090CA007090CB0082E088169104A10461
:1020C000B10408F4B4C0F30186819781A085B1857D
:1020D00088169906AA06BB0608F0A9C0808182303E
:1020E00009F45FC0833009F47BC0813009F09FC0E0
:1020F000C40196958795880D991D9C013170892F93
:10210000992786956C01EE24FF24F30142855385BF
:1021100064857585CE010196F1E02F3F3F0749F0B8
:10212000C40ED51EE61EF71EB701A60102E010E0A0
:102130001EC04C0D5D1D6E1D7F1D2FEF31E001E0B7
:1021400010E00E943C0E882309F071C0F301428523
:102150005385648575854F5F5F4F6F4F7F4F4C0D83
:102160005D1D6E1D7F1DCE01029620E030E00E94B5
:102170003C0E882309F05BC069817A81C4018170BB
:102180009070892B39F0A4E076956795AA95E1F7D0
:102190009B0123C09B0140E050E03F7040705070B5
:1021A0004AC077276B2D5A2D492DF30182859385DF
:1021B000A485B585480F591F6A1F7B1F9401307095
:1021C000220F331FCE01019602E010E00E943C0E68
:1021D000882369F589819A819C0140E050E02BC0F9
:1021E000B501A40127E076956795579547952A95FF
:1021F000D1F7F30182859385A485B585480F591FD2
:102200006A1F7B1F94012F773070220F331F220F1C
:10221000331FCE01019604E010E00E943C0E88239B
:1022200031F429813A814B815C815F7004C021E0E7
:1022300030E040E050E0B901CA010F900F900F90DC
:102240000F90CF91DF911F910F91FF90EF90DF9052
:10225000CF90BF90AF909F908F907F906F90089598
:10226000AF92BF92CF92DF92EF92FF920F931F93A4
:10227000CF93DF935C01C091CA00D091CB00FC01E9
:10228000C080D1800894C11CD11CC114D10409F4B0
:102290008FC0248535854685578521153105410533
:1022A000510509F485C0C6018F709070892B09F023
:1022B0007AC02F5F3F4F4F4F5F4F24873587468748
:1022C00057874085518562857385411551056105A4
:1022D000710539F48C819D81C816D90608F463C054
:1022E00067C08A8190E001979601E4E036952795D2
:1022F000EA95E1F782239323892B09F054C0CB019F
:10230000BA010E9444109B01AC0162307105810545
:10231000910510F481E04DC08E819F81A885B9851B
:10232000281739074A075B0708F042C0F5012087E4
:10233000318742875387C091CA00D091CB008EEF7E
:10234000E82E8FEFF82E8FEF082F8FEF182FE20E69
:10235000F31E041F151F8E819F81A885B9850297E2
:10236000A109B109E816F9060A071B0728F020E0C1
:1023700030E040E050E012C02A8130E040E050E020
:10238000C801B7010E94F71E9B01AC018A899B8995
:10239000AC89BD89280F391F4A1F5B1FF5012487AF
:1023A000358746875787F501D182C08280E001C01A
:1023B00083E0DF91CF911F910F91FF90EF90DF901D
:1023C000CF90BF90AF9008952F923F924F925F921F
:1023D0006F927F928F929F92AF92BF92CF92DF9235
:1023E000EF92FF920F931F93CF93DF93E82FC0914B
:1023F000CA00D091CB00209711F486E002C18981F8
:1024000080FD02C085E0FDC0EA8CFB8C0C8D1D8D2B
:102410004E2F592FCB01DA013C014D01E614F70490
:102420000805190510F437014801EE88FF88088D6A
:10243000198D1E8A1F8A188E198E611471048104E9
:10244000910409F4DAC08A81A82EBB24CC24DD24AF
:10245000B9E0AA0CBB1CCC1CDD1CBA95D1F7E11469
:10246000F10401051105B1F11701280108942108B3
:10247000310841085108C401B301615070408040E7
:102480009040A60195010E94291F79018A01C2018D
:10249000B101A60195010E94291FE216F306040767
:1024A0001507C0F088279927DC018A199B09AC0918
:1024B000BD0982219321A421B5218E8B9F8BA88FEA
:1024C000B98F681A790A8A0A9B0A2AA13BA14CA1F2
:1024D0005DA133C02E8D3F8D48A159A12AA33BA3F6
:1024E0004CA35DA32AC0CA01B9010E9444109B01FC
:1024F000AC01623071058105910508F480C08E81C0
:102500009F81A885B985281739074A075B0708F016
:1025100076C02AA33BA34CA35DA38E899F89A88D77
:10252000B98D8A0D9B1DAC1DBD1D8E8B9F8BA88FF9
:10253000B98F6A187B088C089D08A614B704C804D4
:10254000D90488F2EE88FF88088D198DE60CF71CF7
:10255000081D191DEE8AFF8A088F198F8090CA0006
:102560009090CB00AEEFAA2EAFEFBA2EAFEFCA2EEF
:10257000AFEFDA2EA20EB31EC41ED51EF401868163
:102580009781A085B1850297A109B109A816B9065E
:10259000CA06DB06A0F5228130E040E050E0C6012B
:1025A000B5010E94F71E9B01AC01F4018289938959
:1025B000A489B589280F391F4A1F5B1F21153105D2
:1025C00041055105E1F0F9E016950795F794E79478
:1025D000FA95D1F78A8190E00197AA2797FDA095F7
:1025E000BA2FE822F9220A231B232E0D3F1D401F7C
:1025F000511F2EA33FA348A759A780E002C019820C
:1026000081E0DF91CF911F910F91FF90EF90DF90CC
:10261000CF90BF90AF909F908F907F906F905F9082
:102620004F903F902F900895AF92BF92CF92DF923C
:10263000EF92FF920F931F93DF93CF93CDB7DEB747
:10264000AC970FB6F894DEBF0FBECDBF7C016B0117
:102650008091CA009091CB00892B11F486E0B0C024
:10266000CE010196D70113969C938E931297611514
:10267000710539F083E00DE0A02EB12CAC0EBD1E2B
:1026800028C0C7010E94C50F9BC0F701208131817E
:102690002F70307015E0220F331F1A95E1F7C50136
:1026A00000E210E00E943C0E882311F081E01FC080
:1026B0009D85992309F495C0888D953E29F09E3219
:1026C00019F08F7383FF1DC0C7010E94301188234A
:1026D00071F4D7011C964D915D916D917C911F977E
:1026E000411551056105710581F6882351F0F70107
:1026F0001486158616861786833019F0882309F00C
:102700005FC09601275F3F4FF70184859585A685B9
:10271000B7850097A105B10509F443C0FE013D96B8
:10272000AE014B5E5F4F8081803251F0853009F4FD
:1027300085EED9018D939D013196E417F50799F740
:102740008D89803299F08EE2F90181939F01FE011B
:102750007596AE01485E5F4F8081803239F0D901B5
:102760008D939D013196E417F507B1F7888DF60139
:102770008087FE013D96448D558D668D778DD601FF
:102780004D935D936D937C931397808D918D1596EA
:102790009C938E9314978689978917969C938E9312
:1027A0001697F9011082C7010E943011833041F45D
:1027B000D7011C961D921D921D921C921F9780E0BE
:1027C000AC960FB6F894DEBF0FBECDBFCF91DF91B0
:1027D0001F910F91FF90EF90DF90CF90BF90AF903F
:1027E000089583E084CF6F927F928F929F92AF92F1
:1027F000BF92CF92DF92EF92FF920F931F93CF93EE
:10280000DF93EC016B017A0103C00894E11CF11C19
:10281000F70180818032C9F38F3219F40894E11CEA
:10282000F11C1C821D821E821F82F7018081813271
:1028300038F4CE010E94C50FB82EF6011082A5C053
:10284000A0E26A2E77247394FBE08F2E912C8C0CDF
:102850009D1CAA81BB81FD018BE090E001C06192CB
:1028600001972FEF8F3F9207D1F720E0AA2438E09D
:1028700002C028E03BE0F701EA0DF11D9081A3942E
:102880009132B0F09F32A1F09E3211F0231728F060
:10289000383071F49E3269F30BC0892F81568A312A
:1028A00008F49052FD01E20FF11D90832F5FE3CFFA
:1028B0001B961C921B97913210F41B967C92CE01B2
:1028C0000E94C50FB82E8823D1F54C855D856E8595
:1028D0007F85288139812F703070E5E0220F331F0A
:1028E000EA95E1F7C60100E210E00E943C0E882361
:1028F00011F081E023C0F6018081882309F455C0DE
:10290000F401808183FD15C0D6018A819B819C01E1
:10291000F9012BE030E0215030408FEF2F3F380796
:1029200009F446C09C918081981719F4119631964C
:10293000F2CFCE010E943011882339F2B82EE3E0A5
:10294000BE1619F5EA81FB8183858823E1F01DC05D
:10295000F401808184FF17C0EA0CF11CF601848920
:102960009589A0E0B0E0DC0199278827228D338D7E
:1029700040E050E0822B932BA42BB52B8C839D83BE
:10298000AE83BF8366CF94E0B92E8B2DDF91CF91BC
:102990001F910F91FF90EF90DF90CF90BF90AF907D
:1029A0009F908F907F906F90089583E0B82ECACF4C
:1029B000EA81FB818385882359F2E7CFEF92FF926A
:1029C0000F931F93DF93CF93CDB7DEB7AC970FB6BE
:1029D000F894DEBF0FBECDBF8C01AB018091CA0061
:1029E0009091CB00892B11F486E031C0CE01019685
:1029F000F801938382833DE0E32EF12CEC0EFD1E63
:102A0000C801B7010E94F3138823F1F48D85882350
:102A1000C1F0888D84FF1AC0F70184899589A0E0F0
:102A2000B0E0DC0199278827228D338D40E050E00B
:102A3000822B932BA42BB52BF80184839583A6833B
:102A4000B783C8010E94C50F833009F484E0AC96B7
:102A50000FB6F894DEBF0FBECDBFCF91DF911F91AF
:102A60000F91FF90EF900895EF92FF920F931F93B5
:102A7000DF93CF93CDB7DEB7EC970FB6F894DEBFF8
:102A80000FBECDBFAC010091CA001091CB00011563
:102A9000110511F466E040C0F8011182CE010196E3
:102AA000988B8F876DE1E62EF12CEC0EFD1ECE018A
:102AB0000D96B7010E94F313682F882369F58D8D59
:102AC000882349F188A584FD26C0F701848995896A
:102AD000A0E0B0E0DC0199278827228D338D40E00B
:102AE00050E0822B932BA42BB52BF801868F978F68
:102AF000A0A3B1A3F701848D958DA68DB78DF801A4
:102B0000828F938FA48FB58F168A178A108E118E9D
:102B100081E0818301C063E0862FEC960FB6F894C4
:102B2000DEBF0FBECDBFCF91DF911F910F91FF9000
:102B3000EF9008954F925F926F927F928F929F9243
:102B4000AF92BF92CF92DF92EF92FF920F931F93BB
:102B5000CF93DF933C016B014A01C091CA00D09131
:102B6000CB00FA0111821082209711F486E0CAC0CE
:102B7000898180FD02C085E0C5C02A8D3B8D4C8DCA
:102B80005D8D8E899F89A88DB98D281B390B4A0BC5
:102B90005B0BCB01A0E0B0E0281739074A075B07C1
:102BA00008F469015301412CE2E05E2EA3C02E8996
:102BB0003F89488D598DDA01C9019170A070B070BC
:102BC0000097A105B10509F060C0DA01C90179E0FB
:102BD000B695A795979587957A95D1F7FA80FA9447
:102BE000F822D1F4211531054105510529F46E8DE6
:102BF0007F8D88A199A106C06AA17BA18CA19DA10E
:102C00000E944410623071058105910508F478C076
:102C10006AA37BA38CA39DA30091CA001091CB0053
:102C20002AA13BA14CA15DA1225030404040504020
:102C3000F80186819781A085B1850297A109B10924
:102C4000281739074A075B0708F05AC0628170E00D
:102C500080E090E00E94F71E9B01AC01F8018289A0
:102C60009389A489B589280F391F4A1F5B1F211535
:102C700031054105510509F443C02F0D311D411D9A
:102C8000511D2EA33FA348A759A72E893F89317014
:102C9000C201821B930B76018C159D0508F47C0103
:102CA0006114710419F480E090E001C0C5014EA1E7
:102CB0005FA168A579A587010E943C0E882301F5D4
:102CC000C701A0E0B0E02E893F89488D598D280FBB
:102CD000391F4A1F5B1F2E8B3F8B488F598FAE0CBD
:102CE000BF1CCE18DF08F401808191818E0D9F1DDD
:102CF00091838083C114D10409F059CF80E002C0D0
:102D0000198281E0DF91CF911F910F91FF90EF9099
:102D1000DF90CF90BF90AF909F908F907F906F90FB
:102D20005F904F900895AF92BF92CF92DF92EF9253
:102D3000FF920F931F93CF93DF93B82EA92E6A01B2
:102D40007B012EEF31E002E010E00E943C0E882370
:102D500011F023E033C0CB2DDA2D88819981855580
:102D60009A4A11F022E02AC08B2D9A2DB701A601B4
:102D700026E330E002E010E00E943C0E882339F4A4
:102D8000888199818654914411F420E017C08B2DDD
:102D90009A2DB701A60122E530E002E010E00E9482
:102DA0003C0E882311F021E009C020E08881998140
:102DB0008654914409F421E081E02827822FDF9195
:102DC000CF911F910F91FF90EF90DF90CF90BF9028
:102DD000AF9008954F925F926F927F928F929F92E1
:102DE000AF92BF92CF92DF92EF92FF920F931F9319
:102DF000CF93DF93FC015B013A01C091CA00D091EF
:102E0000CB00DA011D921C92209711F486E0FDC0E0
:102E1000898190E080FD02C085E0F7C080749070E9
:102E20006115710589F4892B59F080E090E040E04C
:102E300050E060E070E00E94900E882309F0E3C04B
:102E400089818F7B8983DDC0892B51F48E899F898D
:102E5000A88DB98D80709E7F8E8B9F8BA88FB98F28
:102E60002A8D3B8D4C8D5D8D8E899F89A88DB98D66
:102E7000281B390B4A0B5B0BC501A0E0B0E02817FB
:102E800039074A075B0708F459014F01412CA2E0BA
:102E90005A2EB3C02E893F89488D598DC901917032
:102EA000892B09F06CC0DA01C901F9E0B695A79544
:102EB00097958795FA95D1F7FA80FA94F822D1F48C
:102EC000211531054105510529F46E8D7F8D88A1AD
:102ED00099A106C06AA17BA18CA19DA10E9444106A
:102EE000623071058105910508F48DC06AA37BA34A
:102EF0008CA39DA30091CA001091CB002AA13BA1F5
:102F00004CA15DA12250304040405040F8018681E4
:102F10009781A085B1850297A109B10928173907C2
:102F20004A075B0708F06FC0628170E080E090E0C4
:102F30000E94F71E9B01AC01F80182899389A48944
:102F4000B589280F391F4A1F5B1F2115310541051F
:102F5000510509F458C0BA01A9014F0D511D611D59
:102F6000711D4EA35FA368A779A780E090E00E943F
:102F7000900E882309F047C08981806489838E89F7
:102F80009F8991709201281B390B65012A153B0519
:102F900008F46901760100E010E0C401B801A7015E
:102FA0000E94900E882379F58E899F89A88DB98D0E
:102FB0008E0D9F1DA01FB11F9C018E8B9F8BA88F14
:102FC000B98FD3018D919C9111978C0D9D1D8D937F
:102FD0009C933170232B69F480E090E040E050E056
:102FE00060E070E00E94900E882369F489818F7BF5
:102FF00089838C0C9D1CAC18BD08A114B10409F088
:1030000049CF80E002C0198281E0DF91CF911F910A
:103010000F91FF90EF90DF90CF90BF90AF909F9077
:103020008F907F906F905F904F9008956F927F92F6
:103030008F929F92AF92BF92CF92DF92EF92FF92C8
:103040000F931F93DF93CF93CDB7DEB7A4970FB63F
:10305000F894DEBF0FBECDBF5C011092CB00109282
:10306000CA00009709F4ECC00E94040F80FF02C060
:1030700082E0EBC04E010894811C911CC40140E029
:1030800050E060E070E00E949316813021F0CC2483
:10309000DD2476011BC0C40140E050E060E070E038
:1030A0002EEB31E000E110E00E943C0E882309F095
:1030B000C9C08D81882309F4C7C0C984DA84EB8430
:1030C000FC84C401B701A6010E949316833009F461
:1030D000B9C0882309F0B8C0CE010196B701A60196
:1030E0002DE030E004E210E00E943C0E882309F05D
:1030F000A9C08A859B85BC0180E090E061157105BF
:103100008105910521F4688D798D8A8D9B8D2C81A7
:1031100030E040E050E00E94F71E3B014C018A8104
:103120009B81A0E0B0E0C80ED91EEA1EFB1EF5018F
:10313000C286D386E486F586898182832D813E818D
:10314000358324838F8198857C0100E010E0E114B1
:10315000F1040105110521F4EC88FD880E891F8911
:103160008A819B81A0E0B0E0E81AF90A0A0B1B0BE8
:10317000E618F7080809190984E0369527958A9515
:10318000E1F7C901A0E0B0E0E81AF90A0A0B1B0B4D
:10319000F501228130E040E050E0C801B7010E9413
:1031A000291F2E5F3F4F4F4F5F4FF5012683378317
:1031B00040875187273FFFE03F07F0E04F07F0E0EF
:1031C0005F0710F481E001C082E0275F3F4F40407D
:1031D000504008F083E0F5018083833029F488A112
:1031E00099A1AAA1BBA109C0F50182859385A485F7
:1031F000B585860D971DA81DB91D86879787A08B5D
:10320000B18BF50184819581B4E096958795BA9547
:10321000E1F7A0E0B0E02285338544855585820F33
:10322000931FA41FB51F860D971DA81DB91D828B66
:10323000938BA48BB58B1182B092CB00A092CA0065
:1032400080E003C081E001C087E0A4960FB6F89447
:10325000DEBF0FBECDBFCF91DF911F910F91FF90C9
:10326000EF90DF90CF90BF90AF909F908F907F9026
:103270006F900895C49ABC9ABF9ABD9AC69A80E589
:103280008DB9689A81E08EB98EB18B989398089524
:103290004F925F926F927F928F929F92AF92BF9266
:1032A000CF92DF92EF92FF920F931F93FC01DB010D
:1032B000C49883E98FB9779BFECF8FB11FB8779BF6
:1032C000FECF9FB183ED8FB9779BFECF2FB11FB893
:1032D000779BFECF4FB183EB8FB9779BFECF6FB15A
:1032E0001FB8779BFECFAFB082EC8FB9779BFECF34
:1032F0005FB01FB8779BFECFCFB01FB8779BFECFD4
:10330000EFB0C49A26952695269530E0892F90E057
:1033100055E0880F991F5A95E1F7282B392B3183F7
:10332000208366956695669570E0242F30E045E031
:10333000220F331F4A95E1F7622B732B6D937C9319
:10334000BB2495E0AA0CBB1C9A95E1F7DD2485E02F
:10335000CC0CDD1C8A95E1F74424882777FD809505
:10336000982F0E94081E20E030E040E859E30E94B8
:10337000941E3B014C01E694E694E694FF24EC286D
:10338000FD280027F7FC0095102FC801B7010E9407
:10339000081E7B018C01569456945694652D70E05E
:1033A0006A297B29882777FD8095982F0E94081E1F
:1033B0009B01AC01C801B7010E946D1D20E030E007
:1033C00040E85FE30E94081D9B01AC01C401B3010A
:1033D0000E94941E20E030E040E251E40E94941EDE
:1033E0000E94D51D6B5070406831710510F4442463
:1033F0004394842D1F910F91FF90EF90DF90CF9019
:10340000BF90AF909F908F907F906F905F904F9004
:1034100008952F923F924F925F926F927F928F9278
:103420009F92AF92BF92CF92DF92EF92FF920F9353
:103430001F93DF93CF93CDB7DEB72A970FB6F894DB
:10344000DEBF0FBECDBF98878F837A8769871E82C4
:103450001D82AA24BB24650166247724430122240B
:103460002A94322C442455240FEF1FEFEE24FF241E
:10347000CE010196BE016D5F7F4F0E9448198823DF
:1034800049F129813A81C901AA2797FDA095BA2F50
:10349000A80EB91ECA1EDB1E4B815C81CA01AA2779
:1034A00097FDA095BA2F680E791E8A1E9B1E8D81EE
:1034B0008F5F8D834216530608F4290122153305C8
:1034C00008F41901CA01E416F50608F47A01401758
:1034D000510708F0C801EE81EF5FEE83EC3011F088
:1034E0008C01C6CFFD81F53048F1920122193309D4
:1034F000A701481B590BCA014217530708F4C90119
:1035000089379105D8F45D81E52EFF2400E010E0B5
:10351000C601B501A80197010E944B1FEF81F885F4
:1035200031832083C401B301A80197010E944B1F7E
:10353000E985FA853183208381E001C080E02A9605
:103540000FB6F894DEBF0FBECDBFCF91DF911F91B4
:103550000F91FF90EF90DF90CF90BF90AF909F9032
:103560008F907F906F905F904F903F902F90089535
:10357000AF92BF92CF92DF92EF92FF920F931F9381
:10358000DF93CF9300D000D0CDB7DEB76C015B01E5
:10359000CE010196BE016D5F7F4F0E94091A8823FC
:1035A00009F45BC069817A812091B5003091B60041
:1035B000621B730B882777FD8095982F0E94081E49
:1035C0007B018C016091B7007091B800882777FD6E
:1035D0008095982F0E94081E9B01AC01C801B7017D
:1035E0000E946D1D20E030E040EA53E40E94941EEA
:1035F0000E94D51D20E431E0261B370BF6013183F4
:1036000020836B817C812091B9003091BA00621BCC
:10361000730B882777FD8095982F0E94081E7B01E9
:103620008C016091BB007091BC00882777FD80956C
:10363000982F0E94081E9B01AC01C801B7010E948F
:103640006D1D20E030E040E753E40E94941E0E948C
:10365000D51DF5017183608381E00F900F900F906D
:103660000F90CF91DF911F910F91FF90EF90DF901E
:10367000CF90BF90AF9008958FB9779BFECF8FB159
:103680000895EF92FF920F931F93DF93CF93CDB7DF
:10369000DEB7C856D0400FB6F894DEBF0FBECDBF20
:1036A00080E090E00E9454090E943A1980E290E084
:1036B00068E170E04AE050E02FEF3FEF00E00E9449
:1036C0001E0D80E290E068E170E045E050E02FEFF1
:1036D0003FEF0E941E0D80E290E068E170E04FEF46
:1036E0005FEF0E94E8078399FECF93E0E92EF12C6B
:1036F000EC0EFD1E8E010F5F1F4FC801B7010E9427
:10370000091A8823D1F389819A819093B600809316
:10371000B5008B819C819093BA008093B900839B04
:10372000FECF80E090E00E94540980E291E068E7DB
:1037300070E04AE050E02FEF3FEF00E00E941E0DE6
:1037400080E291E068E770E045E050E02FEF3FEF66
:103750000E941E0D80E291E068E770E04FEF5FEF9E
:103760000E94E8078399FECF83E0E82EF12CEC0E4F
:10377000FD1E8E010F5F1F4FC801B7010E94091A7D
:103780008823D1F3E981FA818091B5009091B60048
:103790008E1B9F0B68E070E00E94161F9B01220F9A
:1037A000331FAB0113E0440F551F1A95E1F7240FA7
:1037B000351F3093B8002093B700E61BF70BF0934A
:1037C000B600E093B500839BFECF80E090E00E94BE
:1037D000540980EA90E068ED70E04AE050E02FEF95
:1037E0003FEF00E00E941E0D80EA90E068ED70E07F
:1037F00045E050E02FEF3FEF0E941E0D80EA90E081
:1038000068ED70E04FEF5FEF0E94E8078399FECF0D
:10381000B3E0EB2EF12CEC0EFD1E8E010F5F1F4F5F
:10382000C801B7010E94091A8823D1F3E091B900B9
:10383000F091BA008B819C818E1B9F0B68E070E039
:103840000E94161FAB01CB01880F991F9B0173E0EB
:10385000220F331F7A95E1F7820F931F9093BC00DC
:103860008093BB00E41BF50BF093BA00E093B90022
:10387000839BFECF5C834B8380E090E00E945409E1
:103880008DB79EB708970FB6F8949EBF0FBE8DBF39
:10389000EDB7FEB7319665E0E62EF12CEC0EFD1E7D
:1038A000ADB7BEB71296FC92EE9211978FE790E0FB
:1038B000938382838091B5009091B6009583848331
:1038C0008091B7009091B800978386830E94E21F91
:1038D0008DB79EB708960FB6F8949EBF0FBE8DBFEA
:1038E0008AE090E068EC70E0A70120EE3FEF00E096
:1038F00010E00E948907ADB7BEB718970FB6F894CD
:10390000BEBF0FBEADBFEDB7FEB731961296FC92AB
:10391000EE9211978AE990E0938382838091B900B7
:103920009091BA00958384838091BB009091BC00F4
:10393000978386830E94E21F8DB79EB708960FB6C5
:10394000F8949EBF0FBE8DBF8AE090E06CED70E0F2
:10395000A70120EE3FEF0E9489078399FECFC85947
:10396000DF4F0FB6F894DEBF0FBECDBFCF91DF9112
:103970001F910F91FF90EF900895B89ABA9AB99A53
:10398000C39A089580E531973197319700008A9561
:10399000D1F7089502D0C09801C0C09A8FEF98E087
:1039A00087FDC29A87FFC298880FB3998395C19A01
:1039B000C1989A95A9F70895FB0183E08093570079
:1039C000E8958091570080FDFCCF81E180935700FE
:1039D000E89508950F921F92FB01DA0190E40D9093
:1039E0001D9081E080935700E89532969A95B9F73B
:1039F000FB0185E080935700E8958091570080FD9A
:103A0000FCCF81E180935700E8951F900F900895B7
:103A10005058BB27AA270ED04DC13ED130F043D11C
:103A200020F031F49F3F11F41EF433C10EF4E09501
:103A3000E7FB29C1E92F4FD180F3BA17620773075B
:103A40008407950718F071F49EF567C10EF4E095B0
:103A50000B2EBA2FA02D0B01B90190010C01CA0148
:103A6000A0011124FF27591B99F0593F50F4503EF3
:103A700068F11A16F040A22F232F342F4427585FE5
:103A8000F3CF469537952795A795F0405395C9F7FD
:103A90007EF41F16BA0B620B730B840BBAF09150B5
:103AA000A1F0FF0FBB1F661F771F881FC2F70EC054
:103AB000BA0F621F731F841F48F487957795679527
:103AC000B795F7959E3F08F0B3CF9395880F08F010
:103AD0009927EE0F9795879508950CD0EBC0E3D00A
:103AE00040F0DAD030F021F45F3F19F0CCC0511132
:103AF00015C1CFC0F0D098F39923C9F35523B1F382
:103B0000951B550BBB27AA2762177307840738F04C
:103B10009F5F5F4F220F331F441FAA1FA9F333D0AB
:103B20000E2E3AF0E0E830D091505040E695001C5F
:103B3000CAF729D0FE2F27D0660F771F881FBB1F1B
:103B4000261737074807AB07B0E809F0BB0B802DF5
:103B5000BF01FF2793585F4F2AF09E3F510568F041
:103B600092C0DCC05F3FECF3983EDCF3869577951E
:103B70006795B795F7959F5FC9F7880F911D969543
:103B8000879597F90895E1E0660F771F881FBB1F9F
:103B9000621773078407BA0720F0621B730B840B4C
:103BA000BA0BEE1F88F7E095089504D06894B11120
:103BB000B5C0089598D088F09F5790F0B92F9927F5
:103BC000B751A0F0D1F0660F771F881F991F1AF028
:103BD000BA95C9F712C0B13081F09FD0B1E0089515
:103BE0009CC0672F782F8827B85F39F0B93FCCF396
:103BF000869577956795B395D9F73EF4909580951E
:103C0000709561957F4F8F4F9F4F0895E89409C03D
:103C100097FB3EF490958095709561957F4F8F4FFF
:103C20009F4F9923A9F0F92F96E9BB279395F69515
:103C3000879577956795B795F111F8CFFAF4BB0F93
:103C400011F460FF1BC06F5F7F4F8F4F9F4F16C0F7
:103C5000882311F096E911C0772321F09EE8872F81
:103C6000762F05C0662371F096E8862F70E060E03D
:103C70002AF09A95660F771F881FDAF7880F9695B6
:103C8000879597F9089597F99F6780E870E060E05D
:103C900008959FEF80EC089500240A9416161706E5
:103CA00018060906089500240A941216130614062D
:103CB00005060895092E0394000C11F4882352F090
:103CC000BB0F40F4BF2B11F460FF04C06F5F7F4F48
:103CD0008F4F9F4F089557FD9058440F551F59F02F
:103CE0005F3F71F04795880F97FB991F61F09F3FE9
:103CF00079F087950895121613061406551FF2CF12
:103D00004695F1DF08C0161617061806991FF1CF61
:103D100086957105610508940895E894BB27662788
:103D20007727CB0197F908950BD0C4CFB5DF28F0E2
:103D3000BADF18F0952309F0A6CFABCF1124EECF50
:103D4000CADFA0F3959FD1F3950F50E0551F629FF6
:103D5000F001729FBB27F00DB11D639FAA27F00DE4
:103D6000B11DAA1F649F6627B00DA11D661F829F0B
:103D70002227B00DA11D621F739FB00DA11D621FF0
:103D8000839FA00D611D221F749F3327A00D611D0D
:103D9000231F849F600D211D822F762F6A2F1124EF
:103DA0009F5750408AF0E1F088234AF0EE0FFF1F42
:103DB000BB1F661F771F881F91505040A9F79E3F79
:103DC000510570F060CFAACF5F3FECF3983EDCF373
:103DD000869577956795B795F795E7959F5FC1F7B6
:103DE000FE2B880F911D9695879597F90895629FF0
:103DF000D001739FF001829FE00DF11D649FE00DE3
:103E0000F11D929FF00D839FF00D749FF00D659F43
:103E1000F00D9927729FB00DE11DF91F639FB00D42
:103E2000E11DF91FBD01CF011124089597FB092E53
:103E300007260AD077FD04D049D006D000201AF416
:103E4000709561957F4F0895F6F7909581959F4FF6
:103E50000895A1E21A2EAA1BBB1BFD010DC0AA1FCB
:103E6000BB1FEE1FFF1FA217B307E407F50720F0E3
:103E7000A21BB30BE40BF50B661F771F881F991F5E
:103E80001A9469F760957095809590959B01AC01A7
:103E9000BD01CF01089597FB092E05260ED057FDD1
:103EA00004D0D7DF0AD0001C38F4509540953095E7
:103EB00021953F4F4F4F5F4F0895F6F790958095AE
:103EC000709561957F4F8F4F9F4F0895AA1BBB1B25
:103ED00051E107C0AA1FBB1FA617B70710F0A61B0A
:103EE000B70B881F991F5A95A9F780959095BC012B
:103EF000CD010895A0E0B0E0E0E8FFE10C948B2252
:103F0000EC01A880B980CA80DB80A114B104C1048F
:103F1000D10441F484E2A82E89EDB82E8BE5C82E99
:103F200087E0D82EC601B5012DE133EF41E050E026
:103F30000E944B1F27EA31E440E050E00E94F71E48
:103F40007B018C01C601B5012DE133EF41E050E06A
:103F50000E944B1FCA01B9012CEE34EF4FEF5FEF07
:103F60000E94F71E6E0D7F1D801F911F97FF04C0DA
:103F70006150704080409048688379838A839B8336
:103F80009B013F77C901CDB7DEB7EAE00C94A722C9
:103F90000E947A1F08958DEB90E00E947A1F089589
:103FA000A0E0B0E08093BD009093BE00A093BF005E
:103FB000B093C0000895FB01DC0101900D92002038
:103FC000E1F70895AEE0B0E0E8EEFFE10C94912255
:103FD0000D891E8986E08C831A8309838FEF9FE702
:103FE0009E838D839E01275E3F4FCE0101966F8990
:103FF000788DA9010E9406202F813885020F131F9A
:10400000F80110822E96E4E00C94AD22ABE0B0E013
:10401000ECE0F0E20C9483223C012B015A01FC01FC
:1040200017821682838181FD03C06FEF7FEFC6C1C7
:104030009AE0892E1E010894211C311CF301238172
:10404000F20123FD859123FF81912F01882309F43B
:10405000B2C1853239F423FD859123FF81912F016F
:10406000853229F490E0B3010E94F921E7CF982F1F
:10407000FF24EE249924FFE1FF15D0F09B3269F074
:104080009C3228F4903259F0933291F40EC09D3254
:1040900049F0903369F441E024C052E0F52A84E00D
:1040A000F82A28C098E0F92A25C0E0E1FE2A22C0BB
:1040B000F7FC29C0892F80538A3070F4F6FE05C0C2
:1040C000989C902C1124980E15C0E89CE02C11248B
:1040D000E80EF0E2FF2A0EC09E3229F4F6FC6BC116
:1040E00040E4F42A07C09C3619F450E8F52A02C0CF
:1040F000983649F4F20123FD959123FF91912F0108
:10410000992309F0B8CF892F8554833018F0805255
:10411000833038F444E050E0A40EB51E5FE35983C9
:104120000FC0933631F0933779F0933509F056C0CC
:1041300020C0F5018081898342E050E0A40EB51EC5
:10414000610101E010E012C0F501C080D180F6FCF1
:1041500003C06FEF7FEF02C0692D70E042E050E0D6
:10416000A40EB51EC6010E94EE218C015FE7F52268
:1041700014C0F501C080D180F6FC03C06FEF7FEF63
:1041800002C0692D70E042E050E0A40EB51EC601E9
:104190000E94E3218C0150E8F52AF3FE07C01AC003
:1041A00080E290E0B3010E94F921EA948E2D90E024
:1041B00008171907A8F30EC0F601F7FC8591F7FE62
:1041C00081916F0190E0B3010E94F921E110EA941E
:1041D000015010400115110579F7EAC0943611F02D
:1041E000993669F5F7FE08C0F501208131814281D9
:1041F000538184E090E00AC0F501808191819C01A7
:10420000442737FD4095542F82E090E0A80EB91E58
:104210009FE6F92257FF09C05095409530952195AA
:104220003F4F4F4F5F4FE0E8FE2ACA01B901A1019D
:104230002AE030E00E942522D82ED21840C09537BF
:1042400029F41F2D1F7E2AE030E01DC01F2D197F8D
:104250009F3661F0903720F4983509F0ACC00FC05C
:10426000903739F0983709F0A6C004C028E030E054
:104270000AC0106114FD146020E130E004C014FD98
:10428000166020E132E017FF08C0F50160817181FE
:104290008281938144E050E008C0F50180819181E2
:1042A000BC0180E090E042E050E0A40EB51EA10108
:1042B0000E942522D82ED2188FE7F82EF122F6FE82
:1042C0000BC05EEFF522D91438F4F4FE07C0F2FCFF
:1042D00005C08FEEF82202C01D2D01C0192DF4FE7D
:1042E0000DC0FE01ED0DF11D8081803319F499EEB2
:1042F000F92208C01F5FF2FE05C003C08F2D86782B
:1043000009F01F5F0F2DF3FC14C0F0FE0FC01E1547
:1043100010F09D2C0BC09D2C9E0C911A1E2D06C0DA
:1043200080E290E0B3010E94F9211F5F1E15C0F3E7
:1043300004C01E1510F4E11A01C0EE2404FF0FC0E2
:1043400080E390E0B3010E94F92102FF1DC001FD4E
:1043500003C088E790E00EC088E590E00BC0802F96
:10436000867891F001FF02C08BE201C080E2F7FC89
:104370008DE290E0B3010E94F92106C080E390E055
:10438000B3010E94F9219A94D914C0F3DA94F1018F
:10439000ED0DF11D808190E0B3010E94F921DD2037
:1043A000A9F706C080E290E0B3010E94F921EA94E7
:1043B000EE20C1F743CEF30166817781CB012B96C6
:1043C000E2E10C949F22FC010590615070400110C5
:1043D000D8F7809590958E0F9F1F0895FC0161502E
:1043E000704001900110D8F7809590958E0F9F1F17
:1043F00008950F931F93CF93DF938C01EB018B8173
:1044000081FF1BC082FF0DC02E813F818C819D8169
:104410002817390764F4E881F9810193F983E88367
:1044200006C0E885F985802F0995892B31F48E81A6
:104430009F8101969F838E8302C00FEF1FEFC801FB
:10444000DF91CF911F910F910895FA01AA2728308B
:1044500051F1203181F1E8946F936E7F6E5F7F4F51
:104460008F4F9F4FAF4FB1E03ED0B4E03CD0670FCD
:10447000781F891F9A1FA11D680F791F8A1F911D20
:10448000A11D6A0F711D811D911DA11D20D009F470
:1044900068943F912AE0269F11243019305D3193B2
:1044A000DEF6CF010895462F4770405D4193B3E09B
:1044B0000FD0C9F7F6CF462F4F70405D4A3318F042
:1044C000495D31FD4052419302D0A9F7EACFB4E0F3
:1044D000A6959795879577956795BA95C9F70097AB
:1044E0006105710508959B01AC010A2E069457954C
:1044F000479537952795BA95C9F7620F731F841FA3
:10450000951FA01D08952F923F924F925F926F9238
:104510007F928F929F92AF92BF92CF92DF92EF9253
:10452000FF920F931F93CF93DF93CDB7DEB7CA1BD4
:10453000DB0B0FB6F894DEBF0FBECDBF09942A88FF
:10454000398848885F846E847D848C849B84AA84A7
:10455000B984C884DF80EE80FD800C811B81AA8134
:10456000B981CE0FD11D0FB6F894DEBF0FBECDBFFF
:08457000ED010895F894FFCF5E
:10457800204E65776D616E277320746F75636820B0
:10458800636972636C65732E2E2000FFFF0A017841
:104598002E2E2E20302025253A202564202031304B
:1045A800302025253A2025642000792E2E2E203013
:1045B8002025253A20256420203130302025253A31
:1045C80020256420008200100E0E01CA0D01000093
:0245D8000000E1
:00000001FF
