:100000000C9422030C943F030C943F030C943F0385
:100010000C943F030C943F030C943F030C943F0358
:100020000C943F030C943F030C943F030C943F0348
:100030000C943F030C943F030C943F030C943F0338
:100040000C943F030C943F030C943F030C943F0328
:100050000C943F03000000000000000000000000BE
:100060000000000000000000183C3C3C181800187C
:100070001800000000000000666666000000000036
:10008000000000000000000036367F3636367F362E
:1000900036000000000018183C666030180C066638
:1000A0003C18180000000070D8DA760C18306E5B2F
:1000B0001B0E000000000000386C6C38606F666634
:1000C0003B000000000000001818180000000000AD
:1000D00000000000000000000C18183030303030F4
:1000E00018180C00000000003018180C0C0C0C0C38
:1000F00018183000000000000000361C7F1C36007D
:100100000000000000000000000018187E18180011
:1001100000000000000000000000000000001C1CA7
:100120000C180000000000000000007E000000002D
:1001300000000000000000000000000000001C1C87
:100140000000000000000006060C0C18183030609B
:10015000600000000000001E333737333B3B331E86
:10016000000000000000000C1C7C0C0C0C0C0C0CA3
:10017000000000000000003C6666060C1830607E3F
:10018000000000000000003C6666061C0666663C37
:10019000000000000000003030363636667F06066C
:1001A000000000000000007E6060607C06060C78A5
:1001B000000000000000001C18307C666666663C8B
:1001C000000000000000007E060C0C1818303030D3
:1001D000000000000000003C6666763C6E66663CEF
:1001E000000000000000003C666666663E0C1838A1
:1001F0000000000000000000001C1C0000001C1C8F
:100200000000000000000000001C1C0000001C1C7E
:100210000C180000000000060C18306030180C06A6
:10022000000000000000000000007E007E000000D2
:10023000000000000000006030180C060C18306050
:10024000000000000000003C66660C18180018183A
:10025000000000000000007EC3C3CFDBDBCFC07F07
:1002600000000000000000183C6666667E66666658
:10027000000000000000007C6666667C6666667CA6
:10028000000000000000003C666660606066663C3E
:1002900000000000000000786C66666666666C7898
:1002A000000000000000007E6060607C6060607E96
:1002B000000000000000007E6060607C60606060A4
:1002C000000000000000003C666660606E66663EEE
:1002D00000000000000000666666667E6666666670
:1002E000000000000000003C181818181818183CEE
:1002F0000000000000001E0C0C0C0C0CCCCCCC78C8
:100300000000000000000066666C6C786C6C66662D
:100310000000000000000060606060606060607E5F
:10032000000000000000006363776B6B6B63636326
:10033000000000000000006363737B6F676363630A
:10034000000000000000003C666666666666663C6B
:10035000000000000000007C6666667C60606060F3
:10036000000000000000003C666666666666663C4B
:100370000C0600000000007C6666667C6C666666A3
:10038000000000000000003C666030180C06663C6F
:10039000000000000000007E18181818181818181F
:1003A0000000000000000066666666666666663CE1
:1003B00000000000000000666666666666663C181F
:1003C000000000000000006363636B6B6B36363621
:1003D0000000000000000066663418182C6666668F
:1003E00000000000000000666666663C18181818D9
:1003F000000000000000007E06060C183060607EE1
:10040000000000000000003C303030303030303030
:1004100030303C000000006060303018180C0C06D2
:10042000060000000000003C0C0C0C0C0C0C0C0C2A
:100430000C0C3C0000183C660000000000000000AE
:1004400000000000000000000000000000000000AC
:100450000000FF000038180C000000000000000041
:100460000000000000000000003C06063E66663EFC
:100470000000000000000060607C66666666667CC6
:100480000000000000000000003C66606060663C08
:100490000000000000000006063E66666666663ED6
:1004A0000000000000000000003C66667E60603CCA
:1004B000000000000000001E3030307E3030303050
:1004C0000000000000000000003E66666666663EB2
:1004D00006067C0000000060607C666666666666F4
:1004E0000000000000001818007818181818187E6E
:1004F0000000000000000C0C003C0C0C0C0C0C0C60
:100500000C0C7800000000606066666C786C6666B3
:100510000000000000000078181818181818187E3D
:100520000000000000000000007E6B6B6B6B6B63D3
:100530000000000000000000007C666666666666DB
:100540000000000000000000003C66666666663C35
:100550000000000000000000007C66666666667CA5
:100560006060600000000000003E66666666663EF1
:10057000060606000000000000666E7060606060A5
:100580000000000000000000003E60603C06067CA9
:100590000000000000000030307E30303030301E6F
:1005A0000000000000000000006666666666663EA9
:1005B00000000000000000000066666666663C18E9
:1005C000000000000000000000636B6B6B6B3636B0
:1005D00000000000000000000066663C183C6666F3
:1005E0000000000000000000006666666666663C6B
:1005F0000C18F00000000000007E060C1830607E31
:10060000000000000000000C1818183060301818A6
:10061000180C0000000000181818181818181818DE
:1006200018181800000000301818180C060C1818BC
:100630001830000000000071DB8E00000000000098
:100640000000000011241FBECFE5D8E0DEBFCDBF03
:1006500010E0A0E6B0E0E4EFF8E302C005900D92F0
:10066000A43BB107D9F710E0A4EBB0E001C01D92A4
:10067000A13CB107E1F70E944D030C94781C0C9447
:10068000000020ED37E003C0F9013197F1F7019741
:100690004FEF8F3F9407C1F70895AF92BF92CF926B
:1006A000DF92EF92FF920F931F93DF93CF93CDB71B
:1006B000DEB7C856D0400FB6F894DEBF0FBECDBF30
:1006C0008E9AB89A969AC0988D98959A8FEF84BB17
:1006D0000E9422050E94FD14859947C08E010B5F80
:1006E0001F4FC80160E670E00E94991982E390E014
:1006F0006EE670E0A80120EE3FEF00E010E00E94FF
:1007000092048399FECF2EC00E9489198C010E9409
:1007100089197C010E9489196C010E9489199C0128
:10072000C8016FE371E00E94D4188C01C7016FEE1D
:1007300070E00E94D418FC01C60164E670E00E94DB
:10074000D418AC01220F331FC801BF0101E00E9481
:10075000D2070894A11CB11C82E3A816B104A4F22C
:100760008399FECFAA24BB24F7CF0E94E31383E032
:10077000E82EF12CEC0EFD1E5E010894A11CB11CAC
:100780008399FECFC501B7010E9428148399F8CF41
:100790006B817C8189819A8141E050E02FEF3FEFAE
:1007A00001E00E94D2078599EBCF80E090E00E94A3
:1007B0001205E6CFDF9ADE9ADD98C39A95BBC398FF
:1007C000C39A85BBC398DD9A0895DF9ADE98DD98B9
:1007D000C39A95BBC398C39A85BBC398DD9A089505
:1007E0000F931F938B010E94E503C8010E94DA0357
:1007F0001F910F910895BC0102C0605C7E4F77FD90
:10080000FCCF02C06054714081E060347807D4F7B7
:100810008AE690E00E94F00308958F929F92AF9233
:10082000BF92CF92DF92EF92FF920F931F937C01C2
:100830008B014A0159018FEEC82ED12CC61AD70A56
:1008400080E290E0B6010E94F003109501951F4FE1
:1008500000511F4F0A191B0980E590E0B8010E9462
:10086000F00381E590E0B6010E94F00381E290E0A0
:10087000B7010E94F00382E590E0B7010E94F00307
:100880000894E108F108E80CF91C83E590E0B70151
:100890000E94F00382E290E00E94E5031F910F9115
:1008A000FF90EF90DF90CF90BF90AF909F908F9090
:1008B0000895AF92BF92CF92DF92FF920F931F9352
:1008C000CF93DF93F42E5901680148E050E020E116
:1008D00030E00E940D04CF2DD0E094E0CC0FDD1F5E
:1008E0009A95E1F7CC5AD14000E0FE01F49010E077
:1008F000F7FE02C0C50101C0C6010E94DA031F5FF6
:10090000183011F0FF0CF4CF0F5F2196003169F71A
:10091000DF91CF911F910F91FF90DF90CF90BF900B
:10092000AF9008958F929F92AF92BF92CF92DF9235
:10093000EF92FF920F931F93CF93DF937C014B01B4
:10094000EA01590168010BC02196C701B401950164
:1009500086010E94590488E090E0E80EF91E488163
:10096000442391F7DF91CF911F910F91FF90EF906A
:10097000DF90CF90BF90AF909F908F900895EF92AF
:10098000FF920F931F93CF93DF937801480F591F66
:10099000E1E041345E0714F040E451E097FF02C00B
:1009A00080E090E08A01081B190BA9F1260F371F80
:1009B000213F310514F020EF30E077FF02C060E006
:1009C00070E0E901C61BD70B31F137FD24C0603F51
:1009D00071050CF557FD1FC021E080349207DCF44F
:1009E000A8019E010E940D04DF9ADE9ADD98BE01E7
:1009F00080E090E0980140E050E00E94B518C39A72
:100A0000F5BAC398C39AE5BAC39861507040804064
:100A10009040A9F7DD9ADF91CF911F910F91FF9040
:100A2000EF9008950F931F938C0180E090E060E0B9
:100A300070E040E451E020EF30E00E94BF041F91DD
:100A40000F9108958F9AD59AD69ABB9AD79AB99A48
:100A5000C19888EE93E028EC30E0F9013197F1F786
:100A60000197D9F7C19A88EE93E028EC30E0F901BC
:100A70003197F1F70197D9F783EE90E068E070E3E2
:100A80000E94F00387EE90E062E170E00E94F003C4
:100A90008FEE90E061E372E10E94F00380E090E06D
:100AA00061E070E00E94F00384EF91E028EC30E018
:100AB000F9013197F1F70197D9F781E090E060E013
:100AC00070E00E94F00382E090E060E077E00E9436
:100AD000F00383E090E068E270E10E94F00384E0BC
:100AE00090E060E070E00E94F00388E090E062E057
:100AF00072E00E94F00389E090E060E070E00E9404
:100B0000F0038AE090E060E070E00E94F0038CE087
:100B100090E060E070E00E94F0038DE090E060E023
:100B200070E00E94F0038FE090E060E070E00E94CF
:100B3000F00380E190E060E070E00E94F00381E16A
:100B400090E067E070E00E94F00382E190E060E0F6
:100B500070E00E94F00383E190E060E070E00E94AA
:100B6000F00380ED97E028EC30E0F9013197F1F7E0
:100B70000197D9F780E190E060E975E10E94F00308
:100B800081E190E067E272E00E94F00384EF91E07F
:100B900028EC30E0F9013197F1F70197D9F782E1BC
:100BA00090E06EE170E00E94F00384EF91E028ECA9
:100BB00030E0F9013197F1F70197D9F783E190E03F
:100BC00060E075E10E94F00389E290E066E270E087
:100BD0000E94F00384EF91E028EC30E0F9013197B6
:100BE000F1F70197D9F780E390E067E070E00E94A9
:100BF000F00381E390E067E077E00E94F00382E396
:100C000090E067E071E00E94F00385E390E066E029
:100C100072E00E94F00386E390E066E074E00E94D8
:100C2000F00387E390E061E071E00E94F00388E365
:100C300090E061E071E00E94F00389E390E067E0FA
:100C400072E00E94F0038CE390E064E075E00E94A3
:100C5000F0038DE390E066E078E00E94F0038BE221
:100C600090E06FE070E00E94F00380E290E060E0CE
:100C700070E00E94F00381E290E060E070E00E948A
:100C8000F00380E590E060E070E00E94F00381E511
:100C900090E06FEE70E00E94F00382E590E060E08B
:100CA00070E00E94F00383E590E06FE371E00E9442
:100CB000F00380E690E060E077E20E94F00381E6D6
:100CC00090E063E070E00E94F0038AE690E060E06C
:100CD00070E00E94F00380E890E060E070E00E9425
:100CE000F00381E890E060E070E00E94F00382E8A9
:100CF00090E060E070E00E94F00383E890E060E044
:100D000070E00E94F00384E890E060E070E00E94F0
:100D1000F00385E890E060E070E00E94F00380E975
:100D200090E060E170E00E94F00382E990E060E012
:100D300076E00E94F00383E990E063E070E00E94B7
:100D4000F00385E990E060E171E00E94F00387E93B
:100D500090E060E070E00E94F00388E990E060E0DD
:100D600070E00E94F00387E090E063E371E00E948E
:100D7000F00380E090E00E941205979A08950F9387
:100D80001F93CF93DF93EC01CB018A0121E0C034A4
:100D9000D207B8F4603F7105A0F46FEE70E0681BF5
:100DA000790B80E290E00E94F00381E290E0BE01C6
:100DB0000E94F00382E290E00E94E503C8010E94D5
:100DC000DA03DF91CF911F910F9108952F923F92F7
:100DD0004F925F926F927F928F929F92AF92BF924B
:100DE000CF92DF92EF92FF920F931F93DF93CF93F7
:100DF000CDB7DEB728970FB6F894DEBF0FBECDBFD4
:100E00009A8389832B011C830B83481B590B261B58
:100E1000370B1416150624F471E0272E312C09C067
:100E20004115510521F022242A94322C02C022249B
:100E300033241216130624F461E0662E712C09C0C7
:100E40002115310521F066246A94762C02C06624AF
:100E500077245A0157FF04C0B094A194B108B39409
:100E6000690137FF04C0D094C194D108D39486019E
:100E7000CA14DB040CF4850188249924EE24FF2491
:100E800018861F82C80101969E838D8328C08981A0
:100E90009A81B2014B815C810E94BF06EA0CFB1C67
:100EA000EF81F885EC0DFD1DF887EF830E151F050A
:100EB00044F4E01AF10A89819A81820D931D9A8384
:100EC0008983EF81F8850E171F0734F4E01BF10BBF
:100ED000F887EF83460C571C0894811C911C8D8168
:100EE0009E81881599059CF628960FB6F894DEBF6A
:100EF0000FBECDBFCF91DF911F910F91FF90EF906B
:100F0000DF90CF90BF90AF909F908F907F906F9029
:100F10005F904F903F902F9008956F927F928F92A5
:100F20009F92AF92BF92CF92DF92EF92FF920F9378
:100F30001F93CF93DF937A01E90168019C013C0183
:100F4000641A750A4B018C1A9D0A5A01A20EB31E2F
:100F50008E01060F171FC501B801A6010E94BF062A
:100F6000EF2829F0C301B801A6010E94BF06CD2BCE
:100F700029F0C501B401A6010E94BF06C301B40156
:100F8000A6010E94BF06DF91CF911F910F91FF90A4
:100F9000EF90DF90CF90BF90AF909F908F907F9019
:100FA0006F9008952F923F924F925F926F927F922F
:100FB0008F929F92AF92BF92CF92DF92EF92FF9269
:100FC0000F931F93DF93CF93CDB7DEB729970FB65B
:100FD000F894DEBF0FBECDBF8C839D836E837F836D
:100FE0003A8329830B8322243324241A350A2A01C5
:100FF000198618867FC08B81882309F44BC0EC804A
:10100000FD803701E885F9856E1A7F0ACE80DF8082
:101010004F01880C991CB60164197509C301A4011C
:1010200021E030E009811A810E94BF04E418F5082C
:101030005201AA0CBB1CB60188859985681B790BE7
:10104000C701A50121E030E009811A810E94BF0497
:10105000688579856C0D7D1DC701A50121E030E013
:1010600009811A810E94BF04C40CD51CC301B601BA
:10107000A40121E030E009811A810E94BF0480E0D0
:1010800090E060E070E040E451E020EF30E00E944A
:101090000D041AC08C819D816E817F81A2012885FB
:1010A000398509811A810E948D07E885F9854E16D8
:1010B0005F0651F08C819D816E817F81AF0192012D
:1010C00009811A810E948D07288539852F5F3F4F3E
:1010D00088859985280E391E220E331E37FC08C0DC
:1010E000089441085108C201880F991F281A390A2B
:1010F00039872887E885F9854E165F060CF07BCF87
:1011000029960FB6F894DEBF0FBECDBFCF91DF9109
:101110001F910F91FF90EF90DF90CF90BF90AF9015
:101120009F908F907F906F905F904F903F902F9007
:101130000895DF92EF92FF920F931F93D82E7A01BA
:101140008B0187FF0BC087E740E050E060E070E074
:101150000E949908823098F58FE7D822C39A0E949E
:10116000F116C3980E94F1168D2D0E94F216812F60
:101170009927AA27BB270E94F216C801AA27BB27D6
:101180000E94F216BB27A12F902F8F2D0E94F216DE
:101190008E2D0E94F21680E4D81611F485E906C05F
:1011A00088E4D81611F487E801C081E00E94F216A5
:1011B0001AE00E94F11687FF02C01150D1F71F916B
:1011C0000F91FF90EF90DF900895CF92DF92EF9212
:1011D000FF920F931F93CF93DF936C01790180915E
:1011E000B60083FD07C039E0440F551F661F771F07
:1011F0003A95D1F781E50E949908882361F5C0E40A
:10120000DCE90E94F1168F3F19F42197D1F723C032
:101210008E3F09F5E114F10429F0E7010E94F1166F
:101220002197E1F7C114D10441F0E8010E94F116C1
:10123000F60181936F012197C9F7CC27DD27CE19DD
:10124000DF09CE5FDD4FC01BD10B0E94F116219745
:10125000E1F710E001C011E0C39A0E94F116812F5E
:10126000DF91CF911F910F91FF90EF90DF90CF9082
:1012700008950F931F93CF93DF938C010097D9F0BC
:10128000EA010FC0F80181918F010E94F21680914E
:10129000B4009091B50001979093B5008093B4008D
:1012A0002197209709F452C08091B4009091B50025
:1012B000892B41F74BC04115510561057105F9F0C6
:1012C0008091B60083FD07C0E9E0440F551F661FFB
:1012D000771FEA95D1F788E50E949908882311F0D5
:1012E00011E035C08FEF0E94F2168EEF0E94F216C9
:1012F00080E092E09093B5008093B40027C0C09145
:10130000B400D091B500229604C080E00E94F2168D
:1013100021972097D1F70E94F1168F71853089F4BB
:10132000C8E8D3E103C00E94E51621970E94F11698
:101330008F3F19F02097B9F704C0CD2B11F010E0C2
:1013400001C011E0C39A0E94F11601C010E0812F84
:10135000DF91CF911F910F910895CF92DF92EF927D
:10136000FF920F931F93DF93CF9300D000D0CDB7A0
:10137000DEB78091B600882351F0C39908C080E0A1
:1013800090E040E050E060E070E00E9439090E9487
:10139000E016C39A1AE00E94F1161150E1F780E4BA
:1013A00040E050E060E070E00E949908813009F070
:1013B00069C088E44AEA51E060E070E00E94990860
:1013C0008130E1F56E010894C11CD11C76018E01BB
:1013D0000B5F1F4F0E94F116F70181937F01E01709
:1013E000F107C1F78B81813009F04CC08C818A3ABA
:1013F00009F048C000E117E206C00E94E51601505E
:10140000104009F43FC089EE40E050E060E070E435
:101410000E949908882389F74CC00E94F116F601B2
:1014200081936F01EE15FF05C1F7898186FD03C029
:1014300004E0F02E28C01CE0F12E25C089EE40E02B
:1014400050E060E070E00E949908823028F0B1E43A
:10145000EB2EFF24F39404C0A9EEEA2EF2E0FF2E57
:1014600000E117E205C00E94E5160150104051F05E
:101470008E2D40E050E060E070E00E9499088823E3
:1014800091F722C0FF24F092B600C39A0E94F11691
:1014900080E0FF2009F481E00F900F900F900F90F3
:1014A000CF91DF911F910F91FF90EF90DF90CF9040
:1014B00008958AE740E050E060E070E00E949908FB
:1014C000882309F4AACFDECF80E540E052E060E057
:1014D00070E00E9499088823A9F6D5CFCF92DF92B9
:1014E000EF92FF920F931F93CF93DF936C01C09104
:1014F000B700D091B800FC0111821082248135819F
:1015000046815781213031054105510509F45BC001
:101510008E819F81A885B985281739074A075B07FF
:1015200008F051C0211531054105510539F4888174
:10153000833021F42E853F8548895989F60120871B
:10154000318742875387211531054105510581F1C6
:101550008EEFE82E8FEFF82E8FEF082F8FEF182FDA
:10156000E20EF31E041F151F8E819F81A885B98589
:101570000297A109B109E816F9060A071B0728F026
:1015800020E030E040E050E017C02A8130E040E049
:1015900050E0C801B7010E94B5189B01AC018A89CF
:1015A0009B89AC89BD89280F391F4A1F5B1F04C066
:1015B0002E853F8548895989F601248735874687D6
:1015C000578780E001C081E0DF91CF911F910F919B
:1015D000FF90EF90DF90CF9008956F927F928F925F
:1015E0009F92AF92BF92CF92DF92EF92FF920F93B2
:1015F0001F93DF93CF9300D000D0CDB7DEB74B0160
:101600005C016090B7007090B80082E08816910489
:10161000A104B10408F4B4C0F30186819781A085C8
:10162000B18588169906AA06BB0608F0A9C0808174
:10163000823009F45FC0833009F47BC0813009F047
:101640009FC0C40196958795880D991D9C013170A6
:10165000892F992786956C01EE24FF24F30142859A
:10166000538564857585CE010196F1E02F3F3F07D4
:1016700049F0C40ED51EE61EF71EB701A60102E012
:1016800010E01EC04C0D5D1D6E1D7F1D2FEF31E063
:1016900001E010E00E94E508882309F071C0F30121
:1016A00042855385648575854F5F5F4F6F4F7F4FD0
:1016B0004C0D5D1D6E1D7F1DCE01029620E030E0B9
:1016C0000E94E508882309F05BC069817A81C40122
:1016D00081709070892B39F0A4E076956795AA9572
:1016E000E1F79B0123C09B0140E050E03F70407058
:1016F00050704AC077276B2D5A2D492DF3018285F2
:101700009385A485B585480F591F6A1F7B1F9401D7
:101710003070220F331FCE01019602E010E00E94CC
:10172000E508882369F589819A819C0140E050E0B1
:101730002BC0B501A40127E076956795579547958D
:101740002A95D1F7F30182859385A485B585480F45
:10175000591F6A1F7B1F94012F773070220F331F90
:10176000220F331FCE01019604E010E00E94E5082D
:10177000882331F429813A814B815C815F7004C0F8
:1017800021E030E040E050E0B901CA010F900F9035
:101790000F900F90CF91DF911F910F91FF90EF90DD
:1017A000DF90CF90BF90AF909F908F907F906F9081
:1017B0000895AF92BF92CF92DF92EF92FF920F9374
:1017C0001F93CF93DF935C01C091B700D091B80015
:1017D000FC01C080D1800894C11CD11CC114D1046B
:1017E00009F48FC024853585468557852115310537
:1017F0004105510509F485C0C6018F709070892B91
:1018000009F07AC02F5F3F4F4F4F5F4F24873587D6
:1018100046875787408551856285738541155105F7
:101820006105710539F48C819D81C816D90608F4CB
:1018300063C067C08A8190E001979601E4E0369525
:101840002795EA95E1F782239323892B09F054C069
:10185000CB01BA010E94ED0A9B01AC016230710517
:101860008105910510F481E04DC08E819F81A8858E
:10187000B985281739074A075B0708F042C0F50108
:101880002087318742875387C091B700D091B80035
:101890008EEFE82E8FEFF82E8FEF082F8FEF182F97
:1018A000E20EF31E041F151F8E819F81A885B98546
:1018B0000297A109B109E816F9060A071B0728F0E3
:1018C00020E030E040E050E012C02A8130E040E00B
:1018D00050E0C801B7010E94B5189B01AC018A898C
:1018E0009B89AC89BD89280F391F4A1F5B1FF501F1
:1018F0002487358746875787F501D182C08280E0EB
:1019000001C083E0DF91CF911F910F91FF90EF9085
:10191000DF90CF90BF90AF9008952F923F924F925B
:101920005F926F927F928F929F92AF92BF92CF926F
:10193000DF92EF92FF920F931F93CF93DF93E82FE5
:10194000C091B700D091B800209711F486E002C191
:10195000898180FD02C085E0FDC0EA8CFB8C0C8D86
:101960001D8D4E2F592FCB01DA013C014D01E6149C
:10197000F7040805190510F437014801EE88FF88BF
:10198000088D198D1E8A1F8A188E198E6114710494
:101990008104910409F4DAC08A81A82EBB24CC24E6
:1019A000DD24B9E0AA0CBB1CCC1CDD1CBA95D1F718
:1019B000E114F10401051105B1F1170128010894A2
:1019C0002108310841085108C401B3016150704039
:1019D00080409040A60195010E94E71879018A0194
:1019E000C201B101A60195010E94E718E216F306B3
:1019F00004071507C0F088279927DC018A199B097D
:101A0000AC09BD0982219321A421B5218E8B9F8B26
:101A1000A88FB98F681A790A8A0A9B0A2AA13BA162
:101A20004CA15DA133C02E8D3F8D48A159A12AA3A1
:101A30003BA34CA35DA32AC0CA01B9010E94ED0AD1
:101A40009B01AC01623071058105910508F480C0ED
:101A50008E819F81A885B985281739074A075B07BA
:101A600008F076C02AA33BA34CA35DA38E899F896F
:101A7000A88DB98D8A0D9B1DAC1DBD1D8E8B9F8BB6
:101A8000A88FB98F6A187B088C089D08A614B70424
:101A9000C804D90488F2EE88FF88088D198DE60CF9
:101AA000F71C081D191DEE8AFF8A088F198F809078
:101AB000B7009090B800AEEFAA2EAFEFBA2EAFEFFE
:101AC000CA2EAFEFDA2EA20EB31EC41ED51EF4012D
:101AD00086819781A085B1850297A109B109A816D1
:101AE000B906CA06DB06A0F5228130E040E050E0EE
:101AF000C601B5010E94B5189B01AC01F4018289B1
:101B00009389A489B589280F391F4A1F5B1F2115A6
:101B1000310541055105E1F0F9E016950795F79477
:101B2000E794FA95D1F78A8190E00197AA2797FD6B
:101B3000A095BA2FE822F9220A231B232E0D3F1D60
:101B4000401F511F2EA33FA348A759A780E002C002
:101B5000198281E0DF91CF911F910F91FF90EF905B
:101B6000DF90CF90BF90AF909F908F907F906F90BD
:101B70005F904F903F902F900895AF92BF92CF9279
:101B8000DF92EF92FF920F931F93DF93CF93CDB726
:101B9000DEB7AC970FB6F894DEBF0FBECDBF7C01A9
:101BA0006B018091B7009091B800892B11F486E009
:101BB000B0C0CE010196D70113969C938E931297D5
:101BC0006115710539F083E00DE0A02EB12CAC0E4B
:101BD000BD1E28C0C7010E946E0A9BC0F70120816C
:101BE00031812F70307015E0220F331F1A95E1F705
:101BF000C50100E210E00E94E508882311F081E0B1
:101C00001FC09D85992309F495C0888D953E29F0C4
:101C10009E3219F08F7383FF1DC0C7010E94D90B3C
:101C2000882371F4D7011C964D915D916D917C9143
:101C30001F97411551056105710581F6882351F003
:101C4000F7011486158616861786833019F08823C7
:101C500009F05FC09601275F3F4FF70184859585A6
:101C6000A685B7850097A105B10509F443C0FE011B
:101C70003D96AE014B5E5F4F8081803251F08530E2
:101C800009F485EED9018D939D013196E417F5078E
:101C900099F78D89803299F08EE2F90181939F0145
:101CA000FE017596AE01485E5F4F8081803239F04B
:101CB000D9018D939D013196E417F507B1F7888D11
:101CC000F6018087FE013D96448D558D668D778D9A
:101CD000D6014D935D936D937C931397808D918D79
:101CE00015969C938E9314978689978917969C9343
:101CF0008E931697F9011082C7010E94D90B833089
:101D000041F4D7011C961D921D921D921C921F97A3
:101D100080E0AC960FB6F894DEBF0FBECDBFCF917A
:101D2000DF911F910F91FF90EF90DF90CF90BF90C8
:101D3000AF90089583E084CF6F927F928F929F92AD
:101D4000AF92BF92CF92DF92EF92FF920F931F93C9
:101D5000CF93DF93EC016B017A0103C00894E11C7F
:101D6000F11CF70180818032C9F38F3219F4089495
:101D7000E11CF11C1C821D821E821F82F7018081E2
:101D8000813238F4CE010E946E0AB82EF60110821C
:101D9000A5C0A0E26A2E77247394FBE08F2E912CCD
:101DA0008C0C9D1CAA81BB81FD018BE090E001C0E1
:101DB000619201972FEF8F3F9207D1F720E0AA247D
:101DC00038E002C028E03BE0F701EA0DF11D908108
:101DD000A3949132B0F09F32A1F09E3211F02317FC
:101DE00028F0383071F49E3269F30BC0892F815688
:101DF0008A3108F49052FD01E20FF11D90832F5FAC
:101E0000E3CF1B961C921B97913210F41B967C9289
:101E1000CE010E946E0AB82E8823D1F54C855D85CF
:101E20006E857F85288139812F703070E5E0220F23
:101E3000331FEA95E1F7C60100E210E00E94E508D1
:101E4000882311F081E023C0F6018081882309F402
:101E500055C0F401808183FD15C0D6018A819B8124
:101E60009C01F9012BE030E0215030408FEF2F3FF3
:101E7000380709F446C09C918081981719F411968F
:101E80003196F2CFCE010E94D90B882339F2B82EB9
:101E9000E3E0BE1619F5EA81FB8183858823E1F032
:101EA0001DC0F401808184FF17C0EA0CF11CF6010B
:101EB00084899589A0E0B0E0DC0199278827228DEC
:101EC000338D40E050E0822B932BA42BB52B8C83D9
:101ED0009D83AE83BF8366CF94E0B92E8B2DDF91B7
:101EE000CF911F910F91FF90EF90DF90CF90BF9017
:101EF000AF909F908F907F906F90089583E0B82E61
:101F0000CACFEA81FB818385882359F2E7CFEF921C
:101F1000FF920F931F93DF93CF93CDB7DEB7AC97AC
:101F20000FB6F894DEBF0FBECDBF8C01AB01809120
:101F3000B7009091B800892B11F486E031C0CE0132
:101F40000196F801938382833DE0E32EF12CEC0EA1
:101F5000FD1EC801B7010E949C0E8823F1F48D85F7
:101F60008823C1F0888D84FF1AC0F7018489958980
:101F7000A0E0B0E0DC0199278827228D338D40E076
:101F800050E0822B932BA42BB52BF80184839583EF
:101F9000A683B783C8010E946E0A833009F484E0E7
:101FA000AC960FB6F894DEBF0FBECDBFCF91DF91D8
:101FB0001F910F91FF90EF900895EF92FF920F9372
:101FC0001F93DF93CF93CDB7DEB7EC970FB6F8949E
:101FD000DEBF0FBECDBFAC010091B7001091B800BD
:101FE0000115110511F466E040C0F8011182CE011F
:101FF0000196988B8F876DE1E62EF12CEC0EFD1E7D
:10200000CE010D96B7010E949C0E682F882369F5BA
:102010008D8D882349F188A584FD26C0F701848928
:102020009589A0E0B0E0DC0199278827228D338DC7
:1020300040E050E0822B932BA42BB52BF801868F28
:10204000978FA0A3B1A3F701848D958DA68DB78D31
:10205000F801828F938FA48FB58F168A178A108EFE
:10206000118E81E0818301C063E0862FEC960FB66C
:10207000F894DEBF0FBECDBFCF91DF911F910F91BE
:10208000FF90EF9008954F925F926F927F928F92A0
:102090009F92AF92BF92CF92DF92EF92FF920F93F7
:1020A0001F93CF93DF933C016B014A01C091B700AE
:1020B000D091B800FA0111821082209711F486E0C5
:1020C000CAC0898180FD02C085E0C5C02A8D3B8DD4
:1020D0004C8D5D8D8E899F89A88DB98D281B390BFC
:1020E0004A0B5B0BCB01A0E0B0E0281739074A0789
:1020F0005B0708F469015301412CE2E05E2EA3C0A6
:102100002E893F89488D598DDA01C9019170A070DF
:10211000B0700097A105B10509F060C0DA01C901EE
:1021200079E0B695A795979587957A95D1F7FA8036
:10213000FA94F822D1F4211531054105510529F40D
:102140006E8D7F8D88A199A106C06AA17BA18CA10B
:102150009DA10E94ED0A623071058105910508F488
:1021600078C06AA37BA38CA39DA30091B7001091B4
:10217000B8002AA13BA14CA15DA1225030404040B3
:102180005040F80186819781A085B1850297A10909
:10219000B109281739074A075B0708F05AC062815E
:1021A00070E080E090E00E94B5189B01AC01F8015E
:1021B00082899389A489B589280F391F4A1F5B1F1B
:1021C000211531054105510509F443C02F0D311D7D
:1021D000411D511D2EA33FA348A759A72E893F8912
:1021E0003170C201821B930B76018C159D0508F49A
:1021F0007C016114710419F480E090E001C0C50114
:102200004EA15FA168A579A587010E94E5088823F2
:1022100001F5C701A0E0B0E02E893F89488D598DB6
:10222000280F391F4A1F5B1F2E8B3F8B488F598FFA
:10223000AE0CBF1CCE18DF08F401808191818E0D99
:102240009F1D91838083C114D10409F059CF80E090
:1022500002C0198281E0DF91CF911F910F91FF9011
:10226000EF90DF90CF90BF90AF909F908F907F9036
:102270006F905F904F900895AF92BF92CF92DF9290
:10228000EF92FF920F931F93CF93DF93B82EA92E57
:102290006A017B012EEF31E002E010E00E94E508C8
:1022A000882311F023E033C0CB2DDA2D888199816A
:1022B00085559A4A11F022E02AC08B2D9A2DB7013C
:1022C000A60126E330E002E010E00E94E508882342
:1022D00039F4888199818654914411F420E017C023
:1022E0008B2D9A2DB701A60122E530E002E010E027
:1022F0000E94E508882311F021E009C020E08881D0
:1023000099818654914409F421E081E02827822FA5
:10231000DF91CF911F910F91FF90EF90DF90CF90C1
:10232000BF90AF9008954F925F926F927F928F927D
:102330009F92AF92BF92CF92DF92EF92FF920F9354
:102340001F93CF93DF93FC015B013A01C091B7006B
:10235000D091B800DA011D921C92209711F486E00A
:10236000FDC0898190E080FD02C085E0F7C08074E7
:1023700090706115710589F4892B59F080E090E027
:1023800040E050E060E070E00E943909882309F0E5
:10239000E3C089818F7B8983DDC0892B51F48E89CD
:1023A0009F89A88DB98D80709E7F8E8B9F8BA88F03
:1023B000B98F2A8D3B8D4C8D5D8D8E899F89A88D1F
:1023C000B98D281B390B4A0B5B0BC501A0E0B0E0AF
:1023D000281739074A075B0708F459014F01412CB8
:1023E000A2E05A2EB3C02E893F89488D598DC9016C
:1023F0009170892B09F06CC0DA01C901F9E0B6953A
:10240000A79597958795FA95D1F7FA80FA94F822CF
:10241000D1F4211531054105510529F46E8D7F8DCB
:1024200088A199A106C06AA17BA18CA19DA10E944F
:10243000ED0A623071058105910508F48DC06AA32B
:102440007BA38CA39DA30091B7001091B8002AA193
:102450003BA14CA15DA12250304040405040F801CA
:1024600086819781A085B1850297A109B1092817B6
:1024700039074A075B0708F06FC0628170E080E0AF
:1024800090E00E94B5189B01AC01F8018289938904
:10249000A489B589280F391F4A1F5B1F21153105F3
:1024A0004105510509F458C0BA01A9014F0D511D4C
:1024B000611D711D4EA35FA368A779A780E090E01E
:1024C0000E943909882309F047C089818064898383
:1024D0008E899F8991709201281B390B65012A15FD
:1024E0003B0508F46901760100E010E0C401B80181
:1024F000A7010E943909882379F58E899F89A88DC3
:10250000B98D8E0D9F1DA01FB11F9C018E8B9F8BBF
:10251000A88FB98FD3018D919C9111978C0D9D1D22
:102520008D939C933170232B69F480E090E040E020
:1025300050E060E070E00E943909882369F48981E5
:102540008F7B89838C0C9D1CAC18BD08A114B10431
:1025500009F049CF80E002C0198281E0DF91CF917C
:102560001F910F91FF90EF90DF90CF90BF90AF90B1
:102570009F908F907F906F905F904F9008956F9293
:102580007F928F929F92AF92BF92CF92DF92EF9203
:10259000FF920F931F93DF93CF93CDB7DEB7A4972E
:1025A0000FB6F894DEBF0FBECDBF5C011092B8002D
:1025B0001092B700009709F4ECC00E94AD0980FFAB
:1025C00002C082E0EBC04E010894811C911CC40142
:1025D00040E050E060E070E00E943C11813021F06A
:1025E000CC24DD2476011BC0C40140E050E060E053
:1025F00070E02EEB31E000E110E00E94E508882356
:1026000009F0C9C08D81882309F4C7C0C984DA8460
:10261000EB84FC84C401B701A6010E943C11833005
:1026200009F4B9C0882309F0B8C0CE010196B701FA
:10263000A6012DE030E004E210E00E94E5088823C6
:1026400009F0A9C08A859B85BC0180E090E06115F6
:1026500071058105910521F4688D798D8A8D9B8D99
:102660002C8130E040E050E00E94B5183B014C0165
:102670008A819B81A0E0B0E0C80ED91EEA1EFB1E35
:10268000F501C286D386E486F586898182832D8111
:102690003E81358324838F8198857C0100E010E0A2
:1026A000E114F1040105110521F4EC88FD880E897F
:1026B0001F898A819B81A0E0B0E0E81AF90A0A0B21
:1026C0001B0BE618F7080809190984E036952795C9
:1026D0008A95E1F7C901A0E0B0E0E81AF90A0A0B0F
:1026E0001B0BF501228130E040E050E0C801B7014A
:1026F0000E94E7182E5F3F4F4F4F5F4FF501268333
:10270000378340875187273FFFE03F07F0E04F07BF
:10271000F0E05F0710F481E001C082E0275F3F4FE7
:102720004040504008F083E0F5018083833029F475
:1027300088A199A1AAA1BBA109C0F50182859385B1
:10274000A485B585860D971DA81DB91D8687978719
:10275000A08BB18BF50184819581B4E09695879526
:10276000BA95E1F7A0E0B0E0228533854485558530
:10277000820F931FA41FB51F860D971DA81DB91D9D
:10278000828B938BA48BB58B1182B092B800A092F0
:10279000B70080E003C081E001C087E0A4960FB6D7
:1027A000F894DEBF0FBECDBFCF91DF911F910F9187
:1027B000FF90EF90DF90CF90BF90AF909F908F9061
:1027C0007F906F900895C49ABC9ABF9ABD9AC69A9A
:1027D00080E58DB9699A81E08EB98EB10895FC01CA
:1027E000DB01C49880E98FB9779BFECF8FB11FB80A
:1027F000779BFECF9FB180ED8FB9779BFECF2FB136
:102800001FB8779BFECF6FB11FB8779BFECF4FB13C
:10281000C49A26952695269530E0892F90E055E0BC
:10282000880F991F5A95E1F7282B392B3183208384
:1028300046954695469550E0862F90E025E0880F16
:10284000991F2A95E1F7482B592B4D935C930895D6
:102850002F923F924F925F926F927F929F92AF9290
:10286000BF92CF92DF92EF92FF920F931F93DF936D
:10287000CF9300D000D000D0CDB7DEB71C017E834F
:102880006D839924EE24FF248701AA24BB246501CB
:1028900063E0462E512C4C0E5D1E3E010894611CD7
:1028A000711CC301B2010E94EF1389819A81AA278A
:1028B00097FDA095BA2FE80EF91E0A1F1B1F8B81EA
:1028C0009C81AA2797FDA095BA2FA80EB91ECA1EF3
:1028D000DB1E93948AE0981621F7C801B7012AE01D
:1028E00030E040E050E00E94091979018A01C601F8
:1028F000B5012AE030E040E050E00E94091959019A
:102900006A018091BB009091BC00AA2797FDA09519
:10291000BA2FE81AF90A0A0B1B0BC801B7010E946B
:10292000C6177B018C016091BF007091C0008827A1
:1029300077FD8095982F0E94C6179B01AC01C801B6
:10294000B7010E942B1720E030E040EA53E40E94D8
:1029500052180E94931720E431E0261B370BF10137
:10296000318320838091BD009091BE00AA2797FDFE
:10297000A095BA2FA81AB90ACA0ADB0AC601B5017E
:102980000E94C6177B018C016091B9007091BA005A
:10299000882777FD8095982F0E94C6179B01AC0170
:1029A000C801B7010E942B1720E030E040E753E454
:1029B0000E9452180E949317ED81FE8171836083FB
:1029C00026960FB6F894DEBF0FBECDBFCF91DF9134
:1029D0001F910F91FF90EF90DF90CF90BF90AF903D
:1029E0009F907F906F905F904F903F902F900895B1
:1029F0008FB9779BFECF8FB108954F925F926F9200
:102A00007F928F929F92AF92BF92CF92DF92EF927E
:102A1000FF920F931F93DF93CF93CDB7DEB7C856C6
:102A2000D0400FB6F894DEBF0FBECDBF80E090E07F
:102A30000E9412050E94E3138B98939880E290E025
:102A400068E170E04AE050E02FEF3FEF00E00E94C5
:102A5000D20780E290E068E170E043E050E02FEFC1
:102A60003FEF0E94D2078399FECFEE24FF24870117
:102A7000AA24BB246501992483E0482E512C4C0ED6
:102A80005D1E3E010894611C711CC301B2010E94CD
:102A9000EF1389819A81AA2797FDA095BA2FE80E96
:102AA000F91E0A1F1B1F8B819C81AA2797FDA095E9
:102AB000BA2FA80EB91ECA1EDB1E93948AE0981680
:102AC00021F7C801B7012AE030E040E050E00E9461
:102AD00009193093BC002093BB00C601B5012AE060
:102AE00030E040E050E00E9409193093BE0020938E
:102AF000BD00839BFECF80E090E00E94120580E243
:102B000091E068E770E04AE050E02FEF3FEF00E02F
:102B10000E94D20780E291E068E770E043E050E075
:102B20002FEF3FEF0E94D2078399FECFEE24FF24C0
:102B30008701DD24B3E08B2E912C8C0E9D1E5E014F
:102B40000894A11CB11CC501B4010E94EF13898136
:102B50009A81AA2797FDA095BA2FE80EF91E0A1FA1
:102B60001B1FD3949AE0D91671F7C801B7012AE068
:102B700030E040E050E00E94091979018A0160913B
:102B8000BB007091BC00882777FD8095982F6E1947
:102B90007F09800B910B28E030E040E050E00E947C
:102BA0000919C901880F991FB901F3E0660F771F52
:102BB000FA95E1F7860F971F9093C0008093BF00AE
:102BC000E21AF30AF092BC00E092BB00839BFECFB6
:102BD00080E090E00E94120580EA90E068ED70E0ED
:102BE0004AE050E02FEF3FEF00E00E94D20780EA7A
:102BF00090E068ED70E043E050E02FEF3FEF0E947F
:102C0000D2078399FECFEE24FF248701DD24E3E081
:102C10008E2E912C8C0E9D1E5E010894A11CB11C61
:102C2000C501B4010E94EF138B819C81AA2797FDF7
:102C3000A095BA2FE80EF91E0A1F1B1FD394AAE015
:102C4000DA1671F7C090BD00D090BE00C801B70180
:102C50002AE030E040E050E00E940919C601AA27AE
:102C600097FDA095BA2F281B390B4A0B5B0BCA01A5
:102C7000B90128E030E040E050E00E9409197901F4
:102C80008A01C801B7012AE030E040E050E00E942C
:102C9000B5187093BA006093B900CE18DF08D092CF
:102CA000BE00C092BD00839BFECF80E090E00E94FA
:102CB00012058DB79EB708970FB6F8949EBF0FBE4A
:102CC0008DBFEDB7FEB7319675E0E72EF12CEC0E17
:102CD000FD1EADB7BEB71296FC92EE9211978AE731
:102CE00090E0938382838091BB009091BC00958398
:102CF00084838091BF009091C000978386830E9457
:102D0000A0198DB79EB708960FB6F8949EBF0FBE58
:102D10008DBF8AE090E068EC70E0A70120EE3FEF05
:102D200000E010E00E949204ADB7BEB718970FB64E
:102D3000F894BEBF0FBEADBFEDB7FEB73196129689
:102D4000FC92EE92119785E990E0938382838091C3
:102D5000BD009091BE00958384838091B9009091CD
:102D6000BA00978386830E94A0198DB79EB70896F4
:102D70000FB6F8949EBF0FBE8DBF8AE090E06CED59
:102D800070E0A70120EE3FEF0E9492048399FECFEE
:102D9000C859DF4F0FB6F894DEBF0FBECDBFCF913D
:102DA000DF911F910F91FF90EF90DF90CF90BF9038
:102DB000AF909F908F907F906F905F904F9008950D
:102DC000B89ABA9AB99AC39A089580E5319731971B
:102DD000319700008A95D1F7089502D0C09801C0BC
:102DE000C09A8FEF98E087FDC29A87FFC298880F3C
:102DF000B3998395C19AC1989A95A9F70895FB0153
:102E000083E080935700E8958091570080FDFCCFC8
:102E100081E180935700E89508950F921F92FB017E
:102E2000DA0190E40D901D9081E080935700E895C1
:102E300032969A95B9F7FB0185E080935700E895A3
:102E40008091570080FDFCCF81E180935700E89589
:102E50001F900F9008950CD0EBC0E3D040F0DAD073
:102E600030F021F45F3F19F0CCC0511115C1CFC033
:102E7000F0D098F39923C9F35523B1F3951B550B63
:102E8000BB27AA2762177307840738F09F5F5F4F3D
:102E9000220F331F441FAA1FA9F333D00E2E3AF07E
:102EA000E0E830D091505040E695001CCAF729D098
:102EB000FE2F27D0660F771F881FBB1F26173707E7
:102EC0004807AB07B0E809F0BB0B802DBF01FF2717
:102ED00093585F4F2AF09E3F510568F092C0DCC0C6
:102EE0005F3FECF3983EDCF3869577956795B79551
:102EF000F7959F5FC9F7880F911D9695879597F96C
:102F00000895E1E0660F771F881FBB1F62177307E4
:102F10008407BA0720F0621B730B840BBA0BEE1FF9
:102F200088F7E095089504D06894B111B5C008956C
:102F300098D088F09F5790F0B92F9927B751A0F0FB
:102F4000D1F0660F771F881F991F1AF0BA95C9F73D
:102F500012C0B13081F09FD0B1E008959CC0672FBE
:102F6000782F8827B85F39F0B93FCCF386957795ED
:102F70006795B395D9F73EF49095809570956195D6
:102F80007F4F8F4F9F4F0895E89409C097FB3EF401
:102F900090958095709561957F4F8F4F9F4F9923A6
:102FA000A9F0F92F96E9BB279395F6958795779524
:102FB0006795B795F111F8CFFAF4BB0F11F460FFE4
:102FC0001BC06F5F7F4F8F4F9F4F16C0882311F03C
:102FD00096E911C0772321F09EE8872F762F05C050
:102FE000662371F096E8862F70E060E02AF09A95EB
:102FF000660F771F881FDAF7880F9695879597F9E0
:10300000089597F99F6780E870E060E008959FEF6A
:1030100080EC089500240A9416161706180609066F
:10302000089500240A94121613061406050608953E
:10303000092E0394000C11F4882352F0BB0F40F4C6
:10304000BF2B11F460FF04C06F5F7F4F8F4F9F4F06
:10305000089557FD9058440F551F59F05F3F71F088
:103060004795880F97FB991F61F09F3F79F08795EF
:103070000895121613061406551FF2CF4695F1DF78
:1030800008C0161617061806991FF1CF8695710508
:10309000610508940895E894BB2766277727CB013C
:1030A00097F908950BD0C4CFB5DF28F0BADF18F038
:1030B000952309F0A6CFABCF1124EECFCADFA0F342
:1030C000959FD1F3950F50E0551F629FF001729FBD
:1030D000BB27F00DB11D639FAA27F00DB11DAA1FDC
:1030E000649F6627B00DA11D661F829F2227B00D29
:1030F000A11D621F739FB00DA11D621F839FA00DB4
:10310000611D221F749F3327A00D611D231F849F03
:10311000600D211D822F762F6A2F11249F5750405A
:103120008AF0E1F088234AF0EE0FFF1FBB1F661FF5
:10313000771F881F91505040A9F79E3F510570F0AE
:1031400060CFAACF5F3FECF3983EDCF3869577958E
:103150006795B795F795E7959F5FC1F7FE2B880FA9
:10316000911D9695879597F90895629FD001739F59
:10317000F001829FE00DF11D649FE00DF11D929F13
:10318000F00D839FF00D749FF00D659FF00D992752
:10319000729FB00DE11DF91F639FB00DE11DF91F76
:1031A000BD01CF011124089597FB092E07260AD0EF
:1031B00077FD04D049D006D000201AF470956195AF
:1031C0007F4F0895F6F7909581959F4F0895A1E25E
:1031D0001A2EAA1BBB1BFD010DC0AA1FBB1FEE1F91
:1031E000FF1FA217B307E407F50720F0A21BB30BDC
:1031F000E40BF50B661F771F881F991F1A9469F758
:1032000060957095809590959B01AC01BD01CF01B3
:10321000089597FB092E05260ED057FD04D0D7DF61
:103220000AD0001C38F450954095309521953F4FB9
:103230004F4F5F4F0895F6F7909580957095619583
:103240007F4F8F4F9F4F0895AA1BBB1B51E107C0B3
:10325000AA1FBB1FA617B70710F0A61BB70B881F26
:10326000991F5A95A9F780959095BC01CD010895B5
:10327000A0E0B0E0EEE3F9E10C94491CEC01A88079
:10328000B980CA80DB80A114B104C104D10441F427
:1032900084E2A82E89EDB82E8BE5C82E87E0D82EC3
:1032A000C601B5012DE133EF41E050E00E9409195C
:1032B00027EA31E440E050E00E94B5187B018C0120
:1032C000C601B5012DE133EF41E050E00E9409193C
:1032D000CA01B9012CEE34EF4FEF5FEF0E94B51831
:1032E0006E0D7F1D801F911F97FF04C061507040BD
:1032F00080409048688379838A839B839B013F77D2
:10330000C901CDB7DEB7EAE00C94651C0E943819FC
:10331000089580EB90E00E9438190895A0E0B0E095
:103320008093B0009093B100A093B200B093B3002B
:103330000895FB01DC0101900D920020E1F7089552
:10334000AEE0B0E0E6EAF9E10C944F1C0D891E896D
:1033500086E08C831A8309838FEF9FE79E838D839A
:103360009E01275E3F4FCE0101966F89788DA9019E
:103370000E94C4192F813885020F131FF801108293
:103380002E96E4E00C946B1CABE0B0E0EAECF9E1C3
:103390000C94411C3C012B015A01FC01178216823E
:1033A000838181FD03C06FEF7FEFC6C19AE0892E54
:1033B0001E010894211C311CF3012381F20123FD1D
:1033C000859123FF81912F01882309F4B2C18532B1
:1033D00039F423FD859123FF81912F01853229F452
:1033E00090E0B3010E94B71BE7CF982FFF24EE2493
:1033F0009924FFE1FF15D0F09B3269F09C3228F44C
:10340000903259F0933291F40EC09D3249F09033CE
:1034100069F441E024C052E0F52A84E0F82A28C08B
:1034200098E0F92A25C0E0E1FE2A22C0F7FC29C075
:10343000892F80538A3070F4F6FE05C0989C902C3A
:103440001124980E15C0E89CE02C1124E80EF0E23F
:10345000FF2A0EC09E3229F4F6FC6BC140E4F42A28
:1034600007C09C3619F450E8F52A02C0983649F492
:10347000F20123FD959123FF91912F01992309F0EA
:10348000B8CF892F8554833018F08052833038F4B8
:1034900044E050E0A40EB51E5FE359830FC093369D
:1034A00031F0933779F0933509F056C020C0F5011B
:1034B0008081898342E050E0A40EB51E610101E0E5
:1034C00010E012C0F501C080D180F6FC03C06FEFA0
:1034D0007FEF02C0692D70E042E050E0A40EB51EFF
:1034E000C6010E94AC1B8C015FE7F52214C0F501F8
:1034F000C080D180F6FC03C06FEF7FEF02C0692D62
:1035000070E042E050E0A40EB51EC6010E94A11B6F
:103510008C0150E8F52AF3FE07C01AC080E290E063
:10352000B3010E94B71BEA948E2D90E0081719078B
:10353000A8F30EC0F601F7FC8591F7FE81916F01AB
:1035400090E0B3010E94B71BE110EA9401501040D3
:103550000115110579F7EAC0943611F0993669F52D
:10356000F7FE08C0F501208131814281538184E05A
:1035700090E00AC0F501808191819C01442737FDCC
:103580004095542F82E090E0A80EB91E9FE6F922E4
:1035900057FF09C050954095309521953F4F4F4FAB
:1035A0005F4FE0E8FE2ACA01B901A1012AE030E03C
:1035B0000E94E31BD82ED21840C0953729F41F2D46
:1035C0001F7E2AE030E01DC01F2D197F9F3661F05D
:1035D000903720F4983509F0ACC00FC0903739F01F
:1035E000983709F0A6C004C028E030E00AC0106196
:1035F00014FD146020E130E004C014FD166020E1E9
:1036000032E017FF08C0F5016081718182819381EA
:1036100044E050E008C0F50180819181BC0180E068
:1036200090E042E050E0A40EB51EA1010E94E31B11
:10363000D82ED2188FE7F82EF122F6FE0BC05EEFDF
:10364000F522D91438F4F4FE07C0F2FC05C08FEE61
:10365000F82202C01D2D01C0192DF4FE0DC0FE017F
:10366000ED0DF11D8081803319F499EEF92208C027
:103670001F5FF2FE05C003C08F2D867809F01F5F23
:103680000F2DF3FC14C0F0FE0FC01E1510F09D2C82
:103690000BC09D2C9E0C911A1E2D06C080E290E05E
:1036A000B3010E94B71B1F5F1E15C0F304C01E1597
:1036B00010F4E11A01C0EE2404FF0FC080E390E093
:1036C000B3010E94B71B02FF1DC001FD03C088E7C4
:1036D00090E00EC088E590E00BC0802F867891F0D6
:1036E00001FF02C08BE201C080E2F7FC8DE290E0B6
:1036F000B3010E94B71B06C080E390E0B3010E94B3
:10370000B71B9A94D914C0F3DA94F101ED0DF11DB1
:10371000808190E0B3010E94B71BDD20A9F706C0AD
:1037200080E290E0B3010E94B71BEA94EE20C1F75B
:1037300043CEF30166817781CB012B96E2E10C94B5
:103740005D1CFC010590615070400110D8F7809518
:1037500090958E0F9F1F0895FC016150704001905D
:103760000110D8F7809590958E0F9F1F08950F93A5
:103770001F93CF93DF938C01EB018B8181FF1BC0E3
:1037800082FF0DC02E813F818C819D8128173907D2
:1037900064F4E881F9810193F983E88306C0E88540
:1037A000F985802F0995892B31F48E819F810196AF
:1037B0009F838E8302C00FEF1FEFC801DF91CF916F
:1037C0001F910F910895FA01AA27283051F1203155
:1037D00081F1E8946F936E7F6E5F7F4F8F4F9F4FA5
:1037E000AF4FB1E03ED0B4E03CD0670F781F891FE7
:1037F0009A1FA11D680F791F8A1F911DA11D6A0FB5
:10380000711D811D911DA11D20D009F468943F9167
:103810002AE0269F11243019305D3193DEF6CF0166
:103820000895462F4770405D4193B3E00FD0C9F72C
:10383000F6CF462F4F70405D4A3318F0495D31FD99
:103840004052419302D0A9F7EACFB4E0A6959795EC
:10385000879577956795BA95C9F7009761057105C2
:1038600008959B01AC010A2E06945795479537950C
:103870002795BA95C9F7620F731F841F951FA01D66
:1038800008952F923F924F925F926F927F928F9204
:103890009F92AF92BF92CF92DF92EF92FF920F93DF
:1038A0001F93CF93DF93CDB7DEB7CA1BDB0B0FB6E9
:1038B000F894DEBF0FBECDBF09942A8839884888A6
:1038C0005F846E847D848C849B84AA84B984C8843C
:1038D000DF80EE80FD800C811B81AA81B981CE0F33
:1038E000D11D0FB6F894DEBF0FBECDBFED01089518
:0438F000F894FFCF7A
:1038F4004E65776D616E277320746F7563682063FE
:103904006972636C65732E2E2000782E2E2E203063
:103914002025253A20256420203130302025253AE1
:103924002025642000792E2E2E20302025253A20B3
:10393400256420203130302025253A2025642000BC
:04394400010000007E
:00000001FF
